{
  "contractName": "Funds",
  "abi": [
    {
      "constant": true,
      "inputs": [
        {
          "name": "",
          "type": "address"
        }
      ],
      "name": "secretHashIndex",
      "outputs": [
        {
          "name": "",
          "type": "uint256"
        }
      ],
      "payable": false,
      "stateMutability": "view",
      "type": "function"
    },
    {
      "constant": true,
      "inputs": [],
      "name": "maxUtilizationDelta",
      "outputs": [
        {
          "name": "",
          "type": "uint256"
        }
      ],
      "payable": false,
      "stateMutability": "view",
      "type": "function"
    },
    {
      "constant": true,
      "inputs": [],
      "name": "defaultArbiterFee",
      "outputs": [
        {
          "name": "",
          "type": "uint256"
        }
      ],
      "payable": false,
      "stateMutability": "view",
      "type": "function"
    },
    {
      "constant": true,
      "inputs": [],
      "name": "cTokenMarketLiquidity",
      "outputs": [
        {
          "name": "",
          "type": "uint256"
        }
      ],
      "payable": false,
      "stateMutability": "view",
      "type": "function"
    },
    {
      "constant": true,
      "inputs": [],
      "name": "DEFAULT_LIQUIDATION_RATIO",
      "outputs": [
        {
          "name": "",
          "type": "uint256"
        }
      ],
      "payable": false,
      "stateMutability": "view",
      "type": "function"
    },
    {
      "constant": true,
      "inputs": [],
      "name": "globalInterestRateNumerator",
      "outputs": [
        {
          "name": "",
          "type": "uint256"
        }
      ],
      "payable": false,
      "stateMutability": "view",
      "type": "function"
    },
    {
      "constant": true,
      "inputs": [
        {
          "name": "",
          "type": "address"
        }
      ],
      "name": "fundOwner",
      "outputs": [
        {
          "name": "",
          "type": "bytes32"
        }
      ],
      "payable": false,
      "stateMutability": "view",
      "type": "function"
    },
    {
      "constant": true,
      "inputs": [],
      "name": "lastGlobalInterestUpdated",
      "outputs": [
        {
          "name": "",
          "type": "uint256"
        }
      ],
      "payable": false,
      "stateMutability": "view",
      "type": "function"
    },
    {
      "constant": true,
      "inputs": [],
      "name": "decimals",
      "outputs": [
        {
          "name": "",
          "type": "uint256"
        }
      ],
      "payable": false,
      "stateMutability": "view",
      "type": "function"
    },
    {
      "constant": true,
      "inputs": [],
      "name": "DEFAULT_MIN_LOAN_AMT",
      "outputs": [
        {
          "name": "",
          "type": "uint256"
        }
      ],
      "payable": false,
      "stateMutability": "view",
      "type": "function"
    },
    {
      "constant": true,
      "inputs": [],
      "name": "getComptrollerAddress",
      "outputs": [
        {
          "name": "",
          "type": "address"
        }
      ],
      "payable": false,
      "stateMutability": "view",
      "type": "function"
    },
    {
      "constant": true,
      "inputs": [],
      "name": "utilizationInterestDivisor",
      "outputs": [
        {
          "name": "",
          "type": "uint256"
        }
      ],
      "payable": false,
      "stateMutability": "view",
      "type": "function"
    },
    {
      "constant": true,
      "inputs": [
        {
          "name": "",
          "type": "address"
        },
        {
          "name": "",
          "type": "uint256"
        }
      ],
      "name": "secretHashes",
      "outputs": [
        {
          "name": "",
          "type": "bytes32"
        }
      ],
      "payable": false,
      "stateMutability": "view",
      "type": "function"
    },
    {
      "constant": true,
      "inputs": [],
      "name": "globalInterestRate",
      "outputs": [
        {
          "name": "",
          "type": "uint256"
        }
      ],
      "payable": false,
      "stateMutability": "view",
      "type": "function"
    },
    {
      "constant": true,
      "inputs": [],
      "name": "comptroller",
      "outputs": [
        {
          "name": "",
          "type": "address"
        }
      ],
      "payable": false,
      "stateMutability": "view",
      "type": "function"
    },
    {
      "constant": true,
      "inputs": [],
      "name": "marketLiquidity",
      "outputs": [
        {
          "name": "",
          "type": "uint256"
        }
      ],
      "payable": false,
      "stateMutability": "view",
      "type": "function"
    },
    {
      "constant": true,
      "inputs": [],
      "name": "minInterestRateNumerator",
      "outputs": [
        {
          "name": "",
          "type": "uint256"
        }
      ],
      "payable": false,
      "stateMutability": "view",
      "type": "function"
    },
    {
      "constant": true,
      "inputs": [],
      "name": "cToken",
      "outputs": [
        {
          "name": "",
          "type": "address"
        }
      ],
      "payable": false,
      "stateMutability": "view",
      "type": "function"
    },
    {
      "constant": true,
      "inputs": [
        {
          "name": "",
          "type": "bytes32"
        }
      ],
      "name": "funds",
      "outputs": [
        {
          "name": "lender",
          "type": "address"
        },
        {
          "name": "minLoanAmt",
          "type": "uint256"
        },
        {
          "name": "maxLoanAmt",
          "type": "uint256"
        },
        {
          "name": "minLoanDur",
          "type": "uint256"
        },
        {
          "name": "maxLoanDur",
          "type": "uint256"
        },
        {
          "name": "maxFundDur",
          "type": "uint256"
        },
        {
          "name": "interest",
          "type": "uint256"
        },
        {
          "name": "penalty",
          "type": "uint256"
        },
        {
          "name": "fee",
          "type": "uint256"
        },
        {
          "name": "liquidationRatio",
          "type": "uint256"
        },
        {
          "name": "arbiter",
          "type": "address"
        },
        {
          "name": "balance",
          "type": "uint256"
        },
        {
          "name": "cBalance",
          "type": "uint256"
        }
      ],
      "payable": false,
      "stateMutability": "view",
      "type": "function"
    },
    {
      "constant": true,
      "inputs": [
        {
          "name": "",
          "type": "bytes32"
        }
      ],
      "name": "bools",
      "outputs": [
        {
          "name": "custom",
          "type": "bool"
        },
        {
          "name": "compoundEnabled",
          "type": "bool"
        }
      ],
      "payable": false,
      "stateMutability": "view",
      "type": "function"
    },
    {
      "constant": true,
      "inputs": [],
      "name": "totalBorrow",
      "outputs": [
        {
          "name": "",
          "type": "uint256"
        }
      ],
      "payable": false,
      "stateMutability": "view",
      "type": "function"
    },
    {
      "constant": true,
      "inputs": [],
      "name": "fundIndex",
      "outputs": [
        {
          "name": "",
          "type": "uint256"
        }
      ],
      "payable": false,
      "stateMutability": "view",
      "type": "function"
    },
    {
      "constant": true,
      "inputs": [],
      "name": "DEFAULT_MIN_LOAN_DUR",
      "outputs": [
        {
          "name": "",
          "type": "uint256"
        }
      ],
      "payable": false,
      "stateMutability": "view",
      "type": "function"
    },
    {
      "constant": true,
      "inputs": [],
      "name": "DEFAULT_LIQUIDATION_PENALTY",
      "outputs": [
        {
          "name": "",
          "type": "uint256"
        }
      ],
      "payable": false,
      "stateMutability": "view",
      "type": "function"
    },
    {
      "constant": true,
      "inputs": [],
      "name": "DEFAULT_MAX_LOAN_AMT",
      "outputs": [
        {
          "name": "",
          "type": "uint256"
        }
      ],
      "payable": false,
      "stateMutability": "view",
      "type": "function"
    },
    {
      "constant": true,
      "inputs": [
        {
          "name": "",
          "type": "address"
        }
      ],
      "name": "pubKeys",
      "outputs": [
        {
          "name": "",
          "type": "bytes"
        }
      ],
      "payable": false,
      "stateMutability": "view",
      "type": "function"
    },
    {
      "constant": true,
      "inputs": [],
      "name": "NUM_SECONDS_IN_YEAR",
      "outputs": [
        {
          "name": "",
          "type": "uint256"
        }
      ],
      "payable": false,
      "stateMutability": "view",
      "type": "function"
    },
    {
      "constant": true,
      "inputs": [],
      "name": "interestUpdateDelay",
      "outputs": [
        {
          "name": "",
          "type": "uint256"
        }
      ],
      "payable": false,
      "stateMutability": "view",
      "type": "function"
    },
    {
      "constant": true,
      "inputs": [],
      "name": "maxInterestRateNumerator",
      "outputs": [
        {
          "name": "",
          "type": "uint256"
        }
      ],
      "payable": false,
      "stateMutability": "view",
      "type": "function"
    },
    {
      "constant": true,
      "inputs": [],
      "name": "lastUtilizationRatio",
      "outputs": [
        {
          "name": "",
          "type": "uint256"
        }
      ],
      "payable": false,
      "stateMutability": "view",
      "type": "function"
    },
    {
      "constant": true,
      "inputs": [
        {
          "name": "x",
          "type": "uint256"
        },
        {
          "name": "y",
          "type": "uint256"
        }
      ],
      "name": "cmul",
      "outputs": [
        {
          "name": "z",
          "type": "uint256"
        }
      ],
      "payable": false,
      "stateMutability": "pure",
      "type": "function"
    },
    {
      "constant": true,
      "inputs": [],
      "name": "token",
      "outputs": [
        {
          "name": "",
          "type": "address"
        }
      ],
      "payable": false,
      "stateMutability": "view",
      "type": "function"
    },
    {
      "constant": true,
      "inputs": [],
      "name": "tokenMarketLiquidity",
      "outputs": [
        {
          "name": "",
          "type": "uint256"
        }
      ],
      "payable": false,
      "stateMutability": "view",
      "type": "function"
    },
    {
      "inputs": [
        {
          "name": "token_",
          "type": "address"
        },
        {
          "name": "decimals_",
          "type": "uint256"
        }
      ],
      "payable": false,
      "stateMutability": "nonpayable",
      "type": "constructor"
    },
    {
      "constant": false,
      "inputs": [
        {
          "name": "loans_",
          "type": "address"
        }
      ],
      "name": "setLoans",
      "outputs": [],
      "payable": false,
      "stateMutability": "nonpayable",
      "type": "function"
    },
    {
      "constant": false,
      "inputs": [
        {
          "name": "cToken_",
          "type": "address"
        },
        {
          "name": "comptroller_",
          "type": "address"
        }
      ],
      "name": "setCompound",
      "outputs": [],
      "payable": false,
      "stateMutability": "nonpayable",
      "type": "function"
    },
    {
      "constant": false,
      "inputs": [
        {
          "name": "utilizationInterestDivisor_",
          "type": "uint256"
        }
      ],
      "name": "setUtilizationInterestDivisor",
      "outputs": [],
      "payable": false,
      "stateMutability": "nonpayable",
      "type": "function"
    },
    {
      "constant": false,
      "inputs": [
        {
          "name": "maxUtilizationDelta_",
          "type": "uint256"
        }
      ],
      "name": "setMaxUtilizationDelta",
      "outputs": [],
      "payable": false,
      "stateMutability": "nonpayable",
      "type": "function"
    },
    {
      "constant": false,
      "inputs": [
        {
          "name": "globalInterestRateNumerator_",
          "type": "uint256"
        }
      ],
      "name": "setGlobalInterestRateNumerator",
      "outputs": [],
      "payable": false,
      "stateMutability": "nonpayable",
      "type": "function"
    },
    {
      "constant": false,
      "inputs": [
        {
          "name": "globalInterestRate_",
          "type": "uint256"
        }
      ],
      "name": "setGlobalInterestRate",
      "outputs": [],
      "payable": false,
      "stateMutability": "nonpayable",
      "type": "function"
    },
    {
      "constant": false,
      "inputs": [
        {
          "name": "maxInterestRateNumerator_",
          "type": "uint256"
        }
      ],
      "name": "setMaxInterestRateNumerator",
      "outputs": [],
      "payable": false,
      "stateMutability": "nonpayable",
      "type": "function"
    },
    {
      "constant": false,
      "inputs": [
        {
          "name": "minInterestRateNumerator_",
          "type": "uint256"
        }
      ],
      "name": "setMinInterestRateNumerator",
      "outputs": [],
      "payable": false,
      "stateMutability": "nonpayable",
      "type": "function"
    },
    {
      "constant": false,
      "inputs": [
        {
          "name": "interestUpdateDelay_",
          "type": "uint256"
        }
      ],
      "name": "setInterestUpdateDelay",
      "outputs": [],
      "payable": false,
      "stateMutability": "nonpayable",
      "type": "function"
    },
    {
      "constant": false,
      "inputs": [
        {
          "name": "defaultArbiterFee_",
          "type": "uint256"
        }
      ],
      "name": "setDefaultArbiterFee",
      "outputs": [],
      "payable": false,
      "stateMutability": "nonpayable",
      "type": "function"
    },
    {
      "constant": true,
      "inputs": [
        {
          "name": "fund",
          "type": "bytes32"
        }
      ],
      "name": "lender",
      "outputs": [
        {
          "name": "",
          "type": "address"
        }
      ],
      "payable": false,
      "stateMutability": "view",
      "type": "function"
    },
    {
      "constant": true,
      "inputs": [
        {
          "name": "fund",
          "type": "bytes32"
        }
      ],
      "name": "minLoanAmt",
      "outputs": [
        {
          "name": "",
          "type": "uint256"
        }
      ],
      "payable": false,
      "stateMutability": "view",
      "type": "function"
    },
    {
      "constant": true,
      "inputs": [
        {
          "name": "fund",
          "type": "bytes32"
        }
      ],
      "name": "maxLoanAmt",
      "outputs": [
        {
          "name": "",
          "type": "uint256"
        }
      ],
      "payable": false,
      "stateMutability": "view",
      "type": "function"
    },
    {
      "constant": true,
      "inputs": [
        {
          "name": "fund",
          "type": "bytes32"
        }
      ],
      "name": "minLoanDur",
      "outputs": [
        {
          "name": "",
          "type": "uint256"
        }
      ],
      "payable": false,
      "stateMutability": "view",
      "type": "function"
    },
    {
      "constant": true,
      "inputs": [
        {
          "name": "fund",
          "type": "bytes32"
        }
      ],
      "name": "maxLoanDur",
      "outputs": [
        {
          "name": "",
          "type": "uint256"
        }
      ],
      "payable": false,
      "stateMutability": "view",
      "type": "function"
    },
    {
      "constant": true,
      "inputs": [
        {
          "name": "fund",
          "type": "bytes32"
        }
      ],
      "name": "maxFundDur",
      "outputs": [
        {
          "name": "",
          "type": "uint256"
        }
      ],
      "payable": false,
      "stateMutability": "view",
      "type": "function"
    },
    {
      "constant": true,
      "inputs": [
        {
          "name": "fund",
          "type": "bytes32"
        }
      ],
      "name": "interest",
      "outputs": [
        {
          "name": "",
          "type": "uint256"
        }
      ],
      "payable": false,
      "stateMutability": "view",
      "type": "function"
    },
    {
      "constant": true,
      "inputs": [
        {
          "name": "fund",
          "type": "bytes32"
        }
      ],
      "name": "penalty",
      "outputs": [
        {
          "name": "",
          "type": "uint256"
        }
      ],
      "payable": false,
      "stateMutability": "view",
      "type": "function"
    },
    {
      "constant": true,
      "inputs": [
        {
          "name": "fund",
          "type": "bytes32"
        }
      ],
      "name": "fee",
      "outputs": [
        {
          "name": "",
          "type": "uint256"
        }
      ],
      "payable": false,
      "stateMutability": "view",
      "type": "function"
    },
    {
      "constant": true,
      "inputs": [
        {
          "name": "fund",
          "type": "bytes32"
        }
      ],
      "name": "liquidationRatio",
      "outputs": [
        {
          "name": "",
          "type": "uint256"
        }
      ],
      "payable": false,
      "stateMutability": "view",
      "type": "function"
    },
    {
      "constant": true,
      "inputs": [
        {
          "name": "fund",
          "type": "bytes32"
        }
      ],
      "name": "arbiter",
      "outputs": [
        {
          "name": "",
          "type": "address"
        }
      ],
      "payable": false,
      "stateMutability": "view",
      "type": "function"
    },
    {
      "constant": false,
      "inputs": [
        {
          "name": "fund",
          "type": "bytes32"
        }
      ],
      "name": "balance",
      "outputs": [
        {
          "name": "",
          "type": "uint256"
        }
      ],
      "payable": false,
      "stateMutability": "nonpayable",
      "type": "function"
    },
    {
      "constant": true,
      "inputs": [
        {
          "name": "fund",
          "type": "bytes32"
        }
      ],
      "name": "custom",
      "outputs": [
        {
          "name": "",
          "type": "bool"
        }
      ],
      "payable": false,
      "stateMutability": "view",
      "type": "function"
    },
    {
      "constant": false,
      "inputs": [
        {
          "name": "maxLoanDur_",
          "type": "uint256"
        },
        {
          "name": "maxFundDur_",
          "type": "uint256"
        },
        {
          "name": "arbiter_",
          "type": "address"
        },
        {
          "name": "compoundEnabled_",
          "type": "bool"
        },
        {
          "name": "amount_",
          "type": "uint256"
        }
      ],
      "name": "create",
      "outputs": [
        {
          "name": "fund",
          "type": "bytes32"
        }
      ],
      "payable": false,
      "stateMutability": "nonpayable",
      "type": "function"
    },
    {
      "constant": false,
      "inputs": [
        {
          "name": "minLoanAmt_",
          "type": "uint256"
        },
        {
          "name": "maxLoanAmt_",
          "type": "uint256"
        },
        {
          "name": "minLoanDur_",
          "type": "uint256"
        },
        {
          "name": "maxLoanDur_",
          "type": "uint256"
        },
        {
          "name": "maxFundDur_",
          "type": "uint256"
        },
        {
          "name": "liquidationRatio_",
          "type": "uint256"
        },
        {
          "name": "interest_",
          "type": "uint256"
        },
        {
          "name": "penalty_",
          "type": "uint256"
        },
        {
          "name": "fee_",
          "type": "uint256"
        },
        {
          "name": "arbiter_",
          "type": "address"
        },
        {
          "name": "compoundEnabled_",
          "type": "bool"
        },
        {
          "name": "amount_",
          "type": "uint256"
        }
      ],
      "name": "createCustom",
      "outputs": [
        {
          "name": "fund",
          "type": "bytes32"
        }
      ],
      "payable": false,
      "stateMutability": "nonpayable",
      "type": "function"
    },
    {
      "constant": false,
      "inputs": [
        {
          "name": "fund",
          "type": "bytes32"
        },
        {
          "name": "amount",
          "type": "uint256"
        }
      ],
      "name": "deposit",
      "outputs": [],
      "payable": false,
      "stateMutability": "nonpayable",
      "type": "function"
    },
    {
      "constant": false,
      "inputs": [
        {
          "name": "fund",
          "type": "bytes32"
        },
        {
          "name": "minLoanAmt_",
          "type": "uint256"
        },
        {
          "name": "maxLoanAmt_",
          "type": "uint256"
        },
        {
          "name": "minLoanDur_",
          "type": "uint256"
        },
        {
          "name": "maxLoanDur_",
          "type": "uint256"
        },
        {
          "name": "maxFundDur_",
          "type": "uint256"
        },
        {
          "name": "interest_",
          "type": "uint256"
        },
        {
          "name": "penalty_",
          "type": "uint256"
        },
        {
          "name": "fee_",
          "type": "uint256"
        },
        {
          "name": "liquidationRatio_",
          "type": "uint256"
        },
        {
          "name": "arbiter_",
          "type": "address"
        }
      ],
      "name": "update",
      "outputs": [],
      "payable": false,
      "stateMutability": "nonpayable",
      "type": "function"
    },
    {
      "constant": false,
      "inputs": [
        {
          "name": "fund",
          "type": "bytes32"
        },
        {
          "name": "borrower_",
          "type": "address"
        },
        {
          "name": "amount_",
          "type": "uint256"
        },
        {
          "name": "collateral_",
          "type": "uint256"
        },
        {
          "name": "loanDur_",
          "type": "uint256"
        },
        {
          "name": "secretHashes_",
          "type": "bytes32[8]"
        },
        {
          "name": "pubKeyA_",
          "type": "bytes"
        },
        {
          "name": "pubKeyB_",
          "type": "bytes"
        }
      ],
      "name": "request",
      "outputs": [
        {
          "name": "loanIndex",
          "type": "bytes32"
        }
      ],
      "payable": false,
      "stateMutability": "nonpayable",
      "type": "function"
    },
    {
      "constant": false,
      "inputs": [
        {
          "name": "fund",
          "type": "bytes32"
        },
        {
          "name": "amount",
          "type": "uint256"
        }
      ],
      "name": "withdraw",
      "outputs": [],
      "payable": false,
      "stateMutability": "nonpayable",
      "type": "function"
    },
    {
      "constant": false,
      "inputs": [
        {
          "name": "secretHashes_",
          "type": "bytes32[]"
        }
      ],
      "name": "generate",
      "outputs": [],
      "payable": false,
      "stateMutability": "nonpayable",
      "type": "function"
    },
    {
      "constant": false,
      "inputs": [
        {
          "name": "pubKey",
          "type": "bytes"
        }
      ],
      "name": "setPubKey",
      "outputs": [],
      "payable": false,
      "stateMutability": "nonpayable",
      "type": "function"
    },
    {
      "constant": false,
      "inputs": [
        {
          "name": "fund",
          "type": "bytes32"
        }
      ],
      "name": "enableCompound",
      "outputs": [],
      "payable": false,
      "stateMutability": "nonpayable",
      "type": "function"
    },
    {
      "constant": false,
      "inputs": [
        {
          "name": "fund",
          "type": "bytes32"
        }
      ],
      "name": "disableCompound",
      "outputs": [],
      "payable": false,
      "stateMutability": "nonpayable",
      "type": "function"
    },
    {
      "constant": false,
      "inputs": [
        {
          "name": "amount",
          "type": "uint256"
        }
      ],
      "name": "decreaseTotalBorrow",
      "outputs": [],
      "payable": false,
      "stateMutability": "nonpayable",
      "type": "function"
    },
    {
      "constant": false,
      "inputs": [],
      "name": "calcGlobalInterest",
      "outputs": [],
      "payable": false,
      "stateMutability": "nonpayable",
      "type": "function"
    },
    {
      "constant": true,
      "inputs": [
        {
          "name": "amount",
          "type": "uint256"
        },
        {
          "name": "rate",
          "type": "uint256"
        },
        {
          "name": "loanDur",
          "type": "uint256"
        }
      ],
      "name": "calcInterest",
      "outputs": [
        {
          "name": "",
          "type": "uint256"
        }
      ],
      "payable": false,
      "stateMutability": "pure",
      "type": "function"
    }
  ],
  "bytecode": "0x60806040523480156200001157600080fd5b5060405160408062003b67833981018060405260408110156200003357600080fd5b508051602090910151601a805433600160a060020a03199182161790915560178054909116600160a060020a03841617905560188190556b22079eda249d327c677048096012556a4ed6b7353f71d0a0f402496011819055600e8190556a96d0176d4a7d47fc102c6f6013556a146cdd36157a9553e20f0a601455620151806015556b033b2e3ca31a444ebbf023c460165562000100906b033b2e3c9fd0803ce800000090620000f1906301e133806401000000006200010c810204565b6401000000006200012d810204565b60105550620001449050565b60008082116200011b57600080fd5b8183816200012557fe5b049392505050565b808201828110156200013e57600080fd5b92915050565b613a1380620001546000396000f3fe608060405234801561001057600080fd5b506004361061040b5760003560e060020a90048063712d8e6a11610224578063ccb99d5511610134578063e4933256116100bc578063f61d02d31161008b578063f61d02d314610cd5578063f7837eb714610d44578063fa3bfb1714610d67578063fc0c546a14610d84578063fdd5aab114610d8c5761040b565b8063e493325614610c8b578063e91d14a414610ca8578063eae1c2cf14610cc5578063f05541be14610ccd5761040b565b8063d73b906211610103578063d73b906214610b6d578063d9d0a2d114610bdd578063da2c5c5b14610c0b578063db9b376c14610c13578063e32d291314610c1b5761040b565b8063ccb99d5514610aa5578063ce26d44b14610aad578063d1b8b4bf14610ab5578063d4785d2914610b505761040b565b80639fc3f02f116101b7578063a5fa670611610186578063a5fa670614610955578063a634baf214610972578063a7eafade1461098f578063b2d6107114610a80578063bf12f43d14610a885761040b565b80639fc3f02f146108e2578063a18e4a80146108ff578063a2c70b6b14610930578063a5a709651461094d5761040b565b806389eba421116101f357806389eba421146108595780638c5d526814610876578063994871fa146108935780639d06bcea146108bc5761040b565b8063712d8e6a146107fa57806376a0b166146108175780637e25a221146108345780638285ef40146108515761040b565b8063313ce5671161031f57806354e39f90116102b2578063689c76ef11610281578063689c76ef146106d957806369e527da146106e15780636a29a620146106e95780636a7bb32c146107825780636e1719a6146107c25761040b565b806354e39f90146106955780635b873ffa146106c15780635fe3b567146106c9578063612ef80b146106d15761040b565b806347ca7716116102ee57806347ca7716146106605780634ee9159a146106685780634f9bc9d514610670578063516dbe24146106785761040b565b8063313ce567146105fa57806333549b1b1461060257806342febf0c1461060a57806344b6ba95146106275761040b565b80631873fe50116103a257806321fd933b1161037157806321fd933b1461052c57806326fc759014610552578063277e3f051461056f57806327cdab06146105d55780632eb1ad73146105f25761040b565b80631873fe50146104c75780631bb73697146104e45780631beec294146104ec5780631de26e16146105095761040b565b8063040cf020116103de578063040cf0201461048a57806304e9ef03146104af57806316df840a146104b75780631723cfa5146104bf5761040b565b806301937d0414610410578063031558e514610448578063036012f31461045057806303b69d181461046d575b600080fd5b6104366004803603602081101561042657600080fd5b5035600160a060020a0316610d94565b60408051918252519081900360200190f35b610436610da6565b6104366004803603602081101561046657600080fd5b5035610dac565b6104366004803603602081101561048357600080fd5b5035610dc5565b6104ad600480360360408110156104a057600080fd5b5080359060200135610e1c565b005b61043661118c565b610436611192565b610436611198565b6104ad600480360360208110156104dd57600080fd5b50356111a8565b6104366111dd565b6104ad6004803603602081101561050257600080fd5b50356111e3565b6104ad6004803603604081101561051f57600080fd5b50803590602001356111ff565b6104366004803603602081101561054257600080fd5b5035600160a060020a0316611416565b6104366004803603602081101561056857600080fd5b5035611428565b6104ad600480360361016081101561058657600080fd5b5080359060208101359060408101359060608101359060808101359060a08101359060c08101359060e08101359061010081013590610120810135906101400135600160a060020a031661146a565b610436600480360360208110156105eb57600080fd5b5035611514565b61043661154c565b610436611552565b6104ad611558565b6104366004803603602081101561062057600080fd5b50356116cd565b6106446004803603602081101561063d57600080fd5b5035611705565b60408051600160a060020a039092168252519081900360200190f35b610436611723565b61064461172f565b61043661173f565b6104ad6004803603602081101561068e57600080fd5b5035611745565b610436600480360360408110156106ab57600080fd5b50600160a060020a038135169060200135611761565b61043661178f565b610644611795565b6104366117a4565b6104366117aa565b6106446117b0565b610706600480360360208110156106ff57600080fd5b50356117bf565b60408051600160a060020a039e8f168152602081019d909d528c81019b909b5260608c019990995260808b019790975260a08a019590955260c089019390935260e08801919091526101008701526101208601529094166101408401526101608301939093526101808201929092529051908190036101a00190f35b610436600480360360a081101561079857600080fd5b50803590602081013590600160a060020a0360408201351690606081013515159060800135611833565b6107df600480360360208110156107d857600080fd5b5035611940565b60408051921515835290151560208301528051918290030190f35b6104366004803603602081101561081057600080fd5b503561195e565b6104366004803603602081101561082d57600080fd5b5035611973565b6104ad6004803603602081101561084a57600080fd5b50356119b5565b610436611b94565b6104366004803603602081101561086f57600080fd5b5035611b9a565b6104ad6004803603602081101561088c57600080fd5b5035611c43565b610436600480360360608110156108a957600080fd5b5080359060208101359060400135611c5f565b6104ad600480360360208110156108d257600080fd5b5035600160a060020a0316611c85565b610644600480360360208110156108f857600080fd5b5035611d7c565b61091c6004803603602081101561091557600080fd5b5035611d97565b604080519115158252519081900360200190f35b6104ad6004803603602081101561094657600080fd5b5035611dac565b610436611dc8565b6104ad6004803603602081101561096b57600080fd5b5035611dce565b6104366004803603602081101561098857600080fd5b5035611fd0565b61043660048036036101e08110156109a657600080fd5b813591600160a060020a036020820135169160408201359160608101359160808201359160a08101918101906101c081016101a08201356401000000008111156109ef57600080fd5b820183602082011115610a0157600080fd5b80359060200191846001830284011164010000000083111715610a2357600080fd5b919390929091602081019035640100000000811115610a4157600080fd5b820183602082011115610a5357600080fd5b80359060200191846001830284011164010000000083111715610a7557600080fd5b509092509050612008565b610436612207565b6104ad60048036036020811015610a9e57600080fd5b503561220d565b610436612229565b610436612239565b610adb60048036036020811015610acb57600080fd5b5035600160a060020a031661223f565b6040805160208082528351818301528351919283929083019185019080838360005b83811015610b15578181015183820152602001610afd565b50505050905090810190601f168015610b425780820380516001836020036101000a031916815260200191505b509250505060405180910390f35b6104ad60048036036020811015610b6657600080fd5b50356122da565b6104ad60048036036020811015610b8357600080fd5b810190602081018135640100000000811115610b9e57600080fd5b820183602082011115610bb057600080fd5b80359060200191846020830284011164010000000083111715610bd257600080fd5b5090925090506122f6565b6104ad60048036036040811015610bf357600080fd5b50600160a060020a038135811691602001351661234b565b6104366123d5565b6104366123dd565b6104ad60048036036020811015610c3157600080fd5b810190602081018135640100000000811115610c4c57600080fd5b820183602082011115610c5e57600080fd5b80359060200191846001830284011164010000000083111715610c8057600080fd5b5090925090506123e3565b6104ad60048036036020811015610ca157600080fd5b50356123fd565b61043660048036036020811015610cbe57600080fd5b5035612426565b61043661245e565b610436612464565b6104366004803603610180811015610cec57600080fd5b5080359060208101359060408101359060608101359060808101359060a08101359060c08101359060e08101359061010081013590600160a060020a036101208201351690610140810135151590610160013561246a565b61043660048036036040811015610d5a57600080fd5b5080359060200135612703565b6104ad60048036036020811015610d7d57600080fd5b5035612734565b610644612750565b61043661275f565b60036020526000908152604090205481565b60115481565b600081815260056020819052604090912001545b919050565b60008181526007602052604081205460ff1615610df45750600081815260056020526040902060010154610dc0565b610e15678ac7230489e80000610e0d6012601854612765565b600a0a61277b565b9050610dc0565b610e2582611d7c565b600160a060020a031633600160a060020a031614610e4257600080fd5b80610e4c83611b9a565b1015610e5757600080fd5b600082815260076020526040902054610100900460ff1615611086576019546040805160e060020a6370a082310281523060048201529051600092600160a060020a0316916370a08231916024808301926020929190829003018186803b158015610ec157600080fd5b505afa158015610ed5573d6000803e3d6000fd5b505050506040513d6020811015610eeb57600080fd5b5051601954909150610f0690600160a060020a031683612792565b6019546040805160e060020a6370a082310281523060048201529051600092600160a060020a0316916370a08231916024808301926020929190829003018186803b158015610f5457600080fd5b505afa158015610f68573d6000803e3d6000fd5b505050506040513d6020811015610f7e57600080fd5b505190506000610f8e8383612765565b6000868152600560205260409020600c0154909150610fad9082612765565b6000868152600560205260409020600c0155601754600160a060020a031663a9059cbb610fd987611d7c565b866040518363ffffffff1660e060020a0281526004018083600160a060020a0316600160a060020a0316815260200182815260200192505050602060405180830381600087803b15801561102c57600080fd5b505af1158015611040573d6000803e3d6000fd5b505050506040513d602081101561105657600080fd5b505161106157600080fd5b61106a85611d97565b61107e5761107a600b5482612765565b600b555b505050611173565b6000828152600560205260409020600b01546110a29082612765565b6000838152600560205260409020600b0155601754600160a060020a031663a9059cbb6110ce84611d7c565b836040518363ffffffff1660e060020a0281526004018083600160a060020a0316600160a060020a0316815260200182815260200192505050602060405180830381600087803b15801561112157600080fd5b505af1158015611135573d6000803e3d6000fd5b505050506040513d602081101561114b57600080fd5b505161115657600080fd5b61115f82611d97565b6111735761116f600a5482612765565b600a555b61117c82611d97565b61118857611188611558565b5050565b60165481565b600b5481565b6b04860d8812f0b3887800000081565b601a54600160a060020a031633146111bf57600080fd5b6b033b2e3ca43176a9d2dfd0a58111156111d857600080fd5b601655565b600e5481565b601a54600160a060020a031633146111fa57600080fd5b600e55565b601754604080517f23b872dd000000000000000000000000000000000000000000000000000000008152336004820152306024820152604481018490529051600160a060020a03909216916323b872dd916064808201926020929091908290030181600087803b15801561127257600080fd5b505af1158015611286573d6000803e3d6000fd5b505050506040513d602081101561129c57600080fd5b50516112a757600080fd5b600082815260076020526040902054610100900460ff16156113cf576017546019546112e091600160a060020a03908116911683612987565b600061137b6112f783670de0b6b3a7640000612aa7565b601960009054906101000a9004600160a060020a0316600160a060020a031663bd6d894d6040518163ffffffff1660e060020a028152600401602060405180830381600087803b15801561134a57600080fd5b505af115801561135e573d6000803e3d6000fd5b505050506040513d602081101561137457600080fd5b505161277b565b6000848152600560205260409020600c015490915061139a9082612acb565b6000848152600560205260409020600c01556113b583611d97565b6113c9576113c5600b5482612acb565b600b555b50611173565b6000828152600560205260409020600b01546113eb9082612acb565b6000838152600560205260409020600b015561140682611d97565b6111735761116f600a5482612acb565b60066020526000908152604090205481565b60008181526007602052604081205460ff16156114575750600081815260056020526040902060070154610dc0565b506b033b2e3cacd278c7503e82c1610dc0565b6114738b611d7c565b600160a060020a031633600160a060020a03161461149057600080fd5b60009a8b52600560208190526040909b20600181019a909a5560028a019890985560038901969096556004880194909455968601919091556006850155600784019490945560088301939093556009820192909255600a01805473ffffffffffffffffffffffffffffffffffffffff1916600160a060020a03909216919091179055565b60008181526007602052604081205460ff16156115435750600081815260056020526040902060080154610dc0565b50601654610dc0565b60095481565b60185481565b6115ed600a546115e8600b54601960009054906101000a9004600160a060020a0316600160a060020a031663bd6d894d6040518163ffffffff1660e060020a028152600401602060405180830381600087803b1580156115b757600080fd5b505af11580156115cb573d6000803e3d6000fd5b505050506040513d60208110156115e157600080fd5b5051612adb565b612acb565b600c55601554600954014211156116cb576000611619600d54611614600c54600d54612acb565b612b03565b9050600f5481111561166657600061163382600f54612765565b905061165d601354611658600e546115e861165060115487612b27565b601254612b03565b612b27565b600e55506116a0565b6000611674600f5483612765565b905061169b601454611696600e5461169161165060115487612b27565b612765565b612b40565b600e55505b6116c06b033b2e3c9fd0803ce80000006115e8600e546301e1338061277b565b60105542600955600f555b565b60008181526007602052604081205460ff16156116fc5750600081815260056020526040902060020154610dc0565b50600019610dc0565b6000908152600560205260409020600a0154600160a060020a031690565b678ac7230489e8000081565b600054600160a060020a03165b90565b60125481565b601a54600160a060020a0316331461175c57600080fd5b601555565b6002602052816000526040600020818154811061177a57fe5b90600052602060002001600091509150505481565b60105481565b600054600160a060020a031681565b600c5481565b60145481565b601954600160a060020a031681565b600560208190526000918252604090912080546001820154600283015460038401546004850154958501546006860154600787015460088801546009890154600a8a0154600b8b0154600c909b0154600160a060020a039a8b169c999b989a9799989697959694959394929390911691908d565b33600081815260066020908152604080832054835260059091528120549091600160a060020a039091161415806118745750601a54600160a060020a031633145b61187d57600080fd5b60195460a060020a900460ff1661189957821561189957600080fd5b6118a66008546001612acb565b6008818155600082815260056020818152604080842080543373ffffffffffffffffffffffffffffffffffffffff1991821681178355600483018f90559482018d9055600a9091018054909116600160a060020a038c1617905560078252808420805461ffff19166101008b15150217905593549183526006905291902055905081156119375761193781836111ff565b95945050505050565b60076020526000908152604090205460ff8082169161010090041682565b60009081526005602052604090206004015490565b60008181526007602052604081205460ff16156119a25750600081815260056020526040902060090154610dc0565b506b04860d8812f0b38878000000610dc0565b600081815260076020526040902054610100900460ff166119d557600080fd5b6119de81611d7c565b600160a060020a031633600160a060020a0316146119fb57600080fd5b6017546040805160e060020a6370a082310281523060048201529051600092600160a060020a0316916370a08231916024808301926020929190829003018186803b158015611a4957600080fd5b505afa158015611a5d573d6000803e3d6000fd5b505050506040513d6020811015611a7357600080fd5b50516019546000848152600560205260409020600c0154919250611aa291600160a060020a0390911690612b50565b6017546040805160e060020a6370a082310281523060048201529051600092600160a060020a0316916370a08231916024808301926020929190829003018186803b158015611af057600080fd5b505afa158015611b04573d6000803e3d6000fd5b505050506040513d6020811015611b1a57600080fd5b505190506000611b2a8284612765565b9050611b38600a5482612acb565b600a55600b546000858152600560205260409020600c0154611b5a9190612765565b600b9081556000948552600760209081526040808720805461ff001916905560059091528520600c81019590955593909301929092555050565b600d5481565b600081815260076020526040812054610100900460ff1615611c2b576000828152600560209081526040808320600c015460195482517fbd6d894d0000000000000000000000000000000000000000000000000000000081529251610e15959294600160a060020a039092169363bd6d894d9360048083019493928390030190829087803b1580156115b757600080fd5b506000818152600560205260409020600b0154610dc0565b601a54600160a060020a03163314611c5a57600080fd5b601055565b6000611c7d611c7785611c728686612cc9565b612d23565b85612765565b949350505050565b601a54600160a060020a03163314611c9c57600080fd5b600154600160a060020a031615611cb257600080fd5b6001805473ffffffffffffffffffffffffffffffffffffffff1916600160a060020a03838116918217909255601754604080517f095ea7b3000000000000000000000000000000000000000000000000000000008152600481019390935260001960248401525192169163095ea7b3916044808201926020929091908290030181600087803b158015611d4457600080fd5b505af1158015611d58573d6000803e3d6000fd5b505050506040513d6020811015611d6e57600080fd5b5051611d7957600080fd5b50565b600090815260056020526040902054600160a060020a031690565b60009081526007602052604090205460ff1690565b601a54600160a060020a03163314611dc357600080fd5b601155565b60085481565b60195460a060020a900460ff16611de457600080fd5b600081815260076020526040902054610100900460ff1615611e0557600080fd5b611e0e81611d7c565b600160a060020a031633600160a060020a031614611e2b57600080fd5b6019546040805160e060020a6370a082310281523060048201529051600092600160a060020a0316916370a08231916024808301926020929190829003018186803b158015611e7957600080fd5b505afa158015611e8d573d6000803e3d6000fd5b505050506040513d6020811015611ea357600080fd5b50516017546019546000858152600560205260409020600b0154929350611ed992600160a060020a039283169290911690612987565b6019546040805160e060020a6370a082310281523060048201529051600092600160a060020a0316916370a08231916024808301926020929190829003018186803b158015611f2757600080fd5b505afa158015611f3b573d6000803e3d6000fd5b505050506040513d6020811015611f5157600080fd5b505190506000611f618284612765565b600a546000868152600560205260409020600b0154919250611f8291612765565b600a55600b54611f929082612acb565b600b9081556000948552600760209081526040808720805461ff0019166101001790556005909152852090810194909455600c909301929092555050565b60008181526007602052604081205460ff1615611fff5750600081815260056020526040902060030154610dc0565b50615460610dc0565b60006120138b611d7c565b600160a060020a031633600160a060020a03161461203057600080fd5b6120398b611b9a565b89111561204557600080fd5b61204e8b610dc5565b89101561205a57600080fd5b6120638b6116cd565b89111561206f57600080fd5b6120788b611fd0565b87101561208457600080fd5b600061208f8c61195e565b11156120af5761209e8b61195e565b8711156120aa57600080fd5b6120c6565b6120b88b610dac565b87420111156120c657600080fd5b6120d38b8b8b8b8b612d53565b90506121718b8288600880602002604051908101604052809291908260086020028082843760009201919091525050604080516020601f8c018190048102820181019092528a815291508a908a908190840183828082843760009201919091525050604080516020601f8c018190048102820181019092528a815292508a9150899081908401838280828437600092019190915250612edf92505050565b61217b8b8a6131d5565b600154604080517fbf14c119000000000000000000000000000000000000000000000000000000008152600481018490529051600160a060020a039092169163bf14c1199160248082019260009290919082900301818387803b1580156121e157600080fd5b505af11580156121f5573d6000803e3d6000fd5b505050509a9950505050505050505050565b61546081565b601a54600160a060020a0316331461222457600080fd5b601255565b6b033b2e3cacd278c7503e82c181565b60001981565b60046020908152600091825260409182902080548351601f6002600019610100600186161502019093169290920491820184900484028101840190945280845290918301828280156122d25780601f106122a7576101008083540402835291602001916122d2565b820191906000526020600020905b8154815290600101906020018083116122b557829003601f168201915b505050505081565b601a54600160a060020a031633146122f157600080fd5b601455565b60005b818110156123465733600090815260026020526040902083838381811061231c57fe5b835460018082018655600095865260209586902092909502939093013592019190915550016122f9565b505050565b601a54600160a060020a0316331461236257600080fd5b60195460a060020a900460ff161561237957600080fd5b6019805460008054600160a060020a0394851673ffffffffffffffffffffffffffffffffffffffff199182161790915574ff000000000000000000000000000000000000000019939094169316929092171660a060020a179055565b6301e1338081565b60155481565b336000908152600460205260409020612346908383613931565b600154600160a060020a0316331461241457600080fd5b612420600d5482612765565b600d5550565b60008181526007602052604081205460ff16156124555750600081815260056020526040902060060154610dc0565b50601054610dc0565b60135481565b600f5481565b33600081815260066020908152604080832054835260059091528120549091600160a060020a039091161415806124ab5750601a54600160a060020a031633145b6124b457600080fd5b60195460a060020a900460ff166124d05782156124d057600080fd5b6124dd6008546001612acb565b6008819055506008546001029050336005600083815260200190815260200160002060000160006101000a815481600160a060020a030219169083600160a060020a031602179055508c60056000838152602001908152602001600020600101819055508b60056000838152602001908152602001600020600201819055508a60056000838152602001908152602001600020600301819055508960056000838152602001908152602001600020600401819055508860056000838152602001908152602001600020600501819055508660056000838152602001908152602001600020600601819055508560056000838152602001908152602001600020600701819055508460056000838152602001908152602001600020600801819055508760056000838152602001908152602001600020600901819055508360056000838152602001908152602001600020600a0160006101000a815481600160a060020a030219169083600160a060020a0316021790555060016007600083815260200190815260200160002060000160006101000a81548160ff021916908315150217905550826007600083815260200190815260200160002060000160016101000a81548160ff0219169083151502179055506008546001026006600033600160a060020a0316600160a060020a031681526020019081526020016000208190555060008211156126f3576126f381836111ff565b9c9b505050505050505050505050565b60006305f5e1006127256127178585612aa7565b60026305f5e1005b04612acb565b8161272c57fe5b049392505050565b601a54600160a060020a0316331461274b57600080fd5b601355565b601754600160a060020a031681565b600a5481565b8082038281111561277557600080fd5b92915050565b600080821161278957600080fd5b81838161272c57fe5b816127b38174446c3b15f9926687d2c40534fdb564000000000000816133d1565b6040805160e060020a6370a082310281523060048201529051600091600160a060020a038416916370a0823191602480820192602092909190829003018186803b15801561280057600080fd5b505afa158015612814573d6000803e3d6000fd5b505050506040513d602081101561282a57600080fd5b5051604080517fbd6d894d0000000000000000000000000000000000000000000000000000000081529051919250600091612892918491600160a060020a0387169163bd6d894d91600480830192602092919082900301818987803b1580156115b757600080fd5b90508381111561289f5750825b82600160a060020a031663852a12e3826040518263ffffffff1660e060020a02815260040180828152602001915050602060405180830381600087803b1580156128e857600080fd5b505af11580156128fc573d6000803e3d6000fd5b505050506040513d602081101561291257600080fd5b50511561298057604080517f08c379a000000000000000000000000000000000000000000000000000000000815260206004820152601460248201527f736f6d657468696e672077656e742077726f6e67000000000000000000000000604482015290519081900360640190fd5b5050505050565b6129908261351e565b6040805160e060020a6370a0823102815230600482015290518491600091600160a060020a038416916370a08231916024808301926020929190829003018186803b1580156129de57600080fd5b505afa1580156129f2573d6000803e3d6000fd5b505050506040513d6020811015612a0857600080fd5b5051905082811115612a175750815b83612a238683836133d1565b80600160a060020a031663a0712d68836040518263ffffffff1660e060020a02815260040180828152602001915050602060405180830381600087803b158015612a6c57600080fd5b505af1158015612a80573d6000803e3d6000fd5b505050506040513d6020811015612a9657600080fd5b505115612a9f57fe5b505050505050565b6000811580612ac257505080820282828281612abf57fe5b04145b61277557600080fd5b8082018281101561277557600080fd5b6000670de0b6b3a7640000612725612af38585612aa7565b6002670de0b6b3a764000061271f565b600081612725612b1f856b033b2e3c9fd0803ce8000000612aa7565b60028561271f565b600081831115612b375781612b39565b825b9392505050565b600081831015612b375781612b39565b6040805160e060020a6370a0823102815230600482015290518391600091600160a060020a038416916370a08231916024808301926020929190829003018186803b158015612b9e57600080fd5b505afa158015612bb2573d6000803e3d6000fd5b505050506040513d6020811015612bc857600080fd5b5051905082811115612bd75750815b612be28482866133d1565b81600160a060020a031663db006a75826040518263ffffffff1660e060020a02815260040180828152602001915050602060405180830381600087803b158015612c2b57600080fd5b505af1158015612c3f573d6000803e3d6000fd5b505050506040513d6020811015612c5557600080fd5b505115612cc357604080517f08c379a000000000000000000000000000000000000000000000000000000000815260206004820152601460248201527f736f6d657468696e672077656e742077726f6e67000000000000000000000000604482015290519081900360640190fd5b50505050565b600060028206612ce5576b033b2e3c9fd0803ce8000000612ce7565b825b90506002820491505b811561277557612d008384612d23565b92506002820615612d1857612d158184612d23565b90505b600282049150612cf0565b60006b033b2e3c9fd0803ce8000000612725612d3f8585612aa7565b60026b033b2e3c9fd0803ce800000061271f565b6001546040805160608101909152600160a060020a03868116825260009216906325a55e7a904285019060208101612d8a8b611d7c565b600160a060020a03908116825260008c815260056020908152604091829020600a015490921692820192909252815160c081019092528982528101612dd88a612dd28e612426565b8a611c5f565b8152602001612dea8a612dd28e611428565b8152602001612dfc8a612dd28e611514565b8152602001888152602001612e108c611973565b905260405160e060020a63ffffffff8616028152600481018481528c9160240184606080838360005b83811015612e51578181015183820152602001612e39565b5050505090500183600660200280838360005b83811015612e7c578181015183820152602001612e64565b50505050905001828152602001945050505050602060405180830381600087803b158015612ea957600080fd5b505af1158015612ebd573d6000803e3d6000fd5b505050506040513d6020811015612ed357600080fd5b50519695505050505050565b600154604080516080808201835286518252602080880151818401528784015183850152606080890151908401528351808301855291880151825260a088015190820152600160a060020a039093169263ee79b12b928892919081018860066020020151815260200188600760088110612f5557fe5b60200201519052612f6d612f688b611705565b6137d7565b878760046000612f7c8f611705565b600160a060020a0316600160a060020a031681526020019081526020016000206040518863ffffffff1660e060020a0281526004018088815260200187600460200280838360005b83811015612fdc578181015183820152602001612fc4565b5050505090500186600460200280838360005b83811015613007578181015183820152602001612fef565b5050505090500185600460200280838360005b8381101561303257818101518382015260200161301a565b50505050905001806020018060200180602001848103845287818151815260200191508051906020019080838360005b8381101561307a578181015183820152602001613062565b50505050905090810190601f1680156130a75780820380516001836020036101000a031916815260200191505b50848103835286518152865160209182019188019080838360005b838110156130da5781810151838201526020016130c2565b50505050905090810190601f1680156131075780820380516001836020036101000a031916815260200191505b5084810382528554600260001961010060018416150201909116048082526020909101908690801561317a5780601f1061314f5761010080835404028352916020019161317a565b820191906000526020600020905b81548152906001019060200180831161315d57829003601f168201915b50509a5050505050505050505050602060405180830381600087803b1580156131a257600080fd5b505af11580156131b6573d6000803e3d6000fd5b505050506040513d60208110156131cc57600080fd5b50505050505050565b600082815260076020526040902054610100900460ff1615613362576019546040805160e060020a6370a082310281523060048201529051600092600160a060020a0316916370a08231916024808301926020929190829003018186803b15801561323f57600080fd5b505afa158015613253573d6000803e3d6000fd5b505050506040513d602081101561326957600080fd5b505160195490915061328490600160a060020a031683612792565b6019546040805160e060020a6370a082310281523060048201529051600092600160a060020a0316916370a08231916024808301926020929190829003018186803b1580156132d257600080fd5b505afa1580156132e6573d6000803e3d6000fd5b505050506040513d60208110156132fc57600080fd5b50519050600061330c8383612765565b6000868152600560205260409020600c015490915061332b9082612765565b6000868152600560205260409020600c015561334685611d97565b61335a57613356600b5482612765565b600b555b5050506133ad565b6000828152600560205260409020600b015461337e9082612765565b6000838152600560205260409020600b015561339982611d97565b6133ad576133a9600a5482612765565b600a555b6133b682611d97565b611188576133c6600d5482612acb565b600d55611188611558565b604080517fdd62ed3e000000000000000000000000000000000000000000000000000000008152306004820152600160a060020a038381166024830152915185926000929084169163dd62ed3e91604480820192602092909190829003018186803b15801561343f57600080fd5b505afa158015613453573d6000803e3d6000fd5b505050506040513d602081101561346957600080fd5b505190508084111561298057604080517f095ea7b3000000000000000000000000000000000000000000000000000000008152600160a060020a0385811660048301527f8000000000000000000000000000000000000000000000000000000000000000602483015291519184169163095ea7b39160448082019260009290919082900301818387803b1580156134ff57600080fd5b505af1158015613513573d6000803e3d6000fd5b505050505050505050565b600061352861172f565b604080517fabfceffc0000000000000000000000000000000000000000000000000000000081523060048201529051919250606091600160a060020a0384169163abfceffc916024808301926000929190829003018186803b15801561358d57600080fd5b505afa1580156135a1573d6000803e3d6000fd5b505050506040513d6000823e601f3d908101601f1916820160405260208110156135ca57600080fd5b8101908080516401000000008111156135e257600080fd5b820160208101848111156135f557600080fd5b815185602082028301116401000000008211171561361257600080fd5b509094506000935083925050505b82518110156136635784600160a060020a031683828151811061363f57fe5b6020026020010151600160a060020a0316141561365b57600191505b600101613620565b5080612cc35760408051600180825281830190925260609160208083019080388339019050509050848160008151811061369957fe5b600160a060020a039283166020918202929092018101919091526040517fc2998238000000000000000000000000000000000000000000000000000000008152600481018281528451602483015284519388169363c29982389386938392604490910191858101910280838360005b83811015613720578181015183820152602001613708565b5050505090500192505050600060405180830381600087803b15801561374557600080fd5b505af1158015613759573d6000803e3d6000fd5b505050506040513d6000823e601f3d908101601f19168201604052602081101561378257600080fd5b81019080805164010000000081111561379a57600080fd5b820160208101848111156137ad57600080fd5b81518560208202830111640100000000821117156137ca57600080fd5b5050505050505050505050565b6137df6139af565b600160a060020a038216600090815260036020526040902054613803906004612acb565b600160a060020a038316600090815260036020818152604080842085905580516080810182526002835293209190529091829190613842906004612765565b8154811061384c57fe5b60009182526020808320909101548352600160a060020a038616825260028152604080832060038084529190932054939091019261388991612765565b8154811061389357fe5b60009182526020808320909101548352600160a060020a0386168252600280825260408084206003845293205493909101926138ce91612765565b815481106138d857fe5b60009182526020808320909101548352600160a060020a038616825260028152604080832060038352922054920191613912906001612765565b8154811061391c57fe5b90600052602060002001548152509050919050565b828054600181600116156101000203166002900490600052602060002090601f016020900481019282601f106139725782800160ff1982351617855561399f565b8280016001018555821561399f579182015b8281111561399f578235825591602001919060010190613984565b506139ab9291506139cd565b5090565b60405180608001604052806004906020820280388339509192915050565b61173c91905b808211156139ab57600081556001016139d356fea165627a7a723058209ff5f3dbed0bfb94d75e90648eea398cb1183a37f6aa9a73cf3070891077da510029",
  "source": "import 'openzeppelin-solidity/contracts/token/ERC20/ERC20.sol';\nimport 'openzeppelin-solidity/contracts/math/SafeMath.sol';\n\nimport './Loans.sol';\nimport './ALCompound.sol';\n\npragma solidity ^0.5.8;\n\ncontract Funds is DSMath, ALCompound {\n    Loans loans;\n\n    uint256 public constant DEFAULT_LIQUIDATION_RATIO = 1400000000000000000000000000;  // 140% (1.4x in RAY) minimum collateralization ratio\n    uint256 public constant DEFAULT_LIQUIDATION_PENALTY = 1000000000937303470807876289; // 3% (3 in RAY) liquidation penalty\n    uint256 public constant DEFAULT_MIN_LOAN_AMT = 10000000000000000000; // Min 10 WAD\n    uint256 public constant DEFAULT_MAX_LOAN_AMT = 2**256-1; // Max 2**256\n    uint256 public constant DEFAULT_MIN_LOAN_DUR = 21600; // 6 hours\n    uint256 public constant NUM_SECONDS_IN_YEAR = 31536000;\n\n    mapping (address => bytes32[]) public secretHashes;    // User secret hashes\n    mapping (address => uint256)   public secretHashIndex; // User secret hash index\n\n    mapping (address => bytes)     public pubKeys;  // User A Coin PubKeys\n    \n    mapping (bytes32 => Fund)      public funds;\n    mapping (address => bytes32)   public fundOwner;\n    mapping (bytes32 => Bools)     public bools;\n    uint256                        public fundIndex;\n\n    uint256 public lastGlobalInterestUpdated;\n    uint256 public tokenMarketLiquidity;\n    uint256 public cTokenMarketLiquidity;\n    uint256 public marketLiquidity;\n    uint256 public totalBorrow;\n    uint256 public globalInterestRateNumerator;\n    uint256 public lastUtilizationRatio;\n    uint256 public globalInterestRate;\n    uint256 public maxUtilizationDelta;\n    uint256 public utilizationInterestDivisor;\n    uint256 public maxInterestRateNumerator;\n    uint256 public minInterestRateNumerator;\n    uint256 public interestUpdateDelay;\n    uint256 public defaultArbiterFee;\n\n    ERC20 public token;\n    uint256 public decimals;\n    CTokenInterface public cToken;\n    bool compoundSet;\n\n    address deployer;\n\n    /**\n     * @notice Container for Loan Fund information\n     * @member lender Loan Fund Owner\n     * @member minLoanAmt Minimum Loan Amount that can be requested by a 'borrower'\n     * @member maxLoanAmt Maximum Loan Amount that can be requested by a 'borrower'\n     * @member minLoanDur Minimum Loan Duration that can be requested by a 'borrower'\n     * @member maxLoanDur Maximum Loan Duration that can be requested by a 'borrower'\n     * @member interest Interest Rate of Loan Fund in RAY per second\n     * @member penalty Liquidation Penalty Rate of Loan Fund in RAY per second\n     * @member fee Optional Automation Fee Rate of Loan Fund in RAY per second\n     * @member liquidationRatio Liquidation Ratio of Loan Fund in RAY\n     * @member arbiter Optional address of Automator Arbiter\n     * @member balance Amount of non-borrowed tokens in Loan Fund\n     * @member cBalance Amount of non-borrowed cTokens in Loan Fund\n     * @member custom Indicator that this Loan Fund is custom and does not use global settings\n     * @member compoundEnabled Indicator that this Loan Fund lends non-borrowed tokens on Compound\n     */\n    struct Fund {\n        address  lender;\n        uint256  minLoanAmt;\n        uint256  maxLoanAmt;\n        uint256  minLoanDur;\n        uint256  maxLoanDur;\n        uint256  maxFundDur;\n        uint256  interest;\n        uint256  penalty;\n        uint256  fee;\n        uint256  liquidationRatio;\n        address  arbiter;\n        uint256  balance;\n        uint256  cBalance;\n    }\n\n    struct Bools {\n        bool     custom;\n        bool     compoundEnabled;\n    }\n\n    constructor(\n        ERC20   token_,\n        uint256 decimals_\n    ) public {\n        deployer = msg.sender;\n        token = token_;\n        decimals = decimals_;\n        utilizationInterestDivisor = 10531702972595856680093239305; // 10.53 in RAY (~10:1 ratio for % change in utilization ratio to % change in interest rate)\n        maxUtilizationDelta = 95310179948351216961192521; // Global Interest Rate Numerator can change up to 9.53% in RAY (~10% change in utilization ratio = ~1% change in interest rate)\n        globalInterestRateNumerator =  95310179948351216961192521; // ~10%  ( (e^(ln(1.100)/(60*60*24*365)) - 1) * (60*60*24*365) )\n        maxInterestRateNumerator    = 182321557320989604265864303; // ~20%  ( (e^(ln(1.200)/(60*60*24*365)) - 1) * (60*60*24*365) )\n        minInterestRateNumerator    =  24692612600038629323181834; // ~2.5% ( (e^(ln(1.025)/(60*60*24*365)) - 1) * (60*60*24*365) )\n        interestUpdateDelay = 86400; // 1 DAY\n        defaultArbiterFee = 1000000000236936036262880196; // 0.75% (0.75 in RAY) optional arbiter fee\n        globalInterestRate = add(RAY, div(globalInterestRateNumerator, NUM_SECONDS_IN_YEAR)); // Interest rate per second\n\n        // utilizationInterestDivisor calculation (this is aiming for utilizationInterestDivisor to allow max change from 10% APR to be 11% APR despite using compound interest)\n        // 1 + (globalInterestRateNumerator + (maxUtilizationDelta * RAY) / utilizationInterestDivisor) / NUM_SECONDS_IN_YEAR = 11% interest per second\n        // utilizationInterestDivisor = (maxUtilizationDelta * RAY) / ( (11% interest per second - 1)(NUM_SECONDS_IN_YEAR) - globalInterestRateNumerator )\n        // utilizationInterestDivisor = ((e^(ln(1.100)/(60*60*24*365)) - 1) * (60*60*24*365) * (10^27)) / ( (( e^(ln(1.110)/(60*60*24*365)) -1 ) * ( 60*60*24*365 )) - ((e^(ln(1.100)/(60*60*24*365)) - 1) * (60*60*24*365)))\n    }\n\n    /**\n     * @dev Sets Loans contract\n     * @param loans_ Address of Loans contract\n     */\n    function setLoans(Loans loans_) public {\n        require(msg.sender == deployer);\n        require(address(loans) == address(0));\n        loans = loans_;\n        require(token.approve(address(loans_), 2**256-1));\n    }\n\n    /**\n     * @dev Enables assets in loan fund that haven't been borrowed to be lent on Compound\n     * @param cToken_ The address of the Compound Token\n     * @param comptroller_ The address of the Compound Comptroller\n     */\n    function setCompound(CTokenInterface cToken_, address comptroller_) public {\n        require(msg.sender == deployer);\n        require(!compoundSet);\n        cToken = cToken_;\n        comptroller = comptroller_;\n        compoundSet = true;\n    }\n\n    // NOTE: THE FOLLOWING FUNCTIONS ALLOW VARIABLES TO BE MODIFIED BY THE \n    //       DEPLOYER, SINCE THE ALGORITHM FOR CALCULATING GLOBAL INTEREST \n    //       RATE IS UNTESTED WITH A DECENTRALIZED PROTOCOL, AND MAY NEED TO\n    //       BE UPDATED IN THE CASE THAT RATES DO NOT UPDATE AS INTENDED. A \n    //       FUTURE ITERATION OF THE PROTOCOL WILL REMOVE THESE FUNCTIONS. IF \n    //       YOU WISH TO OPT OUT OF GLOBAL APR YOU CAN CREATE A CUSTOM LOAN FUND\n    // ======================================================================\n\n    /**\n     * @dev Sets the Utilization Interest Divisor\n     */\n    function setUtilizationInterestDivisor(uint256 utilizationInterestDivisor_) external {\n        require(msg.sender == deployer);\n        utilizationInterestDivisor = utilizationInterestDivisor_;\n    }\n\n    /**\n     * @dev Sets the Max Utilization Delta\n     */\n    function setMaxUtilizationDelta(uint256 maxUtilizationDelta_) external {\n        require(msg.sender == deployer);\n        maxUtilizationDelta = maxUtilizationDelta_;\n    }\n\n    /**\n     * @dev Sets the Global Interest Rate Numerator\n     */\n    function setGlobalInterestRateNumerator(uint256 globalInterestRateNumerator_) external {\n        require(msg.sender == deployer);\n        globalInterestRateNumerator = globalInterestRateNumerator_;\n    }\n\n    /**\n     * @dev Sets the Global Interest Rate\n     */\n    function setGlobalInterestRate(uint256 globalInterestRate_) external {\n        require(msg.sender == deployer);\n        globalInterestRate = globalInterestRate_;\n    }\n\n    /**\n     * @dev Sets the Maximum Interest Rate Numerator\n     */\n    function setMaxInterestRateNumerator(uint256 maxInterestRateNumerator_) external {\n        require(msg.sender == deployer);\n        maxInterestRateNumerator = maxInterestRateNumerator_;\n    }\n\n    /**\n     * @dev Sets the Minimum Interest Rate Numerator\n     */\n    function setMinInterestRateNumerator(uint256 minInterestRateNumerator_) external {\n        require(msg.sender == deployer);\n        minInterestRateNumerator = minInterestRateNumerator_;\n    }\n\n    /**\n     * @dev Sets the Interest Update Delay\n     */\n    function setInterestUpdateDelay(uint256 interestUpdateDelay_) external {\n        require(msg.sender == deployer);\n        interestUpdateDelay = interestUpdateDelay_;\n    }\n\n    /**\n     * @dev Sets the Default Arbiter Fee\n     */\n    function setDefaultArbiterFee(uint256 defaultArbiterFee_) external {\n        require(msg.sender == deployer);\n        require(defaultArbiterFee_ <= 1000000000315522921573372069); // ~1%\n        defaultArbiterFee = defaultArbiterFee_;\n    }\n    // ======================================================================\n\n    /**\n     * @notice Get the lender of a Loan Fund\n     * @param fund The Id of a Loan Fund\n     * @return Owner address of Loan Fund\n     */\n    function lender(bytes32 fund) public view returns (address) {\n        return funds[fund].lender;\n    }\n\n    /**\n     * @notice Get minimum loan amount able to be requested by a 'borrower'\n     * @param fund The Id of a Loan Fund\n     * @return The minimum amount of tokens that can be requested from a Loan Fund\n     */\n    function minLoanAmt(bytes32 fund) public view returns (uint256) {\n        if (bools[fund].custom) { return funds[fund].minLoanAmt; }\n        else                    { return div(DEFAULT_MIN_LOAN_AMT, (10 ** sub(18, decimals))); }\n    }\n\n    /**\n     * @notice Get maximum loan amount able to be requested by a 'borrower'\n     * @param fund The Id of a Loan Fund\n     * @return The maximum amount of tokens that can be requested from a Loan Fund\n     */\n    function maxLoanAmt(bytes32 fund) public view returns (uint256) {\n        if (bools[fund].custom) { return funds[fund].maxLoanAmt; }\n        else                    { return DEFAULT_MAX_LOAN_AMT; }\n    }\n\n    /**\n     * @notice Get minimum loan duration able to be requested by a 'borrower'\n     * @param fund The Id of a Loan Fund\n     * @return The minimum duration loan that can be requested from a Loan Fund\n     */\n    function minLoanDur(bytes32 fund) public view returns (uint256) {\n        if (bools[fund].custom) { return funds[fund].minLoanDur; }\n        else                    { return DEFAULT_MIN_LOAN_DUR; }\n    }\n\n    /**\n     * @notice Get maximum loan duration able to be requested by a 'borrower'\n     * @param fund The Id of a Loan Fund\n     * @return The maximum duration loan that can be requested from a Loan Fund\n     */\n    function maxLoanDur(bytes32 fund) public view returns (uint256) {\n        return funds[fund].maxLoanDur;\n    }\n\n    /**\n     * @notice Get maximum loan duration able to be requested by a 'borrower'\n     * @param fund The Id of a Loan Fund\n     * @return The maximum duration loan that can be requested from a Loan Fund\n     */\n    function maxFundDur(bytes32 fund) public view returns (uint256) {\n        return funds[fund].maxFundDur;\n    }\n\n    /**\n     * @notice Get the interest rate for a Loan Fund\n     * @param fund The Id of a Loan Fund\n     * @return The interest rate per second for a Loan Fund in RAY per second\n     */\n    function interest(bytes32 fund) public view returns (uint256) {\n        if (bools[fund].custom) { return funds[fund].interest; }\n        else                    { return globalInterestRate; }\n    }\n\n    /**\n     * @notice Get the liquidation penalty rate for a Loan Fund\n     * @param fund The Id of a Loan Fund\n     * @return The liquidation penalty rate per second for a Loan Fund in RAY per second\n     */\n    function penalty(bytes32 fund) public view returns (uint256) {\n        if (bools[fund].custom) { return funds[fund].penalty; }\n        else                    { return DEFAULT_LIQUIDATION_PENALTY; }\n    }\n\n    /**\n     * @notice Get the optional automation fee for a Loan Fund\n     * @param fund The Id of a Loan Fund\n     * @return The optional automation fee rate of Loan Fund in RAY per second\n     */\n    function fee(bytes32 fund) public view returns (uint256) {\n        if (bools[fund].custom) { return funds[fund].fee; }\n        else                    { return defaultArbiterFee; }\n    }\n\n    /**\n     * @notice Get the liquidation ratio of a Loan Fund\n     * @param fund The Id of a Loan Fund\n     * @return The liquidation ratio of Loan Fund in RAY\n     */\n    function liquidationRatio(bytes32 fund) public view returns (uint256) {\n        if (bools[fund].custom) { return funds[fund].liquidationRatio; }\n        else                    { return DEFAULT_LIQUIDATION_RATIO; }\n    }\n\n    /**\n     * @notice Get the arbiter for a Loan Fund\n     * @param fund The Id of a Loan Fund\n     * @return The address of the arbiter for a Loan fund\n     */\n    function arbiter(bytes32 fund)   public view returns (address) {\n        return funds[fund].arbiter;\n    }\n\n    /**\n     * @notice Get the current balance of a Loan Fund in tokens\n     * @param fund The Id of a Loan Fund\n     * @return The amount of tokens remaining in Loan Fund\n     */\n    function balance(bytes32 fund) public returns (uint256) {\n        if (bools[fund].compoundEnabled) {\n            return wmul(funds[fund].cBalance, cToken.exchangeRateCurrent());\n        } else {\n            return funds[fund].balance;\n        }\n    }\n\n    /**\n     * @notice Get the custom indicator for a Loan Fund\n     * @param fund The Id of a Loan Fund\n     * @return The indicator of whether a Loan Fund is custom or not\n     */\n    function custom(bytes32 fund) public view returns (bool) {\n        return bools[fund].custom;\n    }\n\n    /**\n     * @notice Lenders create Loan Fund using Global Protocol parameters and deposit assets\n     * @param maxLoanDur_ Max Loan Duration of Loan Fund in seconds\n     * @param arbiter_  Optional address of arbiter\n     * @param compoundEnabled_ Indicator whether excess funds should be lent on Compound\n     * @param amount_ Amount of tokens to be deposited on creation\n     * @return The Id of a Loan Fund\n     *\n     *         Note: Only one loan fund is allowed per ethereum address.\n     *               Exception is made for the deployer for testing.\n     */\n    function create(\n        uint256  maxLoanDur_,\n        uint256  maxFundDur_,\n        address  arbiter_,\n        bool     compoundEnabled_,\n        uint256  amount_\n    ) external returns (bytes32 fund) { \n        require(funds[fundOwner[msg.sender]].lender != msg.sender || msg.sender == deployer); // Only allow one loan fund per address\n        if (!compoundSet) { require(compoundEnabled_ == false); }\n        fundIndex = add(fundIndex, 1);\n        fund = bytes32(fundIndex);\n        funds[fund].lender           = msg.sender;\n        funds[fund].maxLoanDur       = maxLoanDur_;\n        funds[fund].maxFundDur       = maxFundDur_;\n        funds[fund].arbiter          = arbiter_;\n        bools[fund].custom           = false;\n        bools[fund].compoundEnabled  = compoundEnabled_;\n        fundOwner[msg.sender]        = bytes32(fundIndex);\n        if (amount_ > 0) { deposit(fund, amount_); }\n    }\n\n    /**\n     * @notice Lenders create Loan Fund using Custom parameters and deposit assets\n     * @param minLoanAmt_ Minimum amount of tokens that can be borrowed from Loan Fund\n     * @param maxLoanAmt_ Maximum amount of tokens that can be borrowed from Loan Fund\n     * @param minLoanDur_ Minimum length of loan that can be requested from Loan Fund in seconds\n     * @param maxLoanDur_ Maximum length of loan that can be requested from Loan Fund in seconds\n     * @param arbiter_  Optional address of arbiter\n     * @param compoundEnabled_ Indicator whether excess funds should be lent on Compound\n     * @param amount_ Amount of tokens to be deposited on creation\n     * @return The Id of a Loan Fund\n     *\n     *         Note: Only one loan fund is allowed per ethereum address.\n     *               Exception is made for the deployer for testing.\n     */\n    function createCustom(\n        uint256  minLoanAmt_,\n        uint256  maxLoanAmt_,\n        uint256  minLoanDur_,\n        uint256  maxLoanDur_,\n        uint256  maxFundDur_,\n        uint256  liquidationRatio_,\n        uint256  interest_,\n        uint256  penalty_,\n        uint256  fee_,\n        address  arbiter_,\n        bool     compoundEnabled_,\n        uint256  amount_\n    ) external returns (bytes32 fund) {\n        require(funds[fundOwner[msg.sender]].lender != msg.sender || msg.sender == deployer); // Only allow one loan fund per address\n        if (!compoundSet) { require(compoundEnabled_ == false); }\n        fundIndex = add(fundIndex, 1);\n        fund = bytes32(fundIndex);\n        funds[fund].lender           = msg.sender;\n        funds[fund].minLoanAmt       = minLoanAmt_;\n        funds[fund].maxLoanAmt       = maxLoanAmt_;\n        funds[fund].minLoanDur       = minLoanDur_;\n        funds[fund].maxLoanDur       = maxLoanDur_;\n        funds[fund].maxFundDur       = maxFundDur_;\n        funds[fund].interest         = interest_;\n        funds[fund].penalty          = penalty_;\n        funds[fund].fee              = fee_;\n        funds[fund].liquidationRatio = liquidationRatio_;\n        funds[fund].arbiter          = arbiter_;\n        bools[fund].custom           = true;\n        bools[fund].compoundEnabled  = compoundEnabled_;\n        fundOwner[msg.sender]        = bytes32(fundIndex);\n        if (amount_ > 0) { deposit(fund, amount_); }\n    }\n\n    /**\n     * @notice Lenders deposit tokens in Loan Fund\n     * @param fund The Id of a Loan Fund\n     * @param amount Amount of tokens to deposit\n     *\n     *        Note: Anyone can deposit tokens into a Loan Fund\n     */\n    function deposit(bytes32 fund, uint256 amount) public {\n        require(token.transferFrom(msg.sender, address(this), amount));\n        if (bools[fund].compoundEnabled) {\n            mintCToken(address(token), address(cToken), amount);\n            uint256 cTokenToAdd = div(mul(amount, WAD), cToken.exchangeRateCurrent());\n            funds[fund].cBalance = add(funds[fund].cBalance, cTokenToAdd);\n            if (!custom(fund)) { cTokenMarketLiquidity = add(cTokenMarketLiquidity, cTokenToAdd); }\n        } else {\n            funds[fund].balance = add(funds[fund].balance, amount);\n            if (!custom(fund)) { tokenMarketLiquidity = add(tokenMarketLiquidity, amount); }\n        }\n        if (!custom(fund)) { calcGlobalInterest(); }\n    }\n\n    /**\n     * @notice Users update Loan Fund settings\n     * @param fund The Id of a Loan Fund\n     * @param minLoanAmt_ Minimum amount of tokens that can be borrowed from Loan Fund\n     * @param maxLoanAmt_ Maximum amount of tokens that can be borrowed from Loan Fund\n     * @param minLoanDur_ Minimum length of loan that can be requested from Loan Fund in seconds\n     * @param maxLoanDur_ Maximum length of loan that can be requested from Loan Fund in seconds\n     * @param interest_ The interest rate per second for a Loan Fund in RAY per second\n     * @param penalty_ The liquidation penalty rate per second for a Loan Fund in RAY per second\n     * @param fee_ The optional automation fee rate of Loan Fund in RAY per second\n     * @param liquidationRatio_ The liquidation ratio of Loan Fund in RAY\n     * @param arbiter_ The address of the arbiter for a Loan fund\n     *\n     *        Note: msg.sender must be the lender of the Loan Fund\n     */\n    function update(\n        bytes32  fund,\n        uint256  minLoanAmt_,\n        uint256  maxLoanAmt_,\n        uint256  minLoanDur_,\n        uint256  maxLoanDur_,\n        uint256  maxFundDur_,\n        uint256  interest_,\n        uint256  penalty_,\n        uint256  fee_,\n        uint256  liquidationRatio_,\n        address  arbiter_\n    ) external {\n        require(msg.sender == lender(fund));\n        funds[fund].minLoanAmt       = minLoanAmt_;\n        funds[fund].maxLoanAmt       = maxLoanAmt_;\n        funds[fund].minLoanDur       = minLoanDur_;\n        funds[fund].maxLoanDur       = maxLoanDur_;\n        funds[fund].maxFundDur       = maxFundDur_;\n        funds[fund].interest         = interest_;\n        funds[fund].penalty          = penalty_;\n        funds[fund].fee              = fee_;\n        funds[fund].liquidationRatio = liquidationRatio_;\n        funds[fund].arbiter          = arbiter_;\n    }\n\n    /**\n     * @notice Lenders request loan from Loan Fund on behalf of Borrower\n     * @param fund The Id of a Loan Fund\n     * @param amount_ Amount of tokens to request\n     * @param collateral_ Amount of collateral to deposit in satoshis\n     * @param loanDur_ Length of loan request in seconds\n     * @param secretHashes_ 4 Borrower Secret Hashes and 4 Lender Secret Hashes\n     * @param pubKeyA_ Borrower Bitcoin public key to use for refunding collateral\n     * @param pubKeyB_ Lender Bitcoin public key to use for refunding collateral\n     *\n     *        Note: Borrower client should verify params after Ethereum tx\n     *              confirmation before locking Bitcoin.\n     *\n     */\n    function request(\n        bytes32             fund,\n        address             borrower_,\n        uint256             amount_,\n        uint256             collateral_,\n        uint256             loanDur_,\n        bytes32[8] calldata secretHashes_,\n        bytes      calldata pubKeyA_,\n        bytes      calldata pubKeyB_\n    ) external returns (bytes32 loanIndex) {\n        require(msg.sender == lender(fund));\n        require(amount_    <= balance(fund));\n        require(amount_    >= minLoanAmt(fund));\n        require(amount_    <= maxLoanAmt(fund));\n        require(loanDur_   >= minLoanDur(fund));\n\n        if (maxLoanDur(fund) > 0) {\n            require(loanDur_       <= maxLoanDur(fund));\n        } else {\n            require(now + loanDur_ <= maxFundDur(fund));\n        }\n\n        loanIndex = createLoan(fund, borrower_, amount_, collateral_, loanDur_);\n        loanSetSecretHashes(fund, loanIndex, secretHashes_, pubKeyA_, pubKeyB_);\n        loanUpdateMarketLiquidity(fund, amount_);\n        loans.fund(loanIndex);\n    }\n\n    /**\n     * @notice Lenders withdraw tokens in Loan Fund\n     * @param fund The Id of a Loan Fund\n     * @param amount Amount of tokens to withdraw\n     */\n    function withdraw(bytes32 fund, uint256 amount) external {\n        require(msg.sender     == lender(fund));\n        require(balance(fund)  >= amount);\n        if (bools[fund].compoundEnabled) {\n            uint256 cBalanceBefore = cToken.balanceOf(address(this));\n            redeemUnderlying(address(cToken), amount);\n            uint256 cBalanceAfter = cToken.balanceOf(address(this));\n            uint256 cTokenToRemove = sub(cBalanceBefore, cBalanceAfter);\n            funds[fund].cBalance = sub(funds[fund].cBalance, cTokenToRemove);\n            require(token.transfer(lender(fund), amount));\n            if (!custom(fund)) { cTokenMarketLiquidity = sub(cTokenMarketLiquidity, cTokenToRemove); }\n        } else {\n            funds[fund].balance = sub(funds[fund].balance, amount);\n            require(token.transfer(lender(fund), amount));\n            if (!custom(fund)) { tokenMarketLiquidity = sub(tokenMarketLiquidity, amount); }\n        }\n        if (!custom(fund)) { calcGlobalInterest(); }\n    }\n\n    /**\n     * @notice Submit secretHashes to be used with future loans\n     * @param secretHashes_ List of secretHashes\n     */\n    function generate(bytes32[] calldata secretHashes_) external {\n        for (uint i = 0; i < secretHashes_.length; i++) {\n            secretHashes[msg.sender].push(secretHashes_[i]);\n        }\n    }\n\n    /**\n     * @notice Set Lender or Arbiter Bitcoin Public Key\n     * @param pubKey Bitcoin Public Key\n     */\n    function setPubKey(bytes calldata pubKey) external { // Set PubKey for Fund\n        pubKeys[msg.sender] = pubKey;\n    }\n\n    /**\n     * @notice Enable Compound for Loan Fund\n     * @param fund The Id of a Loan Fund\n     */\n    function enableCompound(bytes32 fund) external {\n        require(compoundSet);\n        require(bools[fund].compoundEnabled == false);\n        require(msg.sender == lender(fund));\n        uint256 cBalanceBefore = cToken.balanceOf(address(this));\n        mintCToken(address(token), address(cToken), funds[fund].balance);\n        uint256 cBalanceAfter = cToken.balanceOf(address(this));\n        uint256 cTokenToReturn = sub(cBalanceAfter, cBalanceBefore);\n        tokenMarketLiquidity = sub(tokenMarketLiquidity, funds[fund].balance);\n        cTokenMarketLiquidity = add(cTokenMarketLiquidity, cTokenToReturn);\n        bools[fund].compoundEnabled = true;\n        funds[fund].balance = 0;\n        funds[fund].cBalance = cTokenToReturn;\n    }\n\n    /**\n     * @notice Disable Compound for Loan Fund\n     * @param fund The Id of a Loan Fund\n     */\n    function disableCompound(bytes32 fund) external {\n        require(bools[fund].compoundEnabled);\n        require(msg.sender == lender(fund));\n        uint256 balanceBefore = token.balanceOf(address(this));\n        redeemCToken(address(cToken), funds[fund].cBalance);\n        uint256 balanceAfter = token.balanceOf(address(this));\n        uint256 tokenToReturn = sub(balanceAfter, balanceBefore);\n        tokenMarketLiquidity = add(tokenMarketLiquidity, tokenToReturn);\n        cTokenMarketLiquidity = sub(cTokenMarketLiquidity, funds[fund].cBalance);\n        bools[fund].compoundEnabled = false;\n        funds[fund].cBalance = 0;\n        funds[fund].balance = tokenToReturn;\n    }\n\n    /**\n     * @notice Decrease Total Borrow by Loans contract\n     * @param amount The amount of tokens to decrease totalBorrow by\n     */\n    function decreaseTotalBorrow(uint256 amount) external {\n        require(msg.sender == address(loans));\n        totalBorrow = sub(totalBorrow, amount);\n    }\n\n    /**\n     * @notice Calculate and update Global Interest Rate\n     * @dev Implementation returns Global Interest Rate per second in RAY\n     *      \n     *      Note: Only updates interest rate if interestUpdateDelay has passed since last update\n     *            if utilizationRatio increases newAPR = oldAPR + (min(10%, utilizationRatio) / 10)\n     *            if utilizationRatio decreases newAPR = oldAPR - (max(10%, utilizationRatio) / 10)\n     *            APR should be less than or equal to 1%\n     *            For every 10% change in utilization ratio, the interest rate will change a maximum of 1%\n     *            i.e. newAPR = 11.5% + (10% / 10) = 12.5%\n     *\n     */\n    function calcGlobalInterest() public {\n        marketLiquidity = add(tokenMarketLiquidity, wmul(cTokenMarketLiquidity, cToken.exchangeRateCurrent()));\n\n        if (now > (lastGlobalInterestUpdated + interestUpdateDelay)) {\n            uint256 utilizationRatio = rdiv(totalBorrow, add(marketLiquidity, totalBorrow));\n\n            if (utilizationRatio > lastUtilizationRatio) {\n                uint256 changeUtilizationRatio = sub(utilizationRatio, lastUtilizationRatio);\n                globalInterestRateNumerator = min(maxInterestRateNumerator, add(globalInterestRateNumerator, rdiv(min(maxUtilizationDelta, changeUtilizationRatio), utilizationInterestDivisor)));\n            } else {\n                uint256 changeUtilizationRatio = sub(lastUtilizationRatio, utilizationRatio);\n                globalInterestRateNumerator = max(minInterestRateNumerator, sub(globalInterestRateNumerator, rdiv(min(maxUtilizationDelta, changeUtilizationRatio), utilizationInterestDivisor)));\n            }\n\n            globalInterestRate = add(RAY, div(globalInterestRateNumerator, NUM_SECONDS_IN_YEAR));\n\n            lastGlobalInterestUpdated = now;\n            lastUtilizationRatio = utilizationRatio;\n        }\n    }\n\n    /*\n     * @notice Calculate compound interest for a length of time\n     * @param amount The amount of tokens\n     * @param rate The interest rate in seconds\n     * @param loanDur The loan duration in seconds\n     */\n    function calcInterest(uint256 amount, uint256 rate, uint256 loanDur) public pure returns (uint256) {\n        return sub(rmul(amount, rpow(rate, loanDur)), amount);\n    }\n\n\n    /*\n     * @dev Takes loan request parameters, creates loan, and returns loanIndex\n     * @param fund The Id of a Loan Fund\n     * @param amount_ Amount of tokens to request\n     * @param collateral_ Amount of collateral to deposit in satoshis\n     * @param loanDur_ Length of loan request in seconds     \n     */\n    function createLoan(\n        bytes32  fund,\n        address  borrower_,\n        uint256  amount_,\n        uint256  collateral_,\n        uint256  loanDur_\n    ) private returns (bytes32 loanIndex) {\n        loanIndex = loans.create(\n            now + loanDur_,\n            [ borrower_, lender(fund), funds[fund].arbiter],\n            [ amount_, calcInterest(amount_, interest(fund), loanDur_), calcInterest(amount_, penalty(fund), loanDur_), calcInterest(amount_, fee(fund), loanDur_), collateral_, liquidationRatio(fund)],\n            fund\n        );\n    }\n\n    /*\n     * @dev Takes loan request Bitcoin parameters, sets loan Public Keys and Secret Hashes\n     * @param fund The Id of the Loan Fund\n     * @param loan The Id of the Loan\n     * @param secretHashes_ 4 Borrower Secret Hashes and 4 Lender Secret Hashes\n     * @param pubKeyA_ Borrower Bitcoin public key to use for refunding collateral\n     * @param pubKeyB_ Lender Bitcoin public key to use for refunding collateral\n     */\n    function loanSetSecretHashes(\n        bytes32           fund,\n        bytes32           loan,\n        bytes32[8] memory secretHashes_,\n        bytes      memory pubKeyA_,\n        bytes      memory pubKeyB_\n    ) private {\n        loans.setSecretHashes(\n            loan,\n            [ secretHashes_[0], secretHashes_[1], secretHashes_[2], secretHashes_[3] ],\n            [ secretHashes_[4], secretHashes_[5], secretHashes_[6], secretHashes_[7] ],\n            getSecretHashesForLoan(arbiter(fund)),\n            pubKeyA_,\n            pubKeyB_,\n            pubKeys[arbiter(fund)]\n        );\n    }\n\n    /*\n     * @dev Updates market liquidity based on amount of tokens being requested to borrow\n     * @param fund Loan Id of the Loan Fund\n     * @param amount The amount of tokens that are being requested\n     */\n    function loanUpdateMarketLiquidity(bytes32 fund, uint256 amount) private {\n        if (bools[fund].compoundEnabled) {\n            uint256 cBalanceBefore = cToken.balanceOf(address(this));\n            redeemUnderlying(address(cToken), amount);\n            uint256 cBalanceAfter = cToken.balanceOf(address(this));\n            uint256 cTokenToRemove = sub(cBalanceBefore, cBalanceAfter);\n            funds[fund].cBalance = sub(funds[fund].cBalance, cTokenToRemove);\n            if (!custom(fund)) { cTokenMarketLiquidity = sub(cTokenMarketLiquidity, cTokenToRemove); }\n        } else {\n            funds[fund].balance = sub(funds[fund].balance, amount);\n            if (!custom(fund)) { tokenMarketLiquidity = sub(tokenMarketLiquidity, amount); }\n        }\n        if (!custom(fund)) {\n            totalBorrow = add(totalBorrow, amount);\n            calcGlobalInterest();\n        }\n    }\n\n    /*\n     * @dev Get the next 4 secret hashes required for loan\n     * @param addr Address of Lender or Arbiter\n     */\n    function getSecretHashesForLoan(address addr) private returns (bytes32[4] memory) {\n        secretHashIndex[addr] = add(secretHashIndex[addr], 4);\n        return [\n            secretHashes[addr][sub(secretHashIndex[addr], 4)],\n            secretHashes[addr][sub(secretHashIndex[addr], 3)],\n            secretHashes[addr][sub(secretHashIndex[addr], 2)],\n            secretHashes[addr][sub(secretHashIndex[addr], 1)]\n        ];\n    }\n}\n",
  "sourcePath": "/Users/matthewblack/atomicloans/atomicloans-eth-contracts/contracts/Funds.sol",
  "compiler": {
    "name": "solc",
    "version": "0.5.8+commit.23d335f2.Emscripten.clang"
  },
  "schemaVersion": "3.0.11",
  "updatedAt": "2019-09-09T20:26:44.795Z"
}