{
  "contractName": "Funds",
  "abi": [
    {
      "constant": true,
      "inputs": [
        {
          "name": "",
          "type": "address"
        }
      ],
      "name": "secretHashIndex",
      "outputs": [
        {
          "name": "",
          "type": "uint256"
        }
      ],
      "payable": false,
      "stateMutability": "view",
      "type": "function"
    },
    {
      "constant": true,
      "inputs": [],
      "name": "maxUtilizationDelta",
      "outputs": [
        {
          "name": "",
          "type": "uint256"
        }
      ],
      "payable": false,
      "stateMutability": "view",
      "type": "function"
    },
    {
      "constant": true,
      "inputs": [],
      "name": "defaultArbiterFee",
      "outputs": [
        {
          "name": "",
          "type": "uint256"
        }
      ],
      "payable": false,
      "stateMutability": "view",
      "type": "function"
    },
    {
      "constant": true,
      "inputs": [],
      "name": "cTokenMarketLiquidity",
      "outputs": [
        {
          "name": "",
          "type": "uint256"
        }
      ],
      "payable": false,
      "stateMutability": "view",
      "type": "function"
    },
    {
      "constant": true,
      "inputs": [],
      "name": "DEFAULT_LIQUIDATION_RATIO",
      "outputs": [
        {
          "name": "",
          "type": "uint256"
        }
      ],
      "payable": false,
      "stateMutability": "view",
      "type": "function"
    },
    {
      "constant": true,
      "inputs": [],
      "name": "globalInterestRateNumerator",
      "outputs": [
        {
          "name": "",
          "type": "uint256"
        }
      ],
      "payable": false,
      "stateMutability": "view",
      "type": "function"
    },
    {
      "constant": true,
      "inputs": [
        {
          "name": "",
          "type": "address"
        }
      ],
      "name": "fundOwner",
      "outputs": [
        {
          "name": "",
          "type": "bytes32"
        }
      ],
      "payable": false,
      "stateMutability": "view",
      "type": "function"
    },
    {
      "constant": true,
      "inputs": [],
      "name": "lastGlobalInterestUpdated",
      "outputs": [
        {
          "name": "",
          "type": "uint256"
        }
      ],
      "payable": false,
      "stateMutability": "view",
      "type": "function"
    },
    {
      "constant": true,
      "inputs": [],
      "name": "decimals",
      "outputs": [
        {
          "name": "",
          "type": "uint256"
        }
      ],
      "payable": false,
      "stateMutability": "view",
      "type": "function"
    },
    {
      "constant": true,
      "inputs": [],
      "name": "DEFAULT_MIN_LOAN_AMT",
      "outputs": [
        {
          "name": "",
          "type": "uint256"
        }
      ],
      "payable": false,
      "stateMutability": "view",
      "type": "function"
    },
    {
      "constant": true,
      "inputs": [],
      "name": "getComptrollerAddress",
      "outputs": [
        {
          "name": "",
          "type": "address"
        }
      ],
      "payable": false,
      "stateMutability": "view",
      "type": "function"
    },
    {
      "constant": true,
      "inputs": [],
      "name": "utilizationInterestDivisor",
      "outputs": [
        {
          "name": "",
          "type": "uint256"
        }
      ],
      "payable": false,
      "stateMutability": "view",
      "type": "function"
    },
    {
      "constant": true,
      "inputs": [
        {
          "name": "",
          "type": "address"
        },
        {
          "name": "",
          "type": "uint256"
        }
      ],
      "name": "secretHashes",
      "outputs": [
        {
          "name": "",
          "type": "bytes32"
        }
      ],
      "payable": false,
      "stateMutability": "view",
      "type": "function"
    },
    {
      "constant": true,
      "inputs": [],
      "name": "globalInterestRate",
      "outputs": [
        {
          "name": "",
          "type": "uint256"
        }
      ],
      "payable": false,
      "stateMutability": "view",
      "type": "function"
    },
    {
      "constant": true,
      "inputs": [],
      "name": "comptroller",
      "outputs": [
        {
          "name": "",
          "type": "address"
        }
      ],
      "payable": false,
      "stateMutability": "view",
      "type": "function"
    },
    {
      "constant": true,
      "inputs": [],
      "name": "marketLiquidity",
      "outputs": [
        {
          "name": "",
          "type": "uint256"
        }
      ],
      "payable": false,
      "stateMutability": "view",
      "type": "function"
    },
    {
      "constant": true,
      "inputs": [],
      "name": "minInterestRateNumerator",
      "outputs": [
        {
          "name": "",
          "type": "uint256"
        }
      ],
      "payable": false,
      "stateMutability": "view",
      "type": "function"
    },
    {
      "constant": true,
      "inputs": [],
      "name": "cToken",
      "outputs": [
        {
          "name": "",
          "type": "address"
        }
      ],
      "payable": false,
      "stateMutability": "view",
      "type": "function"
    },
    {
      "constant": true,
      "inputs": [
        {
          "name": "",
          "type": "bytes32"
        }
      ],
      "name": "funds",
      "outputs": [
        {
          "name": "lender",
          "type": "address"
        },
        {
          "name": "minLoanAmt",
          "type": "uint256"
        },
        {
          "name": "maxLoanAmt",
          "type": "uint256"
        },
        {
          "name": "minLoanDur",
          "type": "uint256"
        },
        {
          "name": "maxLoanDur",
          "type": "uint256"
        },
        {
          "name": "fundExpiry",
          "type": "uint256"
        },
        {
          "name": "interest",
          "type": "uint256"
        },
        {
          "name": "penalty",
          "type": "uint256"
        },
        {
          "name": "fee",
          "type": "uint256"
        },
        {
          "name": "liquidationRatio",
          "type": "uint256"
        },
        {
          "name": "arbiter",
          "type": "address"
        },
        {
          "name": "balance",
          "type": "uint256"
        },
        {
          "name": "cBalance",
          "type": "uint256"
        }
      ],
      "payable": false,
      "stateMutability": "view",
      "type": "function"
    },
    {
      "constant": true,
      "inputs": [
        {
          "name": "",
          "type": "bytes32"
        }
      ],
      "name": "bools",
      "outputs": [
        {
          "name": "custom",
          "type": "bool"
        },
        {
          "name": "compoundEnabled",
          "type": "bool"
        }
      ],
      "payable": false,
      "stateMutability": "view",
      "type": "function"
    },
    {
      "constant": true,
      "inputs": [],
      "name": "totalBorrow",
      "outputs": [
        {
          "name": "",
          "type": "uint256"
        }
      ],
      "payable": false,
      "stateMutability": "view",
      "type": "function"
    },
    {
      "constant": true,
      "inputs": [],
      "name": "fundIndex",
      "outputs": [
        {
          "name": "",
          "type": "uint256"
        }
      ],
      "payable": false,
      "stateMutability": "view",
      "type": "function"
    },
    {
      "constant": true,
      "inputs": [],
      "name": "DEFAULT_MIN_LOAN_DUR",
      "outputs": [
        {
          "name": "",
          "type": "uint256"
        }
      ],
      "payable": false,
      "stateMutability": "view",
      "type": "function"
    },
    {
      "constant": true,
      "inputs": [],
      "name": "DEFAULT_LIQUIDATION_PENALTY",
      "outputs": [
        {
          "name": "",
          "type": "uint256"
        }
      ],
      "payable": false,
      "stateMutability": "view",
      "type": "function"
    },
    {
      "constant": true,
      "inputs": [],
      "name": "DEFAULT_MAX_LOAN_AMT",
      "outputs": [
        {
          "name": "",
          "type": "uint256"
        }
      ],
      "payable": false,
      "stateMutability": "view",
      "type": "function"
    },
    {
      "constant": true,
      "inputs": [
        {
          "name": "",
          "type": "address"
        }
      ],
      "name": "pubKeys",
      "outputs": [
        {
          "name": "",
          "type": "bytes"
        }
      ],
      "payable": false,
      "stateMutability": "view",
      "type": "function"
    },
    {
      "constant": true,
      "inputs": [],
      "name": "NUM_SECONDS_IN_YEAR",
      "outputs": [
        {
          "name": "",
          "type": "uint256"
        }
      ],
      "payable": false,
      "stateMutability": "view",
      "type": "function"
    },
    {
      "constant": true,
      "inputs": [],
      "name": "interestUpdateDelay",
      "outputs": [
        {
          "name": "",
          "type": "uint256"
        }
      ],
      "payable": false,
      "stateMutability": "view",
      "type": "function"
    },
    {
      "constant": true,
      "inputs": [],
      "name": "maxInterestRateNumerator",
      "outputs": [
        {
          "name": "",
          "type": "uint256"
        }
      ],
      "payable": false,
      "stateMutability": "view",
      "type": "function"
    },
    {
      "constant": true,
      "inputs": [],
      "name": "lastUtilizationRatio",
      "outputs": [
        {
          "name": "",
          "type": "uint256"
        }
      ],
      "payable": false,
      "stateMutability": "view",
      "type": "function"
    },
    {
      "constant": true,
      "inputs": [
        {
          "name": "x",
          "type": "uint256"
        },
        {
          "name": "y",
          "type": "uint256"
        }
      ],
      "name": "cmul",
      "outputs": [
        {
          "name": "z",
          "type": "uint256"
        }
      ],
      "payable": false,
      "stateMutability": "pure",
      "type": "function"
    },
    {
      "constant": true,
      "inputs": [],
      "name": "token",
      "outputs": [
        {
          "name": "",
          "type": "address"
        }
      ],
      "payable": false,
      "stateMutability": "view",
      "type": "function"
    },
    {
      "constant": true,
      "inputs": [],
      "name": "tokenMarketLiquidity",
      "outputs": [
        {
          "name": "",
          "type": "uint256"
        }
      ],
      "payable": false,
      "stateMutability": "view",
      "type": "function"
    },
    {
      "inputs": [
        {
          "name": "token_",
          "type": "address"
        },
        {
          "name": "decimals_",
          "type": "uint256"
        }
      ],
      "payable": false,
      "stateMutability": "nonpayable",
      "type": "constructor"
    },
    {
      "anonymous": false,
      "inputs": [
        {
          "indexed": false,
          "name": "fund",
          "type": "bytes32"
        }
      ],
      "name": "Create",
      "type": "event"
    },
    {
      "constant": false,
      "inputs": [
        {
          "name": "loans_",
          "type": "address"
        }
      ],
      "name": "setLoans",
      "outputs": [],
      "payable": false,
      "stateMutability": "nonpayable",
      "type": "function"
    },
    {
      "constant": false,
      "inputs": [
        {
          "name": "cToken_",
          "type": "address"
        },
        {
          "name": "comptroller_",
          "type": "address"
        }
      ],
      "name": "setCompound",
      "outputs": [],
      "payable": false,
      "stateMutability": "nonpayable",
      "type": "function"
    },
    {
      "constant": false,
      "inputs": [
        {
          "name": "utilizationInterestDivisor_",
          "type": "uint256"
        }
      ],
      "name": "setUtilizationInterestDivisor",
      "outputs": [],
      "payable": false,
      "stateMutability": "nonpayable",
      "type": "function"
    },
    {
      "constant": false,
      "inputs": [
        {
          "name": "maxUtilizationDelta_",
          "type": "uint256"
        }
      ],
      "name": "setMaxUtilizationDelta",
      "outputs": [],
      "payable": false,
      "stateMutability": "nonpayable",
      "type": "function"
    },
    {
      "constant": false,
      "inputs": [
        {
          "name": "globalInterestRateNumerator_",
          "type": "uint256"
        }
      ],
      "name": "setGlobalInterestRateNumerator",
      "outputs": [],
      "payable": false,
      "stateMutability": "nonpayable",
      "type": "function"
    },
    {
      "constant": false,
      "inputs": [
        {
          "name": "globalInterestRate_",
          "type": "uint256"
        }
      ],
      "name": "setGlobalInterestRate",
      "outputs": [],
      "payable": false,
      "stateMutability": "nonpayable",
      "type": "function"
    },
    {
      "constant": false,
      "inputs": [
        {
          "name": "maxInterestRateNumerator_",
          "type": "uint256"
        }
      ],
      "name": "setMaxInterestRateNumerator",
      "outputs": [],
      "payable": false,
      "stateMutability": "nonpayable",
      "type": "function"
    },
    {
      "constant": false,
      "inputs": [
        {
          "name": "minInterestRateNumerator_",
          "type": "uint256"
        }
      ],
      "name": "setMinInterestRateNumerator",
      "outputs": [],
      "payable": false,
      "stateMutability": "nonpayable",
      "type": "function"
    },
    {
      "constant": false,
      "inputs": [
        {
          "name": "interestUpdateDelay_",
          "type": "uint256"
        }
      ],
      "name": "setInterestUpdateDelay",
      "outputs": [],
      "payable": false,
      "stateMutability": "nonpayable",
      "type": "function"
    },
    {
      "constant": false,
      "inputs": [
        {
          "name": "defaultArbiterFee_",
          "type": "uint256"
        }
      ],
      "name": "setDefaultArbiterFee",
      "outputs": [],
      "payable": false,
      "stateMutability": "nonpayable",
      "type": "function"
    },
    {
      "constant": true,
      "inputs": [
        {
          "name": "fund",
          "type": "bytes32"
        }
      ],
      "name": "lender",
      "outputs": [
        {
          "name": "",
          "type": "address"
        }
      ],
      "payable": false,
      "stateMutability": "view",
      "type": "function"
    },
    {
      "constant": true,
      "inputs": [
        {
          "name": "fund",
          "type": "bytes32"
        }
      ],
      "name": "minLoanAmt",
      "outputs": [
        {
          "name": "",
          "type": "uint256"
        }
      ],
      "payable": false,
      "stateMutability": "view",
      "type": "function"
    },
    {
      "constant": true,
      "inputs": [
        {
          "name": "fund",
          "type": "bytes32"
        }
      ],
      "name": "maxLoanAmt",
      "outputs": [
        {
          "name": "",
          "type": "uint256"
        }
      ],
      "payable": false,
      "stateMutability": "view",
      "type": "function"
    },
    {
      "constant": true,
      "inputs": [
        {
          "name": "fund",
          "type": "bytes32"
        }
      ],
      "name": "minLoanDur",
      "outputs": [
        {
          "name": "",
          "type": "uint256"
        }
      ],
      "payable": false,
      "stateMutability": "view",
      "type": "function"
    },
    {
      "constant": true,
      "inputs": [
        {
          "name": "fund",
          "type": "bytes32"
        }
      ],
      "name": "maxLoanDur",
      "outputs": [
        {
          "name": "",
          "type": "uint256"
        }
      ],
      "payable": false,
      "stateMutability": "view",
      "type": "function"
    },
    {
      "constant": true,
      "inputs": [
        {
          "name": "fund",
          "type": "bytes32"
        }
      ],
      "name": "fundExpiry",
      "outputs": [
        {
          "name": "",
          "type": "uint256"
        }
      ],
      "payable": false,
      "stateMutability": "view",
      "type": "function"
    },
    {
      "constant": true,
      "inputs": [
        {
          "name": "fund",
          "type": "bytes32"
        }
      ],
      "name": "interest",
      "outputs": [
        {
          "name": "",
          "type": "uint256"
        }
      ],
      "payable": false,
      "stateMutability": "view",
      "type": "function"
    },
    {
      "constant": true,
      "inputs": [
        {
          "name": "fund",
          "type": "bytes32"
        }
      ],
      "name": "penalty",
      "outputs": [
        {
          "name": "",
          "type": "uint256"
        }
      ],
      "payable": false,
      "stateMutability": "view",
      "type": "function"
    },
    {
      "constant": true,
      "inputs": [
        {
          "name": "fund",
          "type": "bytes32"
        }
      ],
      "name": "fee",
      "outputs": [
        {
          "name": "",
          "type": "uint256"
        }
      ],
      "payable": false,
      "stateMutability": "view",
      "type": "function"
    },
    {
      "constant": true,
      "inputs": [
        {
          "name": "fund",
          "type": "bytes32"
        }
      ],
      "name": "liquidationRatio",
      "outputs": [
        {
          "name": "",
          "type": "uint256"
        }
      ],
      "payable": false,
      "stateMutability": "view",
      "type": "function"
    },
    {
      "constant": true,
      "inputs": [
        {
          "name": "fund",
          "type": "bytes32"
        }
      ],
      "name": "arbiter",
      "outputs": [
        {
          "name": "",
          "type": "address"
        }
      ],
      "payable": false,
      "stateMutability": "view",
      "type": "function"
    },
    {
      "constant": false,
      "inputs": [
        {
          "name": "fund",
          "type": "bytes32"
        }
      ],
      "name": "balance",
      "outputs": [
        {
          "name": "",
          "type": "uint256"
        }
      ],
      "payable": false,
      "stateMutability": "nonpayable",
      "type": "function"
    },
    {
      "constant": true,
      "inputs": [
        {
          "name": "fund",
          "type": "bytes32"
        }
      ],
      "name": "custom",
      "outputs": [
        {
          "name": "",
          "type": "bool"
        }
      ],
      "payable": false,
      "stateMutability": "view",
      "type": "function"
    },
    {
      "constant": false,
      "inputs": [
        {
          "name": "maxLoanDur_",
          "type": "uint256"
        },
        {
          "name": "fundExpiry_",
          "type": "uint256"
        },
        {
          "name": "arbiter_",
          "type": "address"
        },
        {
          "name": "compoundEnabled_",
          "type": "bool"
        },
        {
          "name": "amount_",
          "type": "uint256"
        }
      ],
      "name": "create",
      "outputs": [
        {
          "name": "fund",
          "type": "bytes32"
        }
      ],
      "payable": false,
      "stateMutability": "nonpayable",
      "type": "function"
    },
    {
      "constant": false,
      "inputs": [
        {
          "name": "minLoanAmt_",
          "type": "uint256"
        },
        {
          "name": "maxLoanAmt_",
          "type": "uint256"
        },
        {
          "name": "minLoanDur_",
          "type": "uint256"
        },
        {
          "name": "maxLoanDur_",
          "type": "uint256"
        },
        {
          "name": "fundExpiry_",
          "type": "uint256"
        },
        {
          "name": "liquidationRatio_",
          "type": "uint256"
        },
        {
          "name": "interest_",
          "type": "uint256"
        },
        {
          "name": "penalty_",
          "type": "uint256"
        },
        {
          "name": "fee_",
          "type": "uint256"
        },
        {
          "name": "arbiter_",
          "type": "address"
        },
        {
          "name": "compoundEnabled_",
          "type": "bool"
        },
        {
          "name": "amount_",
          "type": "uint256"
        }
      ],
      "name": "createCustom",
      "outputs": [
        {
          "name": "fund",
          "type": "bytes32"
        }
      ],
      "payable": false,
      "stateMutability": "nonpayable",
      "type": "function"
    },
    {
      "constant": false,
      "inputs": [
        {
          "name": "fund",
          "type": "bytes32"
        },
        {
          "name": "amount",
          "type": "uint256"
        }
      ],
      "name": "deposit",
      "outputs": [],
      "payable": false,
      "stateMutability": "nonpayable",
      "type": "function"
    },
    {
      "constant": false,
      "inputs": [
        {
          "name": "fund",
          "type": "bytes32"
        },
        {
          "name": "maxLoanDur_",
          "type": "uint256"
        },
        {
          "name": "fundExpiry_",
          "type": "uint256"
        },
        {
          "name": "arbiter_",
          "type": "address"
        }
      ],
      "name": "update",
      "outputs": [],
      "payable": false,
      "stateMutability": "nonpayable",
      "type": "function"
    },
    {
      "constant": false,
      "inputs": [
        {
          "name": "fund",
          "type": "bytes32"
        },
        {
          "name": "minLoanAmt_",
          "type": "uint256"
        },
        {
          "name": "maxLoanAmt_",
          "type": "uint256"
        },
        {
          "name": "minLoanDur_",
          "type": "uint256"
        },
        {
          "name": "maxLoanDur_",
          "type": "uint256"
        },
        {
          "name": "fundExpiry_",
          "type": "uint256"
        },
        {
          "name": "interest_",
          "type": "uint256"
        },
        {
          "name": "penalty_",
          "type": "uint256"
        },
        {
          "name": "fee_",
          "type": "uint256"
        },
        {
          "name": "liquidationRatio_",
          "type": "uint256"
        },
        {
          "name": "arbiter_",
          "type": "address"
        }
      ],
      "name": "updateCustom",
      "outputs": [],
      "payable": false,
      "stateMutability": "nonpayable",
      "type": "function"
    },
    {
      "constant": false,
      "inputs": [
        {
          "name": "fund",
          "type": "bytes32"
        },
        {
          "name": "borrower_",
          "type": "address"
        },
        {
          "name": "amount_",
          "type": "uint256"
        },
        {
          "name": "collateral_",
          "type": "uint256"
        },
        {
          "name": "loanDur_",
          "type": "uint256"
        },
        {
          "name": "secretHashes_",
          "type": "bytes32[8]"
        },
        {
          "name": "pubKeyA_",
          "type": "bytes"
        },
        {
          "name": "pubKeyB_",
          "type": "bytes"
        }
      ],
      "name": "request",
      "outputs": [
        {
          "name": "loanIndex",
          "type": "bytes32"
        }
      ],
      "payable": false,
      "stateMutability": "nonpayable",
      "type": "function"
    },
    {
      "constant": false,
      "inputs": [
        {
          "name": "fund",
          "type": "bytes32"
        },
        {
          "name": "amount",
          "type": "uint256"
        }
      ],
      "name": "withdraw",
      "outputs": [],
      "payable": false,
      "stateMutability": "nonpayable",
      "type": "function"
    },
    {
      "constant": false,
      "inputs": [
        {
          "name": "secretHashes_",
          "type": "bytes32[]"
        }
      ],
      "name": "generate",
      "outputs": [],
      "payable": false,
      "stateMutability": "nonpayable",
      "type": "function"
    },
    {
      "constant": false,
      "inputs": [
        {
          "name": "pubKey",
          "type": "bytes"
        }
      ],
      "name": "setPubKey",
      "outputs": [],
      "payable": false,
      "stateMutability": "nonpayable",
      "type": "function"
    },
    {
      "constant": false,
      "inputs": [
        {
          "name": "fund",
          "type": "bytes32"
        }
      ],
      "name": "enableCompound",
      "outputs": [],
      "payable": false,
      "stateMutability": "nonpayable",
      "type": "function"
    },
    {
      "constant": false,
      "inputs": [
        {
          "name": "fund",
          "type": "bytes32"
        }
      ],
      "name": "disableCompound",
      "outputs": [],
      "payable": false,
      "stateMutability": "nonpayable",
      "type": "function"
    },
    {
      "constant": false,
      "inputs": [
        {
          "name": "amount",
          "type": "uint256"
        }
      ],
      "name": "decreaseTotalBorrow",
      "outputs": [],
      "payable": false,
      "stateMutability": "nonpayable",
      "type": "function"
    },
    {
      "constant": false,
      "inputs": [],
      "name": "calcGlobalInterest",
      "outputs": [],
      "payable": false,
      "stateMutability": "nonpayable",
      "type": "function"
    },
    {
      "constant": true,
      "inputs": [
        {
          "name": "amount",
          "type": "uint256"
        },
        {
          "name": "rate",
          "type": "uint256"
        },
        {
          "name": "loanDur",
          "type": "uint256"
        }
      ],
      "name": "calcInterest",
      "outputs": [
        {
          "name": "",
          "type": "uint256"
        }
      ],
      "payable": false,
      "stateMutability": "pure",
      "type": "function"
    },
    {
      "constant": true,
      "inputs": [
        {
          "name": "value",
          "type": "uint256"
        }
      ],
      "name": "ensureNotZero",
      "outputs": [
        {
          "name": "",
          "type": "uint256"
        }
      ],
      "payable": false,
      "stateMutability": "pure",
      "type": "function"
    }
  ],
  "bytecode": "0x60806040523480156200001157600080fd5b5060405160408062003bc2833981018060405260408110156200003357600080fd5b508051602090910151601a805433600160a060020a03199182161790915560178054909116600160a060020a03841617905560188190556b22079eda249d327c677048096012556a4ed6b7353f71d0a0f402496011819055600e8190556a96d0176d4a7d47fc102c6f6013556a146cdd36157a9553e20f0a601455620151806015556b033b2e3ca31a444ebbf023c460165562000100906b033b2e3c9fd0803ce800000090620000f1906301e133806401000000006200010c810204565b6401000000006200012d810204565b60105550620001449050565b60008082116200011b57600080fd5b8183816200012557fe5b049392505050565b808201828110156200013e57600080fd5b92915050565b613a6e80620001546000396000f3fe608060405234801561001057600080fd5b50600436106104215760003560e060020a90048063712d8e6a1161022f578063ccb99d5511610134578063e4933256116100bc578063f61d02d31161008b578063f61d02d314610d40578063f7837eb714610daf578063fa3bfb1714610dd2578063fc0c546a14610def578063fdd5aab114610df757610421565b8063e493325614610cf6578063e91d14a414610d13578063eae1c2cf14610d30578063f05541be14610d3857610421565b8063d73b906211610103578063d73b906214610bd8578063d9d0a2d114610c48578063da2c5c5b14610c76578063db9b376c14610c7e578063e32d291314610c8657610421565b8063ccb99d5514610b10578063ce26d44b14610b18578063d1b8b4bf14610b20578063d4785d2914610bbb57610421565b8063a18e4a80116101b7578063a634baf211610186578063a634baf2146109c0578063a7eafade146109dd578063b2d6107114610ace578063ba617eef14610ad6578063bf12f43d14610af357610421565b8063a18e4a801461094d578063a2c70b6b1461097e578063a5a709651461099b578063a5fa6706146109a357610421565b806389eba421116101fe57806389eba421146108a75780638c5d5268146108c4578063994871fa146108e15780639d06bcea1461090a5780639fc3f02f1461093057610421565b8063712d8e6a1461084857806376a0b166146108655780637e25a221146108825780638285ef401461089f57610421565b806333549b1b1161033557806354e39f90116102bd578063689c76ef1161028c578063689c76ef1461072757806369e527da1461072f5780636a29a620146107375780636a7bb32c146107d05780636e1719a61461081057610421565b806354e39f90146106e35780635b873ffa1461070f5780635fe3b56714610717578063612ef80b1461071f57610421565b80634c9fb84a116103045780634c9fb84a146106185780634ee9159a146106505780634f9bc9d5146106585780635139167414610660578063516dbe24146106c657610421565b806333549b1b146105b257806342febf0c146105ba57806344b6ba95146105d757806347ca77161461061057610421565b80631873fe50116103b857806321fd933b1161038757806321fd933b1461054257806326fc75901461056857806327cdab06146105855780632eb1ad73146105a2578063313ce567146105aa57610421565b80631873fe50146104dd5780631bb73697146104fa5780631beec294146105025780631de26e161461051f57610421565b806304e9ef03116103f457806304e9ef03146104a85780630e9511be146104b057806316df840a146104cd5780631723cfa5146104d557610421565b806301937d0414610426578063031558e51461045e57806303b69d1814610466578063040cf02014610483575b600080fd5b61044c6004803603602081101561043c57600080fd5b5035600160a060020a0316610dff565b60408051918252519081900360200190f35b61044c610e11565b61044c6004803603602081101561047c57600080fd5b5035610e17565b6104a66004803603604081101561049957600080fd5b5080359060200135610e6f565b005b61044c6111df565b61044c600480360360208110156104c657600080fd5b50356111e5565b61044c6111fc565b61044c611202565b6104a6600480360360208110156104f357600080fd5b5035611212565b61044c611247565b6104a66004803603602081101561051857600080fd5b503561124d565b6104a66004803603604081101561053557600080fd5b5080359060200135611269565b61044c6004803603602081101561055857600080fd5b5035600160a060020a0316611480565b61044c6004803603602081101561057e57600080fd5b5035611492565b61044c6004803603602081101561059b57600080fd5b50356114d4565b61044c61150c565b61044c611512565b6104a6611518565b61044c600480360360208110156105d057600080fd5b503561168d565b6105f4600480360360208110156105ed57600080fd5b50356116c5565b60408051600160a060020a039092168252519081900360200190f35b61044c6116e3565b6104a66004803603608081101561062e57600080fd5b5080359060208101359060408101359060600135600160a060020a03166116ef565b6105f4611780565b61044c611790565b6104a6600480360361016081101561067757600080fd5b5080359060208101359060408101359060608101359060808101359060a08101359060c08101359060e08101359061010081013590610120810135906101400135600160a060020a0316611796565b6104a6600480360360208110156106dc57600080fd5b50356117fc565b61044c600480360360408110156106f957600080fd5b50600160a060020a038135169060200135611818565b61044c611846565b6105f461184c565b61044c61185b565b61044c611861565b6105f4611867565b6107546004803603602081101561074d57600080fd5b5035611876565b60408051600160a060020a039e8f168152602081019d909d528c81019b909b5260608c019990995260808b019790975260a08a019590955260c089019390935260e08801919091526101008701526101208601529094166101408401526101608301939093526101808201929092529051908190036101a00190f35b61044c600480360360a08110156107e657600080fd5b50803590602081013590600160a060020a03604082013516906060810135151590608001356118ea565b61082d6004803603602081101561082657600080fd5b5035611a7b565b60408051921515835290151560208301528051918290030190f35b61044c6004803603602081101561085e57600080fd5b5035611a99565b61044c6004803603602081101561087b57600080fd5b5035611aae565b6104a66004803603602081101561089857600080fd5b5035611af0565b61044c611ccf565b61044c600480360360208110156108bd57600080fd5b5035611cd5565b6104a6600480360360208110156108da57600080fd5b5035611d7e565b61044c600480360360608110156108f757600080fd5b5080359060208101359060400135611d9a565b6104a66004803603602081101561092057600080fd5b5035600160a060020a0316611dc0565b6105f46004803603602081101561094657600080fd5b5035611eaa565b61096a6004803603602081101561096357600080fd5b5035611ec5565b604080519115158252519081900360200190f35b6104a66004803603602081101561099457600080fd5b5035611eda565b61044c611ef6565b6104a6600480360360208110156109b957600080fd5b5035611efc565b61044c600480360360208110156109d657600080fd5b50356120fe565b61044c60048036036101e08110156109f457600080fd5b813591600160a060020a036020820135169160408201359160608101359160808201359160a08101918101906101c081016101a0820135640100000000811115610a3d57600080fd5b820183602082011115610a4f57600080fd5b80359060200191846001830284011164010000000083111715610a7157600080fd5b919390929091602081019035640100000000811115610a8f57600080fd5b820183602082011115610aa157600080fd5b80359060200191846001830284011164010000000083111715610ac357600080fd5b509092509050612136565b61044c612325565b61044c60048036036020811015610aec57600080fd5b503561232b565b6104a660048036036020811015610b0957600080fd5b5035612341565b61044c61235d565b61044c61236d565b610b4660048036036020811015610b3657600080fd5b5035600160a060020a0316612373565b6040805160208082528351818301528351919283929083019185019080838360005b83811015610b80578181015183820152602001610b68565b50505050905090810190601f168015610bad5780820380516001836020036101000a031916815260200191505b509250505060405180910390f35b6104a660048036036020811015610bd157600080fd5b503561240e565b6104a660048036036020811015610bee57600080fd5b810190602081018135640100000000811115610c0957600080fd5b820183602082011115610c1b57600080fd5b80359060200191846020830284011164010000000083111715610c3d57600080fd5b50909250905061242a565b6104a660048036036040811015610c5e57600080fd5b50600160a060020a038135811691602001351661247f565b61044c6124fc565b61044c612504565b6104a660048036036020811015610c9c57600080fd5b810190602081018135640100000000811115610cb757600080fd5b820183602082011115610cc957600080fd5b80359060200191846001830284011164010000000083111715610ceb57600080fd5b50909250905061250a565b6104a660048036036020811015610d0c57600080fd5b5035612524565b61044c60048036036020811015610d2957600080fd5b503561254d565b61044c612585565b61044c61258b565b61044c6004803603610180811015610d5757600080fd5b5080359060208101359060408101359060608101359060808101359060a08101359060c08101359060e08101359061010081013590600160a060020a0361012082013516906101408101351515906101600135612591565b61044c60048036036040811015610dc557600080fd5b508035906020013561275e565b6104a660048036036020811015610de857600080fd5b503561278f565b6105f46127ab565b61044c6127ba565b60036020526000908152604090205481565b60115481565b60008181526007602052604081205460ff1615610e465750600081815260056020526040902060010154610e6a565b610e67678ac7230489e80000610e5f60126018546127c0565b600a0a6127d6565b90505b919050565b610e7882611eaa565b600160a060020a031633600160a060020a031614610e9557600080fd5b80610e9f83611cd5565b1015610eaa57600080fd5b600082815260076020526040902054610100900460ff16156110d9576019546040805160e060020a6370a082310281523060048201529051600092600160a060020a0316916370a08231916024808301926020929190829003018186803b158015610f1457600080fd5b505afa158015610f28573d6000803e3d6000fd5b505050506040513d6020811015610f3e57600080fd5b5051601954909150610f5990600160a060020a0316836127ed565b6019546040805160e060020a6370a082310281523060048201529051600092600160a060020a0316916370a08231916024808301926020929190829003018186803b158015610fa757600080fd5b505afa158015610fbb573d6000803e3d6000fd5b505050506040513d6020811015610fd157600080fd5b505190506000610fe183836127c0565b6000868152600560205260409020600c015490915061100090826127c0565b6000868152600560205260409020600c0155601754600160a060020a031663a9059cbb61102c87611eaa565b866040518363ffffffff1660e060020a0281526004018083600160a060020a0316600160a060020a0316815260200182815260200192505050602060405180830381600087803b15801561107f57600080fd5b505af1158015611093573d6000803e3d6000fd5b505050506040513d60208110156110a957600080fd5b50516110b457600080fd5b6110bd85611ec5565b6110d1576110cd600b54826127c0565b600b555b5050506111c6565b6000828152600560205260409020600b01546110f590826127c0565b6000838152600560205260409020600b0155601754600160a060020a031663a9059cbb61112184611eaa565b836040518363ffffffff1660e060020a0281526004018083600160a060020a0316600160a060020a0316815260200182815260200192505050602060405180830381600087803b15801561117457600080fd5b505af1158015611188573d6000803e3d6000fd5b505050506040513d602081101561119e57600080fd5b50516111a957600080fd5b6111b282611ec5565b6111c6576111c2600a54826127c0565b600a555b6111cf82611ec5565b6111db576111db611518565b5050565b60165481565b6000816111f55750600019610e6a565b5080610e6a565b600b5481565b6b04860d8812f0b3887800000081565b601a54600160a060020a0316331461122957600080fd5b6b033b2e3ca43176a9d2dfd0a581111561124257600080fd5b601655565b600e5481565b601a54600160a060020a0316331461126457600080fd5b600e55565b601754604080517f23b872dd000000000000000000000000000000000000000000000000000000008152336004820152306024820152604481018490529051600160a060020a03909216916323b872dd916064808201926020929091908290030181600087803b1580156112dc57600080fd5b505af11580156112f0573d6000803e3d6000fd5b505050506040513d602081101561130657600080fd5b505161131157600080fd5b600082815260076020526040902054610100900460ff16156114395760175460195461134a91600160a060020a039081169116836129e2565b60006113e561136183670de0b6b3a7640000612b02565b601960009054906101000a9004600160a060020a0316600160a060020a031663bd6d894d6040518163ffffffff1660e060020a028152600401602060405180830381600087803b1580156113b457600080fd5b505af11580156113c8573d6000803e3d6000fd5b505050506040513d60208110156113de57600080fd5b50516127d6565b6000848152600560205260409020600c01549091506114049082612b26565b6000848152600560205260409020600c015561141f83611ec5565b6114335761142f600b5482612b26565b600b555b506111c6565b6000828152600560205260409020600b01546114559082612b26565b6000838152600560205260409020600b015561147082611ec5565b6111c6576111c2600a5482612b26565b60066020526000908152604090205481565b60008181526007602052604081205460ff16156114c15750600081815260056020526040902060070154610e6a565b506b033b2e3cacd278c7503e82c1610e6a565b60008181526007602052604081205460ff16156115035750600081815260056020526040902060080154610e6a565b50601654610e6a565b60095481565b60185481565b6115ad600a546115a8600b54601960009054906101000a9004600160a060020a0316600160a060020a031663bd6d894d6040518163ffffffff1660e060020a028152600401602060405180830381600087803b15801561157757600080fd5b505af115801561158b573d6000803e3d6000fd5b505050506040513d60208110156115a157600080fd5b5051612b36565b612b26565b600c556015546009540142111561168b5760006115d9600d546115d4600c54600d54612b26565b612b5e565b9050600f548111156116265760006115f382600f546127c0565b905061161d601354611618600e546115a861161060115487612b82565b601254612b5e565b612b82565b600e5550611660565b6000611634600f54836127c0565b905061165b601454611656600e5461165161161060115487612b82565b6127c0565b612b9b565b600e55505b6116806b033b2e3c9fd0803ce80000006115a8600e546301e133806127d6565b60105542600955600f555b565b60008181526007602052604081205460ff16156116bc5750600081815260056020526040902060020154610e6a565b50600019610e6a565b6000908152600560205260409020600a0154600160a060020a031690565b678ac7230489e8000081565b6116f884611eaa565b600160a060020a031633600160a060020a03161461171557600080fd5b61171e836111e5565b6000191415806117385750611732826111e5565b60001914155b61174157600080fd5b6000938452600560208190526040909420600481019390935592820155600a018054600160a060020a031916600160a060020a03909216919091179055565b600054600160a060020a03165b90565b60125481565b60008b81526007602052604090205460ff166117b157600080fd5b6117bd8b8888846116ef565b506000998a5260056020526040909920600181019890985560028801969096556003870194909455600686015550506007830155600882015560090155565b601a54600160a060020a0316331461181357600080fd5b601555565b6002602052816000526040600020818154811061183157fe5b90600052602060002001600091509150505481565b60105481565b600054600160a060020a031681565b600c5481565b60145481565b601954600160a060020a031681565b600560208190526000918252604090912080546001820154600283015460038401546004850154958501546006860154600787015460088801546009890154600a8a0154600b8b0154600c909b0154600160a060020a039a8b169c999b989a9799989697959694959394929390911691908d565b33600081815260066020908152604080832054835260059091528120549091600160a060020a0390911614158061192b5750601a54600160a060020a031633145b61193457600080fd5b61193d866111e5565b6000191415806119575750611951856111e5565b60001914155b61196057600080fd5b60195460a060020a900460ff1661197c57821561197c57600080fd5b6119896008546001612b26565b600881905560008181526005602052604090208054600160a060020a0319163317905590506119b7866111e5565b6000828152600560205260409020600401556119d2856111e5565b600082815260056020818152604080842092830194909455600a9091018054600160a060020a031916600160a060020a03891617905560078152828220805461ffff1916610100881515021790556008543383526006909152919020558115611a3f57611a3f8183611269565b6040805182815290517fa7857d7da6974b0157f3bf7dd25a745bd7d81d845bb525ee0b316a87541a5c319181900360200190a195945050505050565b60076020526000908152604090205460ff8082169161010090041682565b60009081526005602052604090206004015490565b60008181526007602052604081205460ff1615611add5750600081815260056020526040902060090154610e6a565b506b04860d8812f0b38878000000610e6a565b600081815260076020526040902054610100900460ff16611b1057600080fd5b611b1981611eaa565b600160a060020a031633600160a060020a031614611b3657600080fd5b6017546040805160e060020a6370a082310281523060048201529051600092600160a060020a0316916370a08231916024808301926020929190829003018186803b158015611b8457600080fd5b505afa158015611b98573d6000803e3d6000fd5b505050506040513d6020811015611bae57600080fd5b50516019546000848152600560205260409020600c0154919250611bdd91600160a060020a0390911690612bab565b6017546040805160e060020a6370a082310281523060048201529051600092600160a060020a0316916370a08231916024808301926020929190829003018186803b158015611c2b57600080fd5b505afa158015611c3f573d6000803e3d6000fd5b505050506040513d6020811015611c5557600080fd5b505190506000611c6582846127c0565b9050611c73600a5482612b26565b600a55600b546000858152600560205260409020600c0154611c9591906127c0565b600b9081556000948552600760209081526040808720805461ff001916905560059091528520600c81019590955593909301929092555050565b600d5481565b600081815260076020526040812054610100900460ff1615611d66576000828152600560209081526040808320600c015460195482517fbd6d894d0000000000000000000000000000000000000000000000000000000081529251610e67959294600160a060020a039092169363bd6d894d9360048083019493928390030190829087803b15801561157757600080fd5b506000818152600560205260409020600b0154610e6a565b601a54600160a060020a03163314611d9557600080fd5b601055565b6000611db8611db285611dad8686612d24565b612d7e565b856127c0565b949350505050565b601a54600160a060020a03163314611dd757600080fd5b600154600160a060020a031615611ded57600080fd5b60018054600160a060020a031916600160a060020a03838116918217909255601754604080517f095ea7b3000000000000000000000000000000000000000000000000000000008152600481019390935260001960248401525192169163095ea7b3916044808201926020929091908290030181600087803b158015611e7257600080fd5b505af1158015611e86573d6000803e3d6000fd5b505050506040513d6020811015611e9c57600080fd5b5051611ea757600080fd5b50565b600090815260056020526040902054600160a060020a031690565b60009081526007602052604090205460ff1690565b601a54600160a060020a03163314611ef157600080fd5b601155565b60085481565b60195460a060020a900460ff16611f1257600080fd5b600081815260076020526040902054610100900460ff1615611f3357600080fd5b611f3c81611eaa565b600160a060020a031633600160a060020a031614611f5957600080fd5b6019546040805160e060020a6370a082310281523060048201529051600092600160a060020a0316916370a08231916024808301926020929190829003018186803b158015611fa757600080fd5b505afa158015611fbb573d6000803e3d6000fd5b505050506040513d6020811015611fd157600080fd5b50516017546019546000858152600560205260409020600b015492935061200792600160a060020a0392831692909116906129e2565b6019546040805160e060020a6370a082310281523060048201529051600092600160a060020a0316916370a08231916024808301926020929190829003018186803b15801561205557600080fd5b505afa158015612069573d6000803e3d6000fd5b505050506040513d602081101561207f57600080fd5b50519050600061208f82846127c0565b600a546000868152600560205260409020600b01549192506120b0916127c0565b600a55600b546120c09082612b26565b600b9081556000948552600760209081526040808720805461ff0019166101001790556005909152852090810194909455600c909301929092555050565b60008181526007602052604081205460ff161561212d5750600081815260056020526040902060030154610e6a565b50615460610e6a565b60006121418b611eaa565b600160a060020a031633600160a060020a03161461215e57600080fd5b6121678b611cd5565b89111561217357600080fd5b61217c8b610e17565b89101561218857600080fd5b6121918b61168d565b89111561219d57600080fd5b6121a68b6120fe565b8710156121b257600080fd5b6121c46121be8c61232b565b426127c0565b87111580156121db57506121d78b611a99565b8711155b6121e457600080fd5b6121f18b8b8b8b8b612dae565b905061228f8b8288600880602002604051908101604052809291908260086020028082843760009201919091525050604080516020601f8c018190048102820181019092528a815291508a908a908190840183828082843760009201919091525050604080516020601f8c018190048102820181019092528a815292508a9150899081908401838280828437600092019190915250612f3a92505050565b6122998b8a613230565b600154604080517fbf14c119000000000000000000000000000000000000000000000000000000008152600481018490529051600160a060020a039092169163bf14c1199160248082019260009290919082900301818387803b1580156122ff57600080fd5b505af1158015612313573d6000803e3d6000fd5b505050509a9950505050505050505050565b61546081565b6000908152600560208190526040909120015490565b601a54600160a060020a0316331461235857600080fd5b601255565b6b033b2e3cacd278c7503e82c181565b60001981565b60046020908152600091825260409182902080548351601f6002600019610100600186161502019093169290920491820184900484028101840190945280845290918301828280156124065780601f106123db57610100808354040283529160200191612406565b820191906000526020600020905b8154815290600101906020018083116123e957829003601f168201915b505050505081565b601a54600160a060020a0316331461242557600080fd5b601455565b60005b8181101561247a5733600090815260026020526040902083838381811061245057fe5b8354600180820186556000958652602095869020929095029390930135920191909155500161242d565b505050565b601a54600160a060020a0316331461249657600080fd5b60195460a060020a900460ff16156124ad57600080fd5b6019805460008054600160a060020a03948516600160a060020a03199182161790915574ff000000000000000000000000000000000000000019939094169316929092171660a060020a179055565b6301e1338081565b60155481565b33600090815260046020526040902061247a90838361398c565b600154600160a060020a0316331461253b57600080fd5b612547600d54826127c0565b600d5550565b60008181526007602052604081205460ff161561257c5750600081815260056020526040902060060154610e6a565b50601054610e6a565b60135481565b600f5481565b33600081815260066020908152604080832054835260059091528120549091600160a060020a039091161415806125d25750601a54600160a060020a031633145b6125db57600080fd5b6125e48a6111e5565b6000191415806125fe57506125f8896111e5565b60001914155b61260757600080fd5b60195460a060020a900460ff1661262357821561262357600080fd5b6126306008546001612b26565b600881905560008181526005602052604090208054600160a060020a03191633178155600181018f9055600281018e90556003018c905590506126728a6111e5565b60008281526005602052604090206004015561268d896111e5565b60008281526005602081815260408084209283019490945560068083018c905560078084018c905560088085018c9055600985018f9055600a9094018054600160a060020a031916600160a060020a038c161790558252848420805460ff191660011761ff0019166101008a151502179055915433845291905291902055811561271b5761271b8183611269565b6040805182815290517fa7857d7da6974b0157f3bf7dd25a745bd7d81d845bb525ee0b316a87541a5c319181900360200190a19c9b505050505050505050505050565b60006305f5e1006127806127728585612b02565b60026305f5e1005b04612b26565b8161278757fe5b049392505050565b601a54600160a060020a031633146127a657600080fd5b601355565b601754600160a060020a031681565b600a5481565b808203828111156127d057600080fd5b92915050565b60008082116127e457600080fd5b81838161278757fe5b8161280e8174446c3b15f9926687d2c40534fdb5640000000000008161342c565b6040805160e060020a6370a082310281523060048201529051600091600160a060020a038416916370a0823191602480820192602092909190829003018186803b15801561285b57600080fd5b505afa15801561286f573d6000803e3d6000fd5b505050506040513d602081101561288557600080fd5b5051604080517fbd6d894d00000000000000000000000000000000000000000000000000000000815290519192506000916128ed918491600160a060020a0387169163bd6d894d91600480830192602092919082900301818987803b15801561157757600080fd5b9050838111156128fa5750825b82600160a060020a031663852a12e3826040518263ffffffff1660e060020a02815260040180828152602001915050602060405180830381600087803b15801561294357600080fd5b505af1158015612957573d6000803e3d6000fd5b505050506040513d602081101561296d57600080fd5b5051156129db57604080517f08c379a000000000000000000000000000000000000000000000000000000000815260206004820152601460248201527f736f6d657468696e672077656e742077726f6e67000000000000000000000000604482015290519081900360640190fd5b5050505050565b6129eb82613579565b6040805160e060020a6370a0823102815230600482015290518491600091600160a060020a038416916370a08231916024808301926020929190829003018186803b158015612a3957600080fd5b505afa158015612a4d573d6000803e3d6000fd5b505050506040513d6020811015612a6357600080fd5b5051905082811115612a725750815b83612a7e86838361342c565b80600160a060020a031663a0712d68836040518263ffffffff1660e060020a02815260040180828152602001915050602060405180830381600087803b158015612ac757600080fd5b505af1158015612adb573d6000803e3d6000fd5b505050506040513d6020811015612af157600080fd5b505115612afa57fe5b505050505050565b6000811580612b1d57505080820282828281612b1a57fe5b04145b6127d057600080fd5b808201828110156127d057600080fd5b6000670de0b6b3a7640000612780612b4e8585612b02565b6002670de0b6b3a764000061277a565b600081612780612b7a856b033b2e3c9fd0803ce8000000612b02565b60028561277a565b600081831115612b925781612b94565b825b9392505050565b600081831015612b925781612b94565b6040805160e060020a6370a0823102815230600482015290518391600091600160a060020a038416916370a08231916024808301926020929190829003018186803b158015612bf957600080fd5b505afa158015612c0d573d6000803e3d6000fd5b505050506040513d6020811015612c2357600080fd5b5051905082811115612c325750815b612c3d84828661342c565b81600160a060020a031663db006a75826040518263ffffffff1660e060020a02815260040180828152602001915050602060405180830381600087803b158015612c8657600080fd5b505af1158015612c9a573d6000803e3d6000fd5b505050506040513d6020811015612cb057600080fd5b505115612d1e57604080517f08c379a000000000000000000000000000000000000000000000000000000000815260206004820152601460248201527f736f6d657468696e672077656e742077726f6e67000000000000000000000000604482015290519081900360640190fd5b50505050565b600060028206612d40576b033b2e3c9fd0803ce8000000612d42565b825b90506002820491505b81156127d057612d5b8384612d7e565b92506002820615612d7357612d708184612d7e565b90505b600282049150612d4b565b60006b033b2e3c9fd0803ce8000000612780612d9a8585612b02565b60026b033b2e3c9fd0803ce800000061277a565b6001546040805160608101909152600160a060020a03868116825260009216906325a55e7a904285019060208101612de58b611eaa565b600160a060020a03908116825260008c815260056020908152604091829020600a015490921692820192909252815160c081019092528982528101612e338a612e2d8e61254d565b8a611d9a565b8152602001612e458a612e2d8e611492565b8152602001612e578a612e2d8e6114d4565b8152602001888152602001612e6b8c611aae565b905260405160e060020a63ffffffff8616028152600481018481528c9160240184606080838360005b83811015612eac578181015183820152602001612e94565b5050505090500183600660200280838360005b83811015612ed7578181015183820152602001612ebf565b50505050905001828152602001945050505050602060405180830381600087803b158015612f0457600080fd5b505af1158015612f18573d6000803e3d6000fd5b505050506040513d6020811015612f2e57600080fd5b50519695505050505050565b600154604080516080808201835286518252602080880151818401528784015183850152606080890151908401528351808301855291880151825260a088015190820152600160a060020a039093169263ee79b12b928892919081018860066020020151815260200188600760088110612fb057fe5b60200201519052612fc8612fc38b6116c5565b613832565b878760046000612fd78f6116c5565b600160a060020a0316600160a060020a031681526020019081526020016000206040518863ffffffff1660e060020a0281526004018088815260200187600460200280838360005b8381101561303757818101518382015260200161301f565b5050505090500186600460200280838360005b8381101561306257818101518382015260200161304a565b5050505090500185600460200280838360005b8381101561308d578181015183820152602001613075565b50505050905001806020018060200180602001848103845287818151815260200191508051906020019080838360005b838110156130d55781810151838201526020016130bd565b50505050905090810190601f1680156131025780820380516001836020036101000a031916815260200191505b50848103835286518152865160209182019188019080838360005b8381101561313557818101518382015260200161311d565b50505050905090810190601f1680156131625780820380516001836020036101000a031916815260200191505b508481038252855460026000196101006001841615020190911604808252602090910190869080156131d55780601f106131aa576101008083540402835291602001916131d5565b820191906000526020600020905b8154815290600101906020018083116131b857829003601f168201915b50509a5050505050505050505050602060405180830381600087803b1580156131fd57600080fd5b505af1158015613211573d6000803e3d6000fd5b505050506040513d602081101561322757600080fd5b50505050505050565b600082815260076020526040902054610100900460ff16156133bd576019546040805160e060020a6370a082310281523060048201529051600092600160a060020a0316916370a08231916024808301926020929190829003018186803b15801561329a57600080fd5b505afa1580156132ae573d6000803e3d6000fd5b505050506040513d60208110156132c457600080fd5b50516019549091506132df90600160a060020a0316836127ed565b6019546040805160e060020a6370a082310281523060048201529051600092600160a060020a0316916370a08231916024808301926020929190829003018186803b15801561332d57600080fd5b505afa158015613341573d6000803e3d6000fd5b505050506040513d602081101561335757600080fd5b50519050600061336783836127c0565b6000868152600560205260409020600c015490915061338690826127c0565b6000868152600560205260409020600c01556133a185611ec5565b6133b5576133b1600b54826127c0565b600b555b505050613408565b6000828152600560205260409020600b01546133d990826127c0565b6000838152600560205260409020600b01556133f482611ec5565b61340857613404600a54826127c0565b600a555b61341182611ec5565b6111db57613421600d5482612b26565b600d556111db611518565b604080517fdd62ed3e000000000000000000000000000000000000000000000000000000008152306004820152600160a060020a038381166024830152915185926000929084169163dd62ed3e91604480820192602092909190829003018186803b15801561349a57600080fd5b505afa1580156134ae573d6000803e3d6000fd5b505050506040513d60208110156134c457600080fd5b50519050808411156129db57604080517f095ea7b3000000000000000000000000000000000000000000000000000000008152600160a060020a0385811660048301527f8000000000000000000000000000000000000000000000000000000000000000602483015291519184169163095ea7b39160448082019260009290919082900301818387803b15801561355a57600080fd5b505af115801561356e573d6000803e3d6000fd5b505050505050505050565b6000613583611780565b604080517fabfceffc0000000000000000000000000000000000000000000000000000000081523060048201529051919250606091600160a060020a0384169163abfceffc916024808301926000929190829003018186803b1580156135e857600080fd5b505afa1580156135fc573d6000803e3d6000fd5b505050506040513d6000823e601f3d908101601f19168201604052602081101561362557600080fd5b81019080805164010000000081111561363d57600080fd5b8201602081018481111561365057600080fd5b815185602082028301116401000000008211171561366d57600080fd5b509094506000935083925050505b82518110156136be5784600160a060020a031683828151811061369a57fe5b6020026020010151600160a060020a031614156136b657600191505b60010161367b565b5080612d1e576040805160018082528183019092526060916020808301908038833901905050905084816000815181106136f457fe5b600160a060020a039283166020918202929092018101919091526040517fc2998238000000000000000000000000000000000000000000000000000000008152600481018281528451602483015284519388169363c29982389386938392604490910191858101910280838360005b8381101561377b578181015183820152602001613763565b5050505090500192505050600060405180830381600087803b1580156137a057600080fd5b505af11580156137b4573d6000803e3d6000fd5b505050506040513d6000823e601f3d908101601f1916820160405260208110156137dd57600080fd5b8101908080516401000000008111156137f557600080fd5b8201602081018481111561380857600080fd5b815185602082028301116401000000008211171561382557600080fd5b5050505050505050505050565b61383a613a0a565b600160a060020a03821660009081526003602052604090205461385e906004612b26565b600160a060020a03831660009081526003602081815260408084208590558051608081018252600283529320919052909182919061389d9060046127c0565b815481106138a757fe5b60009182526020808320909101548352600160a060020a03861682526002815260408083206003808452919093205493909101926138e4916127c0565b815481106138ee57fe5b60009182526020808320909101548352600160a060020a038616825260028082526040808420600384529320549390910192613929916127c0565b8154811061393357fe5b60009182526020808320909101548352600160a060020a03861682526002815260408083206003835292205492019161396d9060016127c0565b8154811061397757fe5b90600052602060002001548152509050919050565b828054600181600116156101000203166002900490600052602060002090601f016020900481019282601f106139cd5782800160ff198235161785556139fa565b828001600101855582156139fa579182015b828111156139fa5782358255916020019190600101906139df565b50613a06929150613a28565b5090565b60405180608001604052806004906020820280388339509192915050565b61178d91905b80821115613a065760008155600101613a2e56fea165627a7a72305820cae2f7b5afd4422d8350a64eb6edbf384963606a689dd8e2be570b70f723dd240029",
  "source": "import 'openzeppelin-solidity/contracts/token/ERC20/ERC20.sol';\nimport 'openzeppelin-solidity/contracts/math/SafeMath.sol';\n\nimport './Loans.sol';\nimport './ALCompound.sol';\n\npragma solidity ^0.5.8;\n\ncontract Funds is DSMath, ALCompound {\n    Loans loans;\n\n    uint256 public constant DEFAULT_LIQUIDATION_RATIO = 1400000000000000000000000000;   // 140% (1.4x in RAY) minimum collateralization ratio\n    uint256 public constant DEFAULT_LIQUIDATION_PENALTY = 1000000000937303470807876289; // 3% (3 in RAY) liquidation penalty\n    uint256 public constant DEFAULT_MIN_LOAN_AMT = 10 ether; // Min 10 WAD\n    uint256 public constant DEFAULT_MAX_LOAN_AMT = 2**256-1; // Max 2**256\n    uint256 public constant DEFAULT_MIN_LOAN_DUR = 6 hours;  // 6 hours\n    uint256 public constant NUM_SECONDS_IN_YEAR = 365 days;\n\n    mapping (address => bytes32[]) public secretHashes;    // User secret hashes\n    mapping (address => uint256)   public secretHashIndex; // User secret hash index\n\n    mapping (address => bytes)     public pubKeys;  // User A Coin PubKeys\n    \n    mapping (bytes32 => Fund)      public funds;\n    mapping (address => bytes32)   public fundOwner;\n    mapping (bytes32 => Bools)     public bools;\n    uint256                        public fundIndex;\n\n    uint256 public lastGlobalInterestUpdated;\n    uint256 public tokenMarketLiquidity;\n    uint256 public cTokenMarketLiquidity;\n    uint256 public marketLiquidity;\n    uint256 public totalBorrow;\n    uint256 public globalInterestRateNumerator;\n    uint256 public lastUtilizationRatio;\n    uint256 public globalInterestRate;\n    uint256 public maxUtilizationDelta;\n    uint256 public utilizationInterestDivisor;\n    uint256 public maxInterestRateNumerator;\n    uint256 public minInterestRateNumerator;\n    uint256 public interestUpdateDelay;\n    uint256 public defaultArbiterFee;\n\n    ERC20 public token;\n    uint256 public decimals;\n    CTokenInterface public cToken;\n    bool compoundSet;\n\n    address deployer;\n\n    /**\n     * @notice Container for Loan Fund information\n     * @member lender Loan Fund Owner\n     * @member minLoanAmt Minimum Loan Amount that can be requested by a 'borrower'\n     * @member maxLoanAmt Maximum Loan Amount that can be requested by a 'borrower'\n     * @member minLoanDur Minimum Loan Duration that can be requested by a 'borrower'\n     * @member maxLoanDur Maximum Loan Duration that can be requested by a 'borrower'\n     * @member interest Interest Rate of Loan Fund in RAY per second\n     * @member penalty Liquidation Penalty Rate of Loan Fund in RAY per second\n     * @member fee Optional Automation Fee Rate of Loan Fund in RAY per second\n     * @member liquidationRatio Liquidation Ratio of Loan Fund in RAY\n     * @member arbiter Optional address of Automator Arbiter\n     * @member balance Amount of non-borrowed tokens in Loan Fund\n     * @member cBalance Amount of non-borrowed cTokens in Loan Fund\n     * @member custom Indicator that this Loan Fund is custom and does not use global settings\n     * @member compoundEnabled Indicator that this Loan Fund lends non-borrowed tokens on Compound\n     */\n    struct Fund {\n        address  lender;\n        uint256  minLoanAmt;\n        uint256  maxLoanAmt;\n        uint256  minLoanDur;\n        uint256  maxLoanDur;\n        uint256  fundExpiry;\n        uint256  interest;\n        uint256  penalty;\n        uint256  fee;\n        uint256  liquidationRatio;\n        address  arbiter;\n        uint256  balance;\n        uint256  cBalance;\n    }\n\n    struct Bools {\n        bool     custom;\n        bool     compoundEnabled;\n    }\n\n    event Create(bytes32 fund);\n\n    constructor(\n        ERC20   token_,\n        uint256 decimals_\n    ) public {\n        deployer = msg.sender;\n        token = token_;\n        decimals = decimals_;\n        utilizationInterestDivisor = 10531702972595856680093239305; // 10.53 in RAY (~10:1 ratio for % change in utilization ratio to % change in interest rate)\n        maxUtilizationDelta = 95310179948351216961192521; // Global Interest Rate Numerator can change up to 9.53% in RAY (~10% change in utilization ratio = ~1% change in interest rate)\n        globalInterestRateNumerator =  95310179948351216961192521; // ~10%  ( (e^(ln(1.100)/(60*60*24*365)) - 1) * (60*60*24*365) )\n        maxInterestRateNumerator    = 182321557320989604265864303; // ~20%  ( (e^(ln(1.200)/(60*60*24*365)) - 1) * (60*60*24*365) )\n        minInterestRateNumerator    =  24692612600038629323181834; // ~2.5% ( (e^(ln(1.025)/(60*60*24*365)) - 1) * (60*60*24*365) )\n        interestUpdateDelay = 86400; // 1 DAY\n        defaultArbiterFee = 1000000000236936036262880196; // 0.75% (0.75 in RAY) optional arbiter fee\n        globalInterestRate = add(RAY, div(globalInterestRateNumerator, NUM_SECONDS_IN_YEAR)); // Interest rate per second\n\n        // utilizationInterestDivisor calculation (this is aiming for utilizationInterestDivisor to allow max change from 10% APR to be 11% APR despite using compound interest)\n        // 1 + (globalInterestRateNumerator + (maxUtilizationDelta * RAY) / utilizationInterestDivisor) / NUM_SECONDS_IN_YEAR = 11% interest per second\n        // utilizationInterestDivisor = (maxUtilizationDelta * RAY) / ( (11% interest per second - 1)(NUM_SECONDS_IN_YEAR) - globalInterestRateNumerator )\n        // utilizationInterestDivisor = ((e^(ln(1.100)/(60*60*24*365)) - 1) * (60*60*24*365) * (10^27)) / ( (( e^(ln(1.110)/(60*60*24*365)) -1 ) * ( 60*60*24*365 )) - ((e^(ln(1.100)/(60*60*24*365)) - 1) * (60*60*24*365)))\n    }\n\n    /**\n     * @dev Sets Loans contract\n     * @param loans_ Address of Loans contract\n     */\n    function setLoans(Loans loans_) public {\n        require(msg.sender == deployer);\n        require(address(loans) == address(0));\n        loans = loans_;\n        require(token.approve(address(loans_), 2**256-1));\n    }\n\n    /**\n     * @dev Enables assets in loan fund that haven't been borrowed to be lent on Compound\n     * @param cToken_ The address of the Compound Token\n     * @param comptroller_ The address of the Compound Comptroller\n     */\n    function setCompound(CTokenInterface cToken_, address comptroller_) public {\n        require(msg.sender == deployer);\n        require(!compoundSet);\n        cToken = cToken_;\n        comptroller = comptroller_;\n        compoundSet = true;\n    }\n\n    // NOTE: THE FOLLOWING FUNCTIONS ALLOW VARIABLES TO BE MODIFIED BY THE \n    //       DEPLOYER, SINCE THE ALGORITHM FOR CALCULATING GLOBAL INTEREST \n    //       RATE IS UNTESTED WITH A DECENTRALIZED PROTOCOL, AND MAY NEED TO\n    //       BE UPDATED IN THE CASE THAT RATES DO NOT UPDATE AS INTENDED. A \n    //       FUTURE ITERATION OF THE PROTOCOL WILL REMOVE THESE FUNCTIONS. IF \n    //       YOU WISH TO OPT OUT OF GLOBAL APR YOU CAN CREATE A CUSTOM LOAN FUND\n    // ======================================================================\n\n    /**\n     * @dev Sets the Utilization Interest Divisor\n     */\n    function setUtilizationInterestDivisor(uint256 utilizationInterestDivisor_) external {\n        require(msg.sender == deployer);\n        utilizationInterestDivisor = utilizationInterestDivisor_;\n    }\n\n    /**\n     * @dev Sets the Max Utilization Delta\n     */\n    function setMaxUtilizationDelta(uint256 maxUtilizationDelta_) external {\n        require(msg.sender == deployer);\n        maxUtilizationDelta = maxUtilizationDelta_;\n    }\n\n    /**\n     * @dev Sets the Global Interest Rate Numerator\n     */\n    function setGlobalInterestRateNumerator(uint256 globalInterestRateNumerator_) external {\n        require(msg.sender == deployer);\n        globalInterestRateNumerator = globalInterestRateNumerator_;\n    }\n\n    /**\n     * @dev Sets the Global Interest Rate\n     */\n    function setGlobalInterestRate(uint256 globalInterestRate_) external {\n        require(msg.sender == deployer);\n        globalInterestRate = globalInterestRate_;\n    }\n\n    /**\n     * @dev Sets the Maximum Interest Rate Numerator\n     */\n    function setMaxInterestRateNumerator(uint256 maxInterestRateNumerator_) external {\n        require(msg.sender == deployer);\n        maxInterestRateNumerator = maxInterestRateNumerator_;\n    }\n\n    /**\n     * @dev Sets the Minimum Interest Rate Numerator\n     */\n    function setMinInterestRateNumerator(uint256 minInterestRateNumerator_) external {\n        require(msg.sender == deployer);\n        minInterestRateNumerator = minInterestRateNumerator_;\n    }\n\n    /**\n     * @dev Sets the Interest Update Delay\n     */\n    function setInterestUpdateDelay(uint256 interestUpdateDelay_) external {\n        require(msg.sender == deployer);\n        interestUpdateDelay = interestUpdateDelay_;\n    }\n\n    /**\n     * @dev Sets the Default Arbiter Fee\n     */\n    function setDefaultArbiterFee(uint256 defaultArbiterFee_) external {\n        require(msg.sender == deployer);\n        require(defaultArbiterFee_ <= 1000000000315522921573372069); // ~1%\n        defaultArbiterFee = defaultArbiterFee_;\n    }\n    // ======================================================================\n\n    /**\n     * @notice Get the lender of a Loan Fund\n     * @param fund The Id of a Loan Fund\n     * @return Owner address of Loan Fund\n     */\n    function lender(bytes32 fund) public view returns (address) {\n        return funds[fund].lender;\n    }\n\n    /**\n     * @notice Get minimum loan amount able to be requested by a 'borrower'\n     * @param fund The Id of a Loan Fund\n     * @return The minimum amount of tokens that can be requested from a Loan Fund\n     */\n    function minLoanAmt(bytes32 fund) public view returns (uint256) {\n        if (bools[fund].custom) { return funds[fund].minLoanAmt; }\n        else                    { return div(DEFAULT_MIN_LOAN_AMT, (10 ** sub(18, decimals))); }\n    }\n\n    /**\n     * @notice Get maximum loan amount able to be requested by a 'borrower'\n     * @param fund The Id of a Loan Fund\n     * @return The maximum amount of tokens that can be requested from a Loan Fund\n     */\n    function maxLoanAmt(bytes32 fund) public view returns (uint256) {\n        if (bools[fund].custom) { return funds[fund].maxLoanAmt; }\n        else                    { return DEFAULT_MAX_LOAN_AMT; }\n    }\n\n    /**\n     * @notice Get minimum loan duration able to be requested by a 'borrower'\n     * @param fund The Id of a Loan Fund\n     * @return The minimum duration loan that can be requested from a Loan Fund\n     */\n    function minLoanDur(bytes32 fund) public view returns (uint256) {\n        if (bools[fund].custom) { return funds[fund].minLoanDur; }\n        else                    { return DEFAULT_MIN_LOAN_DUR; }\n    }\n\n    /**\n     * @notice Get maximum loan duration able to be requested by a 'borrower'\n     * @param fund The Id of a Loan Fund\n     * @return The maximum duration loan that can be requested from a Loan Fund\n     */\n    function maxLoanDur(bytes32 fund) public view returns (uint256) {\n        return funds[fund].maxLoanDur;\n    }\n\n    /**\n     * @notice Get maximum loan duration able to be requested by a 'borrower'\n     * @param fund The Id of a Loan Fund\n     * @return The maximum duration loan that can be requested from a Loan Fund\n     */\n    function fundExpiry(bytes32 fund) public view returns (uint256) {\n        return funds[fund].fundExpiry;\n    }\n\n    /**\n     * @notice Get the interest rate for a Loan Fund\n     * @param fund The Id of a Loan Fund\n     * @return The interest rate per second for a Loan Fund in RAY per second\n     */\n    function interest(bytes32 fund) public view returns (uint256) {\n        if (bools[fund].custom) { return funds[fund].interest; }\n        else                    { return globalInterestRate; }\n    }\n\n    /**\n     * @notice Get the liquidation penalty rate for a Loan Fund\n     * @param fund The Id of a Loan Fund\n     * @return The liquidation penalty rate per second for a Loan Fund in RAY per second\n     */\n    function penalty(bytes32 fund) public view returns (uint256) {\n        if (bools[fund].custom) { return funds[fund].penalty; }\n        else                    { return DEFAULT_LIQUIDATION_PENALTY; }\n    }\n\n    /**\n     * @notice Get the optional automation fee for a Loan Fund\n     * @param fund The Id of a Loan Fund\n     * @return The optional automation fee rate of Loan Fund in RAY per second\n     */\n    function fee(bytes32 fund) public view returns (uint256) {\n        if (bools[fund].custom) { return funds[fund].fee; }\n        else                    { return defaultArbiterFee; }\n    }\n\n    /**\n     * @notice Get the liquidation ratio of a Loan Fund\n     * @param fund The Id of a Loan Fund\n     * @return The liquidation ratio of Loan Fund in RAY\n     */\n    function liquidationRatio(bytes32 fund) public view returns (uint256) {\n        if (bools[fund].custom) { return funds[fund].liquidationRatio; }\n        else                    { return DEFAULT_LIQUIDATION_RATIO; }\n    }\n\n    /**\n     * @notice Get the arbiter for a Loan Fund\n     * @param fund The Id of a Loan Fund\n     * @return The address of the arbiter for a Loan fund\n     */\n    function arbiter(bytes32 fund)   public view returns (address) {\n        return funds[fund].arbiter;\n    }\n\n    /**\n     * @notice Get the current balance of a Loan Fund in tokens\n     * @param fund The Id of a Loan Fund\n     * @return The amount of tokens remaining in Loan Fund\n     */\n    function balance(bytes32 fund) public returns (uint256) {\n        if (bools[fund].compoundEnabled) {\n            return wmul(funds[fund].cBalance, cToken.exchangeRateCurrent());\n        } else {\n            return funds[fund].balance;\n        }\n    }\n\n    /**\n     * @notice Get the custom indicator for a Loan Fund\n     * @param fund The Id of a Loan Fund\n     * @return The indicator of whether a Loan Fund is custom or not\n     */\n    function custom(bytes32 fund) public view returns (bool) {\n        return bools[fund].custom;\n    }\n\n    /**\n     * @notice Lenders create Loan Fund using Global Protocol parameters and deposit assets\n     * @param maxLoanDur_ Max Loan Duration of Loan Fund in seconds\n     * @param arbiter_  Optional address of arbiter\n     * @param compoundEnabled_ Indicator whether excess funds should be lent on Compound\n     * @param amount_ Amount of tokens to be deposited on creation\n     * @return The Id of a Loan Fund\n     *\n     *         Note: Only one loan fund is allowed per ethereum address.\n     *               Exception is made for the deployer for testing.\n     */\n    function create(\n        uint256  maxLoanDur_,\n        uint256  fundExpiry_,\n        address  arbiter_,\n        bool     compoundEnabled_,\n        uint256  amount_\n    ) external returns (bytes32 fund) { \n        require(funds[fundOwner[msg.sender]].lender != msg.sender || msg.sender == deployer); // Only allow one loan fund per address\n        require(ensureNotZero(maxLoanDur_) != 2**256-1 || ensureNotZero(fundExpiry_) != 2**256-1); // Make sure someone can't request a loan for eternity\n        if (!compoundSet) { require(compoundEnabled_ == false); }\n        fundIndex = add(fundIndex, 1);\n        fund = bytes32(fundIndex);\n        funds[fund].lender           = msg.sender;\n        funds[fund].maxLoanDur       = ensureNotZero(maxLoanDur_);\n        funds[fund].fundExpiry       = ensureNotZero(fundExpiry_);\n        funds[fund].arbiter          = arbiter_;\n        bools[fund].custom           = false;\n        bools[fund].compoundEnabled  = compoundEnabled_;\n        fundOwner[msg.sender]        = bytes32(fundIndex);\n        if (amount_ > 0) { deposit(fund, amount_); }\n\n        emit Create(fund);\n    }\n\n    /**\n     * @notice Lenders create Loan Fund using Custom parameters and deposit assets\n     * @param minLoanAmt_ Minimum amount of tokens that can be borrowed from Loan Fund\n     * @param maxLoanAmt_ Maximum amount of tokens that can be borrowed from Loan Fund\n     * @param minLoanDur_ Minimum length of loan that can be requested from Loan Fund in seconds\n     * @param maxLoanDur_ Maximum length of loan that can be requested from Loan Fund in seconds\n     * @param arbiter_  Optional address of arbiter\n     * @param compoundEnabled_ Indicator whether excess funds should be lent on Compound\n     * @param amount_ Amount of tokens to be deposited on creation\n     * @return The Id of a Loan Fund\n     *\n     *         Note: Only one loan fund is allowed per ethereum address.\n     *               Exception is made for the deployer for testing.\n     */\n    function createCustom(\n        uint256  minLoanAmt_,\n        uint256  maxLoanAmt_,\n        uint256  minLoanDur_,\n        uint256  maxLoanDur_,\n        uint256  fundExpiry_,\n        uint256  liquidationRatio_,\n        uint256  interest_,\n        uint256  penalty_,\n        uint256  fee_,\n        address  arbiter_,\n        bool     compoundEnabled_,\n        uint256  amount_\n    ) external returns (bytes32 fund) {\n        require(funds[fundOwner[msg.sender]].lender != msg.sender || msg.sender == deployer); // Only allow one loan fund per address\n        require(ensureNotZero(maxLoanDur_) != 2**256-1 || ensureNotZero(fundExpiry_) != 2**256-1); // Make sure someone can't request a loan for eternity\n        if (!compoundSet) { require(compoundEnabled_ == false); }\n        fundIndex = add(fundIndex, 1);\n        fund = bytes32(fundIndex);\n        funds[fund].lender           = msg.sender;\n        funds[fund].minLoanAmt       = minLoanAmt_;\n        funds[fund].maxLoanAmt       = maxLoanAmt_;\n        funds[fund].minLoanDur       = minLoanDur_;\n        funds[fund].maxLoanDur       = ensureNotZero(maxLoanDur_);\n        funds[fund].fundExpiry       = ensureNotZero(fundExpiry_);\n        funds[fund].interest         = interest_;\n        funds[fund].penalty          = penalty_;\n        funds[fund].fee              = fee_;\n        funds[fund].liquidationRatio = liquidationRatio_;\n        funds[fund].arbiter          = arbiter_;\n        bools[fund].custom           = true;\n        bools[fund].compoundEnabled  = compoundEnabled_;\n        fundOwner[msg.sender]        = bytes32(fundIndex);\n        if (amount_ > 0) { deposit(fund, amount_); }\n\n        emit Create(fund);\n    }\n\n    /**\n     * @notice Lenders deposit tokens in Loan Fund\n     * @param fund The Id of a Loan Fund\n     * @param amount Amount of tokens to deposit\n     *\n     *        Note: Anyone can deposit tokens into a Loan Fund\n     */\n    function deposit(bytes32 fund, uint256 amount) public {\n        require(token.transferFrom(msg.sender, address(this), amount));\n        if (bools[fund].compoundEnabled) {\n            mintCToken(address(token), address(cToken), amount);\n            uint256 cTokenToAdd = div(mul(amount, WAD), cToken.exchangeRateCurrent());\n            funds[fund].cBalance = add(funds[fund].cBalance, cTokenToAdd);\n            if (!custom(fund)) { cTokenMarketLiquidity = add(cTokenMarketLiquidity, cTokenToAdd); }\n        } else {\n            funds[fund].balance = add(funds[fund].balance, amount);\n            if (!custom(fund)) { tokenMarketLiquidity = add(tokenMarketLiquidity, amount); }\n        }\n        if (!custom(fund)) { calcGlobalInterest(); }\n    }\n\n    /**\n     * @notice Users update Loan Fund settings\n     * @param fund The Id of a Loan Fund\n     * @param maxLoanDur_ Maximum length of loan that can be requested from Loan Fund in seconds\n     * @param fundExpiry_ Timestamp when all funds should be removable from Loan Fund\n     * @param arbiter_ The address of the arbiter for a Loan fund\n     *\n     *        Note: msg.sender must be the lender of the Loan Fund\n     */\n    function update(\n        bytes32  fund,\n        uint256  maxLoanDur_,\n        uint256  fundExpiry_,\n        address  arbiter_\n    ) public {\n        require(msg.sender == lender(fund));\n        require(ensureNotZero(maxLoanDur_) != 2**256-1 || ensureNotZero(fundExpiry_) != 2**256-1); // Make sure someone can't request a loan for eternity\n        funds[fund].maxLoanDur       = maxLoanDur_;\n        funds[fund].fundExpiry       = fundExpiry_;\n        funds[fund].arbiter          = arbiter_;\n    }\n\n    /**\n     * @notice Users update custom Loan Fund settings\n     * @param fund The Id of a Loan Fund\n     * @param minLoanAmt_ Minimum amount of tokens that can be borrowed from Loan Fund\n     * @param maxLoanAmt_ Maximum amount of tokens that can be borrowed from Loan Fund\n     * @param minLoanDur_ Minimum length of loan that can be requested from Loan Fund in seconds\n     * @param maxLoanDur_ Maximum length of loan that can be requested from Loan Fund in seconds\n     * @param fundExpiry_ Timestamp when all funds should be removable from Loan Fund\n     * @param interest_ The interest rate per second for a Loan Fund in RAY per second\n     * @param penalty_ The liquidation penalty rate per second for a Loan Fund in RAY per second\n     * @param fee_ The optional automation fee rate of Loan Fund in RAY per second\n     * @param liquidationRatio_ The liquidation ratio of Loan Fund in RAY\n     * @param arbiter_ The address of the arbiter for a Loan fund\n     *\n     *        Note: msg.sender must be the lender of the Loan Fund\n     */\n    function updateCustom(\n        bytes32  fund,\n        uint256  minLoanAmt_,\n        uint256  maxLoanAmt_,\n        uint256  minLoanDur_,\n        uint256  maxLoanDur_,\n        uint256  fundExpiry_,\n        uint256  interest_,\n        uint256  penalty_,\n        uint256  fee_,\n        uint256  liquidationRatio_,\n        address  arbiter_\n    ) external {\n        require(bools[fund].custom);\n        update(fund, maxLoanDur_, fundExpiry_, arbiter_);\n        funds[fund].minLoanAmt       = minLoanAmt_;\n        funds[fund].maxLoanAmt       = maxLoanAmt_;\n        funds[fund].minLoanDur       = minLoanDur_;\n        funds[fund].interest         = interest_;\n        funds[fund].penalty          = penalty_;\n        funds[fund].fee              = fee_;\n        funds[fund].liquidationRatio = liquidationRatio_;\n    }\n\n    /**\n     * @notice Lenders request loan from Loan Fund on behalf of Borrower\n     * @param fund The Id of a Loan Fund\n     * @param amount_ Amount of tokens to request\n     * @param collateral_ Amount of collateral to deposit in satoshis\n     * @param loanDur_ Length of loan request in seconds\n     * @param secretHashes_ 4 Borrower Secret Hashes and 4 Lender Secret Hashes\n     * @param pubKeyA_ Borrower Bitcoin public key to use for refunding collateral\n     * @param pubKeyB_ Lender Bitcoin public key to use for refunding collateral\n     *\n     *        Note: Borrower client should verify params after Ethereum tx\n     *              confirmation before locking Bitcoin.\n     *\n     */\n    function request(\n        bytes32             fund,\n        address             borrower_,\n        uint256             amount_,\n        uint256             collateral_,\n        uint256             loanDur_,\n        bytes32[8] calldata secretHashes_,\n        bytes      calldata pubKeyA_,\n        bytes      calldata pubKeyB_\n    ) external returns (bytes32 loanIndex) {\n        require(msg.sender == lender(fund));\n        require(amount_    <= balance(fund));\n        require(amount_    >= minLoanAmt(fund));\n        require(amount_    <= maxLoanAmt(fund));\n        require(loanDur_   >= minLoanDur(fund));\n        require(loanDur_   <= sub(fundExpiry(fund), now) && loanDur_ <= maxLoanDur(fund));\n\n        loanIndex = createLoan(fund, borrower_, amount_, collateral_, loanDur_);\n        loanSetSecretHashes(fund, loanIndex, secretHashes_, pubKeyA_, pubKeyB_);\n        loanUpdateMarketLiquidity(fund, amount_);\n        loans.fund(loanIndex);\n    }\n\n    /**\n     * @notice Lenders withdraw tokens in Loan Fund\n     * @param fund The Id of a Loan Fund\n     * @param amount Amount of tokens to withdraw\n     */\n    function withdraw(bytes32 fund, uint256 amount) external {\n        require(msg.sender     == lender(fund));\n        require(balance(fund)  >= amount);\n        if (bools[fund].compoundEnabled) {\n            uint256 cBalanceBefore = cToken.balanceOf(address(this));\n            redeemUnderlying(address(cToken), amount);\n            uint256 cBalanceAfter = cToken.balanceOf(address(this));\n            uint256 cTokenToRemove = sub(cBalanceBefore, cBalanceAfter);\n            funds[fund].cBalance = sub(funds[fund].cBalance, cTokenToRemove);\n            require(token.transfer(lender(fund), amount));\n            if (!custom(fund)) { cTokenMarketLiquidity = sub(cTokenMarketLiquidity, cTokenToRemove); }\n        } else {\n            funds[fund].balance = sub(funds[fund].balance, amount);\n            require(token.transfer(lender(fund), amount));\n            if (!custom(fund)) { tokenMarketLiquidity = sub(tokenMarketLiquidity, amount); }\n        }\n        if (!custom(fund)) { calcGlobalInterest(); }\n    }\n\n    /**\n     * @notice Submit secretHashes to be used with future loans\n     * @param secretHashes_ List of secretHashes\n     */\n    function generate(bytes32[] calldata secretHashes_) external {\n        for (uint i = 0; i < secretHashes_.length; i++) {\n            secretHashes[msg.sender].push(secretHashes_[i]);\n        }\n    }\n\n    /**\n     * @notice Set Lender or Arbiter Bitcoin Public Key\n     * @param pubKey Bitcoin Public Key\n     */\n    function setPubKey(bytes calldata pubKey) external { // Set PubKey for Fund\n        pubKeys[msg.sender] = pubKey;\n    }\n\n    /**\n     * @notice Enable Compound for Loan Fund\n     * @param fund The Id of a Loan Fund\n     */\n    function enableCompound(bytes32 fund) external {\n        require(compoundSet);\n        require(bools[fund].compoundEnabled == false);\n        require(msg.sender == lender(fund));\n        uint256 cBalanceBefore = cToken.balanceOf(address(this));\n        mintCToken(address(token), address(cToken), funds[fund].balance);\n        uint256 cBalanceAfter = cToken.balanceOf(address(this));\n        uint256 cTokenToReturn = sub(cBalanceAfter, cBalanceBefore);\n        tokenMarketLiquidity = sub(tokenMarketLiquidity, funds[fund].balance);\n        cTokenMarketLiquidity = add(cTokenMarketLiquidity, cTokenToReturn);\n        bools[fund].compoundEnabled = true;\n        funds[fund].balance = 0;\n        funds[fund].cBalance = cTokenToReturn;\n    }\n\n    /**\n     * @notice Disable Compound for Loan Fund\n     * @param fund The Id of a Loan Fund\n     */\n    function disableCompound(bytes32 fund) external {\n        require(bools[fund].compoundEnabled);\n        require(msg.sender == lender(fund));\n        uint256 balanceBefore = token.balanceOf(address(this));\n        redeemCToken(address(cToken), funds[fund].cBalance);\n        uint256 balanceAfter = token.balanceOf(address(this));\n        uint256 tokenToReturn = sub(balanceAfter, balanceBefore);\n        tokenMarketLiquidity = add(tokenMarketLiquidity, tokenToReturn);\n        cTokenMarketLiquidity = sub(cTokenMarketLiquidity, funds[fund].cBalance);\n        bools[fund].compoundEnabled = false;\n        funds[fund].cBalance = 0;\n        funds[fund].balance = tokenToReturn;\n    }\n\n    /**\n     * @notice Decrease Total Borrow by Loans contract\n     * @param amount The amount of tokens to decrease totalBorrow by\n     */\n    function decreaseTotalBorrow(uint256 amount) external {\n        require(msg.sender == address(loans));\n        totalBorrow = sub(totalBorrow, amount);\n    }\n\n    /**\n     * @notice Calculate and update Global Interest Rate\n     * @dev Implementation returns Global Interest Rate per second in RAY\n     *      \n     *      Note: Only updates interest rate if interestUpdateDelay has passed since last update\n     *            if utilizationRatio increases newAPR = oldAPR + (min(10%, utilizationRatio) / 10)\n     *            if utilizationRatio decreases newAPR = oldAPR - (max(10%, utilizationRatio) / 10)\n     *            APR should be less than or equal to 1%\n     *            For every 10% change in utilization ratio, the interest rate will change a maximum of 1%\n     *            i.e. newAPR = 11.5% + (10% / 10) = 12.5%\n     *\n     */\n    function calcGlobalInterest() public {\n        marketLiquidity = add(tokenMarketLiquidity, wmul(cTokenMarketLiquidity, cToken.exchangeRateCurrent()));\n\n        if (now > (lastGlobalInterestUpdated + interestUpdateDelay)) {\n            uint256 utilizationRatio = rdiv(totalBorrow, add(marketLiquidity, totalBorrow));\n\n            if (utilizationRatio > lastUtilizationRatio) {\n                uint256 changeUtilizationRatio = sub(utilizationRatio, lastUtilizationRatio);\n                globalInterestRateNumerator = min(maxInterestRateNumerator, add(globalInterestRateNumerator, rdiv(min(maxUtilizationDelta, changeUtilizationRatio), utilizationInterestDivisor)));\n            } else {\n                uint256 changeUtilizationRatio = sub(lastUtilizationRatio, utilizationRatio);\n                globalInterestRateNumerator = max(minInterestRateNumerator, sub(globalInterestRateNumerator, rdiv(min(maxUtilizationDelta, changeUtilizationRatio), utilizationInterestDivisor)));\n            }\n\n            globalInterestRate = add(RAY, div(globalInterestRateNumerator, NUM_SECONDS_IN_YEAR));\n\n            lastGlobalInterestUpdated = now;\n            lastUtilizationRatio = utilizationRatio;\n        }\n    }\n\n    /*\n     * @notice Calculate compound interest for a length of time\n     * @param amount The amount of tokens\n     * @param rate The interest rate in seconds\n     * @param loanDur The loan duration in seconds\n     */\n    function calcInterest(uint256 amount, uint256 rate, uint256 loanDur) public pure returns (uint256) {\n        return sub(rmul(amount, rpow(rate, loanDur)), amount);\n    }\n\n    /*\n     * @dev Ensure null values for fundExpiry and maxLoanDur are set to 2**256-1\n     * @param value The value to be sanity checked\n     */\n    function ensureNotZero(uint256 value) public pure returns (uint256) {\n        if (value == 0) { return 2**256-1; }\n        else            { return value; }\n    }\n\n    /*\n     * @dev Takes loan request parameters, creates loan, and returns loanIndex\n     * @param fund The Id of a Loan Fund\n     * @param amount_ Amount of tokens to request\n     * @param collateral_ Amount of collateral to deposit in satoshis\n     * @param loanDur_ Length of loan request in seconds     \n     */\n    function createLoan(\n        bytes32  fund,\n        address  borrower_,\n        uint256  amount_,\n        uint256  collateral_,\n        uint256  loanDur_\n    ) private returns (bytes32 loanIndex) {\n        loanIndex = loans.create(\n            now + loanDur_,\n            [ borrower_, lender(fund), funds[fund].arbiter],\n            [ amount_, calcInterest(amount_, interest(fund), loanDur_), calcInterest(amount_, penalty(fund), loanDur_), calcInterest(amount_, fee(fund), loanDur_), collateral_, liquidationRatio(fund)],\n            fund\n        );\n    }\n\n    /*\n     * @dev Takes loan request Bitcoin parameters, sets loan Public Keys and Secret Hashes\n     * @param fund The Id of the Loan Fund\n     * @param loan The Id of the Loan\n     * @param secretHashes_ 4 Borrower Secret Hashes and 4 Lender Secret Hashes\n     * @param pubKeyA_ Borrower Bitcoin public key to use for refunding collateral\n     * @param pubKeyB_ Lender Bitcoin public key to use for refunding collateral\n     */\n    function loanSetSecretHashes(\n        bytes32           fund,\n        bytes32           loan,\n        bytes32[8] memory secretHashes_,\n        bytes      memory pubKeyA_,\n        bytes      memory pubKeyB_\n    ) private {\n        loans.setSecretHashes(\n            loan,\n            [ secretHashes_[0], secretHashes_[1], secretHashes_[2], secretHashes_[3] ],\n            [ secretHashes_[4], secretHashes_[5], secretHashes_[6], secretHashes_[7] ],\n            getSecretHashesForLoan(arbiter(fund)),\n            pubKeyA_,\n            pubKeyB_,\n            pubKeys[arbiter(fund)]\n        );\n    }\n\n    /*\n     * @dev Updates market liquidity based on amount of tokens being requested to borrow\n     * @param fund Loan Id of the Loan Fund\n     * @param amount The amount of tokens that are being requested\n     */\n    function loanUpdateMarketLiquidity(bytes32 fund, uint256 amount) private {\n        if (bools[fund].compoundEnabled) {\n            uint256 cBalanceBefore = cToken.balanceOf(address(this));\n            redeemUnderlying(address(cToken), amount);\n            uint256 cBalanceAfter = cToken.balanceOf(address(this));\n            uint256 cTokenToRemove = sub(cBalanceBefore, cBalanceAfter);\n            funds[fund].cBalance = sub(funds[fund].cBalance, cTokenToRemove);\n            if (!custom(fund)) { cTokenMarketLiquidity = sub(cTokenMarketLiquidity, cTokenToRemove); }\n        } else {\n            funds[fund].balance = sub(funds[fund].balance, amount);\n            if (!custom(fund)) { tokenMarketLiquidity = sub(tokenMarketLiquidity, amount); }\n        }\n        if (!custom(fund)) {\n            totalBorrow = add(totalBorrow, amount);\n            calcGlobalInterest();\n        }\n    }\n\n    /*\n     * @dev Get the next 4 secret hashes required for loan\n     * @param addr Address of Lender or Arbiter\n     */\n    function getSecretHashesForLoan(address addr) private returns (bytes32[4] memory) {\n        secretHashIndex[addr] = add(secretHashIndex[addr], 4);\n        return [\n            secretHashes[addr][sub(secretHashIndex[addr], 4)],\n            secretHashes[addr][sub(secretHashIndex[addr], 3)],\n            secretHashes[addr][sub(secretHashIndex[addr], 2)],\n            secretHashes[addr][sub(secretHashIndex[addr], 1)]\n        ];\n    }\n}\n",
  "sourcePath": "/Users/matthewblack/atomicloans/atomicloans-eth-contracts/contracts/Funds.sol",
  "compiler": {
    "name": "solc",
    "version": "0.5.8+commit.23d335f2.Emscripten.clang"
  },
  "schemaVersion": "3.0.16",
  "updatedAt": "2019-09-15T02:02:12.031Z",
  "devdoc": {
    "methods": {
      "arbiter(bytes32)": {
        "params": {
          "fund": "The Id of a Loan Fund"
        },
        "return": "The address of the arbiter for a Loan fund"
      },
      "balance(bytes32)": {
        "params": {
          "fund": "The Id of a Loan Fund"
        },
        "return": "The amount of tokens remaining in Loan Fund"
      },
      "calcGlobalInterest()": {
        "details": "Implementation returns Global Interest Rate per second in RAY          Note: Only updates interest rate if interestUpdateDelay has passed since last update           if utilizationRatio increases newAPR = oldAPR + (min(10%, utilizationRatio) / 10)           if utilizationRatio decreases newAPR = oldAPR - (max(10%, utilizationRatio) / 10)           APR should be less than or equal to 1%           For every 10% change in utilization ratio, the interest rate will change a maximum of 1%           i.e. newAPR = 11.5% + (10% / 10) = 12.5%     "
      },
      "create(uint256,uint256,address,bool,uint256)": {
        "params": {
          "amount_": "Amount of tokens to be deposited on creation",
          "arbiter_": "Optional address of arbiter",
          "compoundEnabled_": "Indicator whether excess funds should be lent on Compound",
          "maxLoanDur_": "Max Loan Duration of Loan Fund in seconds"
        },
        "return": "The Id of a Loan Fund     *         Note: Only one loan fund is allowed per ethereum address.              Exception is made for the deployer for testing."
      },
      "createCustom(uint256,uint256,uint256,uint256,uint256,uint256,uint256,uint256,uint256,address,bool,uint256)": {
        "params": {
          "amount_": "Amount of tokens to be deposited on creation",
          "arbiter_": "Optional address of arbiter",
          "compoundEnabled_": "Indicator whether excess funds should be lent on Compound",
          "maxLoanAmt_": "Maximum amount of tokens that can be borrowed from Loan Fund",
          "maxLoanDur_": "Maximum length of loan that can be requested from Loan Fund in seconds",
          "minLoanAmt_": "Minimum amount of tokens that can be borrowed from Loan Fund",
          "minLoanDur_": "Minimum length of loan that can be requested from Loan Fund in seconds"
        },
        "return": "The Id of a Loan Fund     *         Note: Only one loan fund is allowed per ethereum address.              Exception is made for the deployer for testing."
      },
      "custom(bytes32)": {
        "params": {
          "fund": "The Id of a Loan Fund"
        },
        "return": "The indicator of whether a Loan Fund is custom or not"
      },
      "decreaseTotalBorrow(uint256)": {
        "params": {
          "amount": "The amount of tokens to decrease totalBorrow by"
        }
      },
      "deposit(bytes32,uint256)": {
        "params": {
          "amount": "Amount of tokens to deposit     *        Note: Anyone can deposit tokens into a Loan Fund",
          "fund": "The Id of a Loan Fund"
        }
      },
      "disableCompound(bytes32)": {
        "params": {
          "fund": "The Id of a Loan Fund"
        }
      },
      "enableCompound(bytes32)": {
        "params": {
          "fund": "The Id of a Loan Fund"
        }
      },
      "fee(bytes32)": {
        "params": {
          "fund": "The Id of a Loan Fund"
        },
        "return": "The optional automation fee rate of Loan Fund in RAY per second"
      },
      "fundExpiry(bytes32)": {
        "params": {
          "fund": "The Id of a Loan Fund"
        },
        "return": "The maximum duration loan that can be requested from a Loan Fund"
      },
      "generate(bytes32[])": {
        "params": {
          "secretHashes_": "List of secretHashes"
        }
      },
      "getComptrollerAddress()": {
        "details": "get Compound Comptroller Address"
      },
      "interest(bytes32)": {
        "params": {
          "fund": "The Id of a Loan Fund"
        },
        "return": "The interest rate per second for a Loan Fund in RAY per second"
      },
      "lender(bytes32)": {
        "params": {
          "fund": "The Id of a Loan Fund"
        },
        "return": "Owner address of Loan Fund"
      },
      "liquidationRatio(bytes32)": {
        "params": {
          "fund": "The Id of a Loan Fund"
        },
        "return": "The liquidation ratio of Loan Fund in RAY"
      },
      "maxLoanAmt(bytes32)": {
        "params": {
          "fund": "The Id of a Loan Fund"
        },
        "return": "The maximum amount of tokens that can be requested from a Loan Fund"
      },
      "maxLoanDur(bytes32)": {
        "params": {
          "fund": "The Id of a Loan Fund"
        },
        "return": "The maximum duration loan that can be requested from a Loan Fund"
      },
      "minLoanAmt(bytes32)": {
        "params": {
          "fund": "The Id of a Loan Fund"
        },
        "return": "The minimum amount of tokens that can be requested from a Loan Fund"
      },
      "minLoanDur(bytes32)": {
        "params": {
          "fund": "The Id of a Loan Fund"
        },
        "return": "The minimum duration loan that can be requested from a Loan Fund"
      },
      "penalty(bytes32)": {
        "params": {
          "fund": "The Id of a Loan Fund"
        },
        "return": "The liquidation penalty rate per second for a Loan Fund in RAY per second"
      },
      "request(bytes32,address,uint256,uint256,uint256,bytes32[8],bytes,bytes)": {
        "params": {
          "amount_": "Amount of tokens to request",
          "collateral_": "Amount of collateral to deposit in satoshis",
          "fund": "The Id of a Loan Fund",
          "loanDur_": "Length of loan request in seconds",
          "pubKeyA_": "Borrower Bitcoin public key to use for refunding collateral",
          "pubKeyB_": "Lender Bitcoin public key to use for refunding collateral     *        Note: Borrower client should verify params after Ethereum tx             confirmation before locking Bitcoin.     ",
          "secretHashes_": "4 Borrower Secret Hashes and 4 Lender Secret Hashes"
        }
      },
      "setCompound(address,address)": {
        "details": "Enables assets in loan fund that haven't been borrowed to be lent on Compound",
        "params": {
          "cToken_": "The address of the Compound Token",
          "comptroller_": "The address of the Compound Comptroller"
        }
      },
      "setDefaultArbiterFee(uint256)": {
        "details": "Sets the Default Arbiter Fee"
      },
      "setGlobalInterestRate(uint256)": {
        "details": "Sets the Global Interest Rate"
      },
      "setGlobalInterestRateNumerator(uint256)": {
        "details": "Sets the Global Interest Rate Numerator"
      },
      "setInterestUpdateDelay(uint256)": {
        "details": "Sets the Interest Update Delay"
      },
      "setLoans(address)": {
        "details": "Sets Loans contract",
        "params": {
          "loans_": "Address of Loans contract"
        }
      },
      "setMaxInterestRateNumerator(uint256)": {
        "details": "Sets the Maximum Interest Rate Numerator"
      },
      "setMaxUtilizationDelta(uint256)": {
        "details": "Sets the Max Utilization Delta"
      },
      "setMinInterestRateNumerator(uint256)": {
        "details": "Sets the Minimum Interest Rate Numerator"
      },
      "setPubKey(bytes)": {
        "params": {
          "pubKey": "Bitcoin Public Key"
        }
      },
      "setUtilizationInterestDivisor(uint256)": {
        "details": "Sets the Utilization Interest Divisor"
      },
      "update(bytes32,uint256,uint256,address)": {
        "params": {
          "arbiter_": "The address of the arbiter for a Loan fund     *        Note: msg.sender must be the lender of the Loan Fund",
          "fund": "The Id of a Loan Fund",
          "fundExpiry_": "Timestamp when all funds should be removable from Loan Fund",
          "maxLoanDur_": "Maximum length of loan that can be requested from Loan Fund in seconds"
        }
      },
      "updateCustom(bytes32,uint256,uint256,uint256,uint256,uint256,uint256,uint256,uint256,uint256,address)": {
        "params": {
          "arbiter_": "The address of the arbiter for a Loan fund     *        Note: msg.sender must be the lender of the Loan Fund",
          "fee_": "The optional automation fee rate of Loan Fund in RAY per second",
          "fund": "The Id of a Loan Fund",
          "fundExpiry_": "Timestamp when all funds should be removable from Loan Fund",
          "interest_": "The interest rate per second for a Loan Fund in RAY per second",
          "liquidationRatio_": "The liquidation ratio of Loan Fund in RAY",
          "maxLoanAmt_": "Maximum amount of tokens that can be borrowed from Loan Fund",
          "maxLoanDur_": "Maximum length of loan that can be requested from Loan Fund in seconds",
          "minLoanAmt_": "Minimum amount of tokens that can be borrowed from Loan Fund",
          "minLoanDur_": "Minimum length of loan that can be requested from Loan Fund in seconds",
          "penalty_": "The liquidation penalty rate per second for a Loan Fund in RAY per second"
        }
      },
      "withdraw(bytes32,uint256)": {
        "params": {
          "amount": "Amount of tokens to withdraw",
          "fund": "The Id of a Loan Fund"
        }
      }
    }
  },
  "userdoc": {
    "methods": {
      "arbiter(bytes32)": {
        "notice": "Get the arbiter for a Loan Fund"
      },
      "balance(bytes32)": {
        "notice": "Get the current balance of a Loan Fund in tokens"
      },
      "calcGlobalInterest()": {
        "notice": "Calculate and update Global Interest Rate"
      },
      "create(uint256,uint256,address,bool,uint256)": {
        "notice": "Lenders create Loan Fund using Global Protocol parameters and deposit assets"
      },
      "createCustom(uint256,uint256,uint256,uint256,uint256,uint256,uint256,uint256,uint256,address,bool,uint256)": {
        "notice": "Lenders create Loan Fund using Custom parameters and deposit assets"
      },
      "custom(bytes32)": {
        "notice": "Get the custom indicator for a Loan Fund"
      },
      "decreaseTotalBorrow(uint256)": {
        "notice": "Decrease Total Borrow by Loans contract"
      },
      "deposit(bytes32,uint256)": {
        "notice": "Lenders deposit tokens in Loan Fund"
      },
      "disableCompound(bytes32)": {
        "notice": "Disable Compound for Loan Fund"
      },
      "enableCompound(bytes32)": {
        "notice": "Enable Compound for Loan Fund"
      },
      "fee(bytes32)": {
        "notice": "Get the optional automation fee for a Loan Fund"
      },
      "fundExpiry(bytes32)": {
        "notice": "Get maximum loan duration able to be requested by a 'borrower'"
      },
      "generate(bytes32[])": {
        "notice": "Submit secretHashes to be used with future loans"
      },
      "interest(bytes32)": {
        "notice": "Get the interest rate for a Loan Fund"
      },
      "lender(bytes32)": {
        "notice": "Get the lender of a Loan Fund"
      },
      "liquidationRatio(bytes32)": {
        "notice": "Get the liquidation ratio of a Loan Fund"
      },
      "maxLoanAmt(bytes32)": {
        "notice": "Get maximum loan amount able to be requested by a 'borrower'"
      },
      "maxLoanDur(bytes32)": {
        "notice": "Get maximum loan duration able to be requested by a 'borrower'"
      },
      "minLoanAmt(bytes32)": {
        "notice": "Get minimum loan amount able to be requested by a 'borrower'"
      },
      "minLoanDur(bytes32)": {
        "notice": "Get minimum loan duration able to be requested by a 'borrower'"
      },
      "penalty(bytes32)": {
        "notice": "Get the liquidation penalty rate for a Loan Fund"
      },
      "request(bytes32,address,uint256,uint256,uint256,bytes32[8],bytes,bytes)": {
        "notice": "Lenders request loan from Loan Fund on behalf of Borrower"
      },
      "setPubKey(bytes)": {
        "notice": "Set Lender or Arbiter Bitcoin Public Key"
      },
      "update(bytes32,uint256,uint256,address)": {
        "notice": "Users update Loan Fund settings"
      },
      "updateCustom(bytes32,uint256,uint256,uint256,uint256,uint256,uint256,uint256,uint256,uint256,address)": {
        "notice": "Users update custom Loan Fund settings"
      },
      "withdraw(bytes32,uint256)": {
        "notice": "Lenders withdraw tokens in Loan Fund"
      }
    }
  }
}