{
  "contractName": "Loans",
  "abi": [
    {
      "constant": true,
      "inputs": [
        {
          "name": "",
          "type": "bytes32"
        }
      ],
      "name": "tokes",
      "outputs": [
        {
          "name": "",
          "type": "address"
        }
      ],
      "payable": false,
      "stateMutability": "view",
      "type": "function"
    },
    {
      "constant": true,
      "inputs": [],
      "name": "decimals",
      "outputs": [
        {
          "name": "",
          "type": "uint256"
        }
      ],
      "payable": false,
      "stateMutability": "view",
      "type": "function"
    },
    {
      "constant": true,
      "inputs": [],
      "name": "LIQUIDATION_EXP_THRESHOLD",
      "outputs": [
        {
          "name": "",
          "type": "uint256"
        }
      ],
      "payable": false,
      "stateMutability": "view",
      "type": "function"
    },
    {
      "constant": true,
      "inputs": [
        {
          "name": "",
          "type": "address"
        },
        {
          "name": "",
          "type": "uint256"
        }
      ],
      "name": "lenderLoans",
      "outputs": [
        {
          "name": "",
          "type": "bytes32"
        }
      ],
      "payable": false,
      "stateMutability": "view",
      "type": "function"
    },
    {
      "constant": true,
      "inputs": [
        {
          "name": "",
          "type": "bytes32"
        }
      ],
      "name": "bools",
      "outputs": [
        {
          "name": "funded",
          "type": "bool"
        },
        {
          "name": "approved",
          "type": "bool"
        },
        {
          "name": "withdrawn",
          "type": "bool"
        },
        {
          "name": "sale",
          "type": "bool"
        },
        {
          "name": "paid",
          "type": "bool"
        },
        {
          "name": "off",
          "type": "bool"
        }
      ],
      "payable": false,
      "stateMutability": "view",
      "type": "function"
    },
    {
      "constant": true,
      "inputs": [
        {
          "name": "",
          "type": "bytes32"
        }
      ],
      "name": "pubKeys",
      "outputs": [
        {
          "name": "borrowerPubKey",
          "type": "bytes"
        },
        {
          "name": "lenderPubKey",
          "type": "bytes"
        },
        {
          "name": "arbiterPubKey",
          "type": "bytes"
        }
      ],
      "payable": false,
      "stateMutability": "view",
      "type": "function"
    },
    {
      "constant": true,
      "inputs": [],
      "name": "loanIndex",
      "outputs": [
        {
          "name": "",
          "type": "uint256"
        }
      ],
      "payable": false,
      "stateMutability": "view",
      "type": "function"
    },
    {
      "constant": true,
      "inputs": [],
      "name": "LIQUIDATION_DISCOUNT",
      "outputs": [
        {
          "name": "",
          "type": "uint256"
        }
      ],
      "payable": false,
      "stateMutability": "view",
      "type": "function"
    },
    {
      "constant": true,
      "inputs": [],
      "name": "ACCEPT_EXP_THRESHOLD",
      "outputs": [
        {
          "name": "",
          "type": "uint256"
        }
      ],
      "payable": false,
      "stateMutability": "view",
      "type": "function"
    },
    {
      "constant": true,
      "inputs": [
        {
          "name": "",
          "type": "bytes32"
        }
      ],
      "name": "fundIndex",
      "outputs": [
        {
          "name": "",
          "type": "bytes32"
        }
      ],
      "payable": false,
      "stateMutability": "view",
      "type": "function"
    },
    {
      "constant": true,
      "inputs": [],
      "name": "APPROVE_EXP_THRESHOLD",
      "outputs": [
        {
          "name": "",
          "type": "uint256"
        }
      ],
      "payable": false,
      "stateMutability": "view",
      "type": "function"
    },
    {
      "constant": true,
      "inputs": [
        {
          "name": "",
          "type": "bytes32"
        }
      ],
      "name": "loans",
      "outputs": [
        {
          "name": "borrower",
          "type": "address"
        },
        {
          "name": "lender",
          "type": "address"
        },
        {
          "name": "arbiter",
          "type": "address"
        },
        {
          "name": "createdAt",
          "type": "uint256"
        },
        {
          "name": "loanExpiration",
          "type": "uint256"
        },
        {
          "name": "principal",
          "type": "uint256"
        },
        {
          "name": "interest",
          "type": "uint256"
        },
        {
          "name": "penalty",
          "type": "uint256"
        },
        {
          "name": "fee",
          "type": "uint256"
        },
        {
          "name": "collateral",
          "type": "uint256"
        },
        {
          "name": "liquidationRatio",
          "type": "uint256"
        }
      ],
      "payable": false,
      "stateMutability": "view",
      "type": "function"
    },
    {
      "constant": true,
      "inputs": [],
      "name": "SEIZURE_EXP_THRESHOLD",
      "outputs": [
        {
          "name": "",
          "type": "uint256"
        }
      ],
      "payable": false,
      "stateMutability": "view",
      "type": "function"
    },
    {
      "constant": true,
      "inputs": [
        {
          "name": "",
          "type": "bytes32"
        }
      ],
      "name": "secretHashes",
      "outputs": [
        {
          "name": "secretHashA1",
          "type": "bytes32"
        },
        {
          "name": "secretHashB1",
          "type": "bytes32"
        },
        {
          "name": "secretHashC1",
          "type": "bytes32"
        },
        {
          "name": "withdrawSecret",
          "type": "bytes32"
        },
        {
          "name": "acceptSecret",
          "type": "bytes32"
        },
        {
          "name": "set",
          "type": "bool"
        }
      ],
      "payable": false,
      "stateMutability": "view",
      "type": "function"
    },
    {
      "constant": true,
      "inputs": [
        {
          "name": "",
          "type": "address"
        },
        {
          "name": "",
          "type": "uint256"
        }
      ],
      "name": "borrowerLoans",
      "outputs": [
        {
          "name": "",
          "type": "bytes32"
        }
      ],
      "payable": false,
      "stateMutability": "view",
      "type": "function"
    },
    {
      "constant": true,
      "inputs": [
        {
          "name": "",
          "type": "bytes32"
        }
      ],
      "name": "repayments",
      "outputs": [
        {
          "name": "",
          "type": "uint256"
        }
      ],
      "payable": false,
      "stateMutability": "view",
      "type": "function"
    },
    {
      "constant": true,
      "inputs": [
        {
          "name": "x",
          "type": "uint256"
        },
        {
          "name": "y",
          "type": "uint256"
        }
      ],
      "name": "cmul",
      "outputs": [
        {
          "name": "z",
          "type": "uint256"
        }
      ],
      "payable": false,
      "stateMutability": "pure",
      "type": "function"
    },
    {
      "constant": true,
      "inputs": [],
      "name": "token",
      "outputs": [
        {
          "name": "",
          "type": "address"
        }
      ],
      "payable": false,
      "stateMutability": "view",
      "type": "function"
    },
    {
      "inputs": [
        {
          "name": "funds_",
          "type": "address"
        },
        {
          "name": "med_",
          "type": "address"
        },
        {
          "name": "token_",
          "type": "address"
        },
        {
          "name": "decimals_",
          "type": "uint256"
        }
      ],
      "payable": false,
      "stateMutability": "nonpayable",
      "type": "constructor"
    },
    {
      "anonymous": false,
      "inputs": [
        {
          "indexed": false,
          "name": "loan",
          "type": "bytes32"
        }
      ],
      "name": "Create",
      "type": "event"
    },
    {
      "constant": true,
      "inputs": [
        {
          "name": "loan",
          "type": "bytes32"
        }
      ],
      "name": "borrower",
      "outputs": [
        {
          "name": "",
          "type": "address"
        }
      ],
      "payable": false,
      "stateMutability": "view",
      "type": "function"
    },
    {
      "constant": true,
      "inputs": [
        {
          "name": "loan",
          "type": "bytes32"
        }
      ],
      "name": "lender",
      "outputs": [
        {
          "name": "",
          "type": "address"
        }
      ],
      "payable": false,
      "stateMutability": "view",
      "type": "function"
    },
    {
      "constant": true,
      "inputs": [
        {
          "name": "loan",
          "type": "bytes32"
        }
      ],
      "name": "arbiter",
      "outputs": [
        {
          "name": "",
          "type": "address"
        }
      ],
      "payable": false,
      "stateMutability": "view",
      "type": "function"
    },
    {
      "constant": true,
      "inputs": [
        {
          "name": "loan",
          "type": "bytes32"
        }
      ],
      "name": "approveExpiration",
      "outputs": [
        {
          "name": "",
          "type": "uint256"
        }
      ],
      "payable": false,
      "stateMutability": "view",
      "type": "function"
    },
    {
      "constant": true,
      "inputs": [
        {
          "name": "loan",
          "type": "bytes32"
        }
      ],
      "name": "acceptExpiration",
      "outputs": [
        {
          "name": "",
          "type": "uint256"
        }
      ],
      "payable": false,
      "stateMutability": "view",
      "type": "function"
    },
    {
      "constant": true,
      "inputs": [
        {
          "name": "loan",
          "type": "bytes32"
        }
      ],
      "name": "liquidationExpiration",
      "outputs": [
        {
          "name": "",
          "type": "uint256"
        }
      ],
      "payable": false,
      "stateMutability": "view",
      "type": "function"
    },
    {
      "constant": true,
      "inputs": [
        {
          "name": "loan",
          "type": "bytes32"
        }
      ],
      "name": "seizureExpiration",
      "outputs": [
        {
          "name": "",
          "type": "uint256"
        }
      ],
      "payable": false,
      "stateMutability": "view",
      "type": "function"
    },
    {
      "constant": true,
      "inputs": [
        {
          "name": "loan",
          "type": "bytes32"
        }
      ],
      "name": "principal",
      "outputs": [
        {
          "name": "",
          "type": "uint256"
        }
      ],
      "payable": false,
      "stateMutability": "view",
      "type": "function"
    },
    {
      "constant": true,
      "inputs": [
        {
          "name": "loan",
          "type": "bytes32"
        }
      ],
      "name": "interest",
      "outputs": [
        {
          "name": "",
          "type": "uint256"
        }
      ],
      "payable": false,
      "stateMutability": "view",
      "type": "function"
    },
    {
      "constant": true,
      "inputs": [
        {
          "name": "loan",
          "type": "bytes32"
        }
      ],
      "name": "fee",
      "outputs": [
        {
          "name": "",
          "type": "uint256"
        }
      ],
      "payable": false,
      "stateMutability": "view",
      "type": "function"
    },
    {
      "constant": true,
      "inputs": [
        {
          "name": "loan",
          "type": "bytes32"
        }
      ],
      "name": "penalty",
      "outputs": [
        {
          "name": "",
          "type": "uint256"
        }
      ],
      "payable": false,
      "stateMutability": "view",
      "type": "function"
    },
    {
      "constant": true,
      "inputs": [
        {
          "name": "loan",
          "type": "bytes32"
        }
      ],
      "name": "collateral",
      "outputs": [
        {
          "name": "",
          "type": "uint256"
        }
      ],
      "payable": false,
      "stateMutability": "view",
      "type": "function"
    },
    {
      "constant": true,
      "inputs": [
        {
          "name": "loan",
          "type": "bytes32"
        }
      ],
      "name": "repaid",
      "outputs": [
        {
          "name": "",
          "type": "uint256"
        }
      ],
      "payable": false,
      "stateMutability": "view",
      "type": "function"
    },
    {
      "constant": true,
      "inputs": [
        {
          "name": "loan",
          "type": "bytes32"
        }
      ],
      "name": "liquidationRatio",
      "outputs": [
        {
          "name": "",
          "type": "uint256"
        }
      ],
      "payable": false,
      "stateMutability": "view",
      "type": "function"
    },
    {
      "constant": true,
      "inputs": [
        {
          "name": "loan",
          "type": "bytes32"
        }
      ],
      "name": "owedToLender",
      "outputs": [
        {
          "name": "",
          "type": "uint256"
        }
      ],
      "payable": false,
      "stateMutability": "view",
      "type": "function"
    },
    {
      "constant": true,
      "inputs": [
        {
          "name": "loan",
          "type": "bytes32"
        }
      ],
      "name": "owedForLoan",
      "outputs": [
        {
          "name": "",
          "type": "uint256"
        }
      ],
      "payable": false,
      "stateMutability": "view",
      "type": "function"
    },
    {
      "constant": true,
      "inputs": [
        {
          "name": "loan",
          "type": "bytes32"
        }
      ],
      "name": "owedForLiquidation",
      "outputs": [
        {
          "name": "",
          "type": "uint256"
        }
      ],
      "payable": false,
      "stateMutability": "view",
      "type": "function"
    },
    {
      "constant": true,
      "inputs": [
        {
          "name": "loan",
          "type": "bytes32"
        }
      ],
      "name": "owing",
      "outputs": [
        {
          "name": "",
          "type": "uint256"
        }
      ],
      "payable": false,
      "stateMutability": "view",
      "type": "function"
    },
    {
      "constant": true,
      "inputs": [
        {
          "name": "loan",
          "type": "bytes32"
        }
      ],
      "name": "funded",
      "outputs": [
        {
          "name": "",
          "type": "bool"
        }
      ],
      "payable": false,
      "stateMutability": "view",
      "type": "function"
    },
    {
      "constant": true,
      "inputs": [
        {
          "name": "loan",
          "type": "bytes32"
        }
      ],
      "name": "approved",
      "outputs": [
        {
          "name": "",
          "type": "bool"
        }
      ],
      "payable": false,
      "stateMutability": "view",
      "type": "function"
    },
    {
      "constant": true,
      "inputs": [
        {
          "name": "loan",
          "type": "bytes32"
        }
      ],
      "name": "withdrawn",
      "outputs": [
        {
          "name": "",
          "type": "bool"
        }
      ],
      "payable": false,
      "stateMutability": "view",
      "type": "function"
    },
    {
      "constant": true,
      "inputs": [
        {
          "name": "loan",
          "type": "bytes32"
        }
      ],
      "name": "sale",
      "outputs": [
        {
          "name": "",
          "type": "bool"
        }
      ],
      "payable": false,
      "stateMutability": "view",
      "type": "function"
    },
    {
      "constant": true,
      "inputs": [
        {
          "name": "loan",
          "type": "bytes32"
        }
      ],
      "name": "paid",
      "outputs": [
        {
          "name": "",
          "type": "bool"
        }
      ],
      "payable": false,
      "stateMutability": "view",
      "type": "function"
    },
    {
      "constant": true,
      "inputs": [
        {
          "name": "loan",
          "type": "bytes32"
        }
      ],
      "name": "off",
      "outputs": [
        {
          "name": "",
          "type": "bool"
        }
      ],
      "payable": false,
      "stateMutability": "view",
      "type": "function"
    },
    {
      "constant": true,
      "inputs": [
        {
          "name": "x",
          "type": "uint256"
        }
      ],
      "name": "dmul",
      "outputs": [
        {
          "name": "",
          "type": "uint256"
        }
      ],
      "payable": false,
      "stateMutability": "view",
      "type": "function"
    },
    {
      "constant": true,
      "inputs": [
        {
          "name": "x",
          "type": "uint256"
        }
      ],
      "name": "ddiv",
      "outputs": [
        {
          "name": "",
          "type": "uint256"
        }
      ],
      "payable": false,
      "stateMutability": "view",
      "type": "function"
    },
    {
      "constant": true,
      "inputs": [
        {
          "name": "borrower_",
          "type": "address"
        }
      ],
      "name": "borrowerLoanCount",
      "outputs": [
        {
          "name": "",
          "type": "uint256"
        }
      ],
      "payable": false,
      "stateMutability": "view",
      "type": "function"
    },
    {
      "constant": true,
      "inputs": [
        {
          "name": "lender_",
          "type": "address"
        }
      ],
      "name": "lenderLoanCount",
      "outputs": [
        {
          "name": "",
          "type": "uint256"
        }
      ],
      "payable": false,
      "stateMutability": "view",
      "type": "function"
    },
    {
      "constant": true,
      "inputs": [
        {
          "name": "loan",
          "type": "bytes32"
        }
      ],
      "name": "collateralValue",
      "outputs": [
        {
          "name": "",
          "type": "uint256"
        }
      ],
      "payable": false,
      "stateMutability": "view",
      "type": "function"
    },
    {
      "constant": true,
      "inputs": [
        {
          "name": "loan",
          "type": "bytes32"
        }
      ],
      "name": "minCollateralValue",
      "outputs": [
        {
          "name": "",
          "type": "uint256"
        }
      ],
      "payable": false,
      "stateMutability": "view",
      "type": "function"
    },
    {
      "constant": true,
      "inputs": [
        {
          "name": "loan",
          "type": "bytes32"
        }
      ],
      "name": "discountCollateralValue",
      "outputs": [
        {
          "name": "",
          "type": "uint256"
        }
      ],
      "payable": false,
      "stateMutability": "view",
      "type": "function"
    },
    {
      "constant": true,
      "inputs": [
        {
          "name": "loan",
          "type": "bytes32"
        }
      ],
      "name": "safe",
      "outputs": [
        {
          "name": "",
          "type": "bool"
        }
      ],
      "payable": false,
      "stateMutability": "view",
      "type": "function"
    },
    {
      "constant": false,
      "inputs": [
        {
          "name": "sales_",
          "type": "address"
        }
      ],
      "name": "setSales",
      "outputs": [],
      "payable": false,
      "stateMutability": "nonpayable",
      "type": "function"
    },
    {
      "constant": false,
      "inputs": [
        {
          "name": "loanExpiration_",
          "type": "uint256"
        },
        {
          "name": "usrs_",
          "type": "address[3]"
        },
        {
          "name": "vals_",
          "type": "uint256[6]"
        },
        {
          "name": "fundIndex_",
          "type": "bytes32"
        }
      ],
      "name": "create",
      "outputs": [
        {
          "name": "loan",
          "type": "bytes32"
        }
      ],
      "payable": false,
      "stateMutability": "nonpayable",
      "type": "function"
    },
    {
      "constant": false,
      "inputs": [
        {
          "name": "loan",
          "type": "bytes32"
        },
        {
          "name": "borrowerSecretHashes",
          "type": "bytes32[4]"
        },
        {
          "name": "lenderSecretHashes",
          "type": "bytes32[4]"
        },
        {
          "name": "arbiterSecretHashes",
          "type": "bytes32[4]"
        },
        {
          "name": "borrowerPubKey_",
          "type": "bytes"
        },
        {
          "name": "lenderPubKey_",
          "type": "bytes"
        },
        {
          "name": "arbiterPubKey_",
          "type": "bytes"
        }
      ],
      "name": "setSecretHashes",
      "outputs": [
        {
          "name": "",
          "type": "bool"
        }
      ],
      "payable": false,
      "stateMutability": "nonpayable",
      "type": "function"
    },
    {
      "constant": false,
      "inputs": [
        {
          "name": "loan",
          "type": "bytes32"
        }
      ],
      "name": "fund",
      "outputs": [],
      "payable": false,
      "stateMutability": "nonpayable",
      "type": "function"
    },
    {
      "constant": false,
      "inputs": [
        {
          "name": "loan",
          "type": "bytes32"
        }
      ],
      "name": "approve",
      "outputs": [],
      "payable": false,
      "stateMutability": "nonpayable",
      "type": "function"
    },
    {
      "constant": false,
      "inputs": [
        {
          "name": "loan",
          "type": "bytes32"
        },
        {
          "name": "secretA1",
          "type": "bytes32"
        }
      ],
      "name": "withdraw",
      "outputs": [],
      "payable": false,
      "stateMutability": "nonpayable",
      "type": "function"
    },
    {
      "constant": false,
      "inputs": [
        {
          "name": "loan",
          "type": "bytes32"
        },
        {
          "name": "amount",
          "type": "uint256"
        }
      ],
      "name": "repay",
      "outputs": [],
      "payable": false,
      "stateMutability": "nonpayable",
      "type": "function"
    },
    {
      "constant": false,
      "inputs": [
        {
          "name": "loan",
          "type": "bytes32"
        }
      ],
      "name": "refund",
      "outputs": [],
      "payable": false,
      "stateMutability": "nonpayable",
      "type": "function"
    },
    {
      "constant": false,
      "inputs": [
        {
          "name": "loan",
          "type": "bytes32"
        },
        {
          "name": "secret",
          "type": "bytes32"
        }
      ],
      "name": "cancel",
      "outputs": [],
      "payable": false,
      "stateMutability": "nonpayable",
      "type": "function"
    },
    {
      "constant": false,
      "inputs": [
        {
          "name": "loan",
          "type": "bytes32"
        },
        {
          "name": "secret",
          "type": "bytes32"
        }
      ],
      "name": "accept",
      "outputs": [],
      "payable": false,
      "stateMutability": "nonpayable",
      "type": "function"
    },
    {
      "constant": false,
      "inputs": [
        {
          "name": "loan",
          "type": "bytes32"
        },
        {
          "name": "secretHash",
          "type": "bytes32"
        },
        {
          "name": "pubKeyHash",
          "type": "bytes20"
        }
      ],
      "name": "liquidate",
      "outputs": [
        {
          "name": "sale_",
          "type": "bytes32"
        }
      ],
      "payable": false,
      "stateMutability": "nonpayable",
      "type": "function"
    }
  ],
  "bytecode": "0x60806040523480156200001157600080fd5b5060405160808062003757833981018060405260808110156200003357600080fd5b508051602080830151604080850151606090950151600f805433600160a060020a031991821617909155600080548216600160a060020a0380891691909117808355600180548516838916179055600d8054909416828b161793849055600e85905585517f095ea7b3000000000000000000000000000000000000000000000000000000008152908216600482015260001960248201529451979895979596939592169363095ea7b393604480830194919391928390030190829087803b158015620000fe57600080fd5b505af115801562000113573d6000803e3d6000fd5b505050506040513d60208110156200012a57600080fd5b50516200013657600080fd5b5050505061360d806200014a6000396000f3fe608060405234801561001057600080fd5b50600436106103b25760003560e060020a900480637a8cfcb4116101f8578063c52c0c981161011e578063e95823ad116100b1578063f69736e011610080578063f69736e014610d7a578063f7837eb714610d97578063fc0c546a14610dba578063fcfd860514610dc2576103b2565b8063e95823ad14610bf0578063ebd1f26a14610c0d578063ec7a4f4314610c2a578063ee79b12b14610c4d576103b2565b8063df90997b116100ed578063df90997b14610b6d578063e3ed190214610b8a578063e3eff40814610bb6578063e91d14a414610bd3576103b2565b8063c52c0c9814610ad8578063c71230bf14610af5578063c82e428d14610941578063d357691d14610b1b576103b2565b80639fc3f02f11610196578063add89bb211610165578063add89bb214610a14578063ba38c83e14610a31578063bf14c11914610a39578063c4a9081514610a56576103b2565b80639fc3f02f146109a0578063a53a1adf146109bd578063a5d9dc7b146109da578063a6327307146109f7576103b2565b806397bd506d116101d257806397bd506d146109415780639b33997c146109495780639e7c565e146109665780639f9b3d3b14610983576103b2565b80637a8cfcb4146109145780637ff6fecc1461091c57806383f4ca7b14610939576103b2565b80633cdb72f1116102dd578063636151491161027b5780637865c3ad1161024a5780637865c3ad14610753578063787a969c146107705780637888938b146108d15780637a2e18fd146108ee576103b2565b806363615149146106a05780636e1719a6146106c35780637249fbb61461071957806376a0b16614610736576103b2565b806344b6ba95116102b757806344b6ba95146106265780634672d7bf14610643578063531f4c401461066057806359949df414610683576103b2565b80633cdb72f1146105b75780633e4b2a29146105e35780633f6aff3114610600576103b2565b806327cdab0611610355578063313ce56711610324578063313ce5671461055957806332025b69146105615780633823d66c1461057e5780633aaffb78146105af576103b2565b806327cdab06146104ca5780632a428754146104e75780632cdc3c12146105045780632e3b81eb14610521576103b2565b80631594bbbe116103915780631594bbbe146104445780631abc4a781461046157806325a55e7a1461047e57806326fc7590146104ad576103b2565b8062f989ad146103b75780630be1880f146103dc5780630e11247614610415575b600080fd5b6103da600480360360408110156103cd57600080fd5b5080359060200135610ddf565b005b6103f9600480360360208110156103f257600080fd5b5035610f7e565b60408051600160a060020a039092168252519081900360200190f35b6104326004803603602081101561042b57600080fd5b5035610f99565b60408051918252519081900360200190f35b6104326004803603602081101561045a57600080fd5b5035611034565b6104326004803603602081101561047757600080fd5b5035611059565b610432600480360361016081101561049557600080fd5b50803590602081019060808101906101400135611077565b610432600480360360208110156104c357600080fd5b50356112a0565b610432600480360360208110156104e057600080fd5b50356112b5565b6103f9600480360360208110156104fd57600080fd5b50356112ca565b6104326004803603602081101561051a57600080fd5b50356112e5565b6104326004803603606081101561053757600080fd5b50803590602081013590604001356bffffffffffffffffffffffff1916611304565b610432611d53565b6104326004803603602081101561057757600080fd5b5035611d59565b61059b6004803603602081101561059457600080fd5b5035611d70565b604080519115158252519081900360200190f35b610432611d8b565b610432600480360360408110156105cd57600080fd5b50600160a060020a038135169060200135611d92565b610432600480360360208110156105f957600080fd5b5035611dc0565b6104326004803603602081101561061657600080fd5b5035600160a060020a0316611dd2565b6103f96004803603602081101561063c57600080fd5b5035611ded565b61059b6004803603602081101561065957600080fd5b5035611e0b565b6103da6004803603604081101561067657600080fd5b5080359060200135611e27565b61059b6004803603602081101561069957600080fd5b5035612670565b6103da600480360360408110156106b657600080fd5b508035906020013561268e565b6106e0600480360360208110156106d957600080fd5b5035612892565b604080519615158752941515602087015292151585850152901515606085015215156080840152151560a0830152519081900360c00190f35b6103da6004803603602081101561072f57600080fd5b50356128da565b6104326004803603602081101561074c57600080fd5b5035612baa565b61059b6004803603602081101561076957600080fd5b5035612bbf565b61078d6004803603602081101561078657600080fd5b5035612bd9565b60405180806020018060200180602001848103845287818151815260200191508051906020019080838360005b838110156107d25781810151838201526020016107ba565b50505050905090810190601f1680156107ff5780820380516001836020036101000a031916815260200191505b50848103835286518152865160209182019188019080838360005b8381101561083257818101518382015260200161081a565b50505050905090810190601f16801561085f5780820380516001836020036101000a031916815260200191505b50848103825285518152855160209182019187019080838360005b8381101561089257818101518382015260200161087a565b50505050905090810190601f1680156108bf5780820380516001836020036101000a031916815260200191505b50965050505050505060405180910390f35b610432600480360360208110156108e757600080fd5b5035612daa565b6103da6004803603602081101561090457600080fd5b5035600160a060020a0316612dc6565b610432612e22565b6104326004803603602081101561093257600080fd5b5035612e28565b610432612e43565b610432612e4f565b6104326004803603602081101561095f57600080fd5b5035612e56565b6104326004803603602081101561097c57600080fd5b5035612e6d565b61059b6004803603602081101561099957600080fd5b5035612e82565b6103f9600480360360208110156109b657600080fd5b5035612e97565b6103da600480360360208110156109d357600080fd5b5035612eb5565b610432600480360360208110156109f057600080fd5b5035612f2d565b61043260048036036020811015610a0d57600080fd5b5035612f3f565b61059b60048036036020811015610a2a57600080fd5b5035612f5b565b610432612f78565b6103da60048036036020811015610a4f57600080fd5b5035612f7e565b610a7360048036036020811015610a6c57600080fd5b5035613078565b60408051600160a060020a039c8d1681529a8c1660208c015298909a16898901526060890196909652608088019490945260a087019290925260c086015260e08501526101008401526101208301526101408201929092529051908190036101600190f35b61043260048036036020811015610aee57600080fd5b50356130e1565b61043260048036036020811015610b0b57600080fd5b5035600160a060020a03166130f8565b610b3860048036036020811015610b3157600080fd5b5035613113565b6040805196875260208701959095528585019390935260608501919091526080840152151560a0830152519081900360c00190f35b61043260048036036020811015610b8357600080fd5b503561314b565b61043260048036036040811015610ba057600080fd5b50600160a060020a03813516906020013561317b565b61043260048036036020811015610bcc57600080fd5b5035613194565b61043260048036036020811015610be957600080fd5b50356131a9565b61059b60048036036020811015610c0657600080fd5b50356131be565b61043260048036036020811015610c2357600080fd5b50356131da565b6103da60048036036040811015610c4057600080fd5b50803590602001356131ec565b61059b6004803603610200811015610c6457600080fd5b813591602081019160a08201916101208101918101906101c081016101a0820135640100000000811115610c9757600080fd5b820183602082011115610ca957600080fd5b80359060200191846001830284011164010000000083111715610ccb57600080fd5b919390929091602081019035640100000000811115610ce957600080fd5b820183602082011115610cfb57600080fd5b80359060200191846001830284011164010000000083111715610d1d57600080fd5b919390929091602081019035640100000000811115610d3b57600080fd5b820183602082011115610d4d57600080fd5b80359060200191846001830284011164010000000083111715610d6f57600080fd5b5090925090506131f6565b61043260048036036020811015610d9057600080fd5b50356133f3565b61043260048036036040811015610dad57600080fd5b508035906020013561340a565b6103f961343b565b61043260048036036020811015610dd857600080fd5b503561344a565b610de882612670565b15610df257600080fd5b610dfb82611e0b565b15610e0557600080fd5b60008281526006602052604090205462010000900460ff161515600114610e2b57600080fd5b600082815260036020526040902060040154421115610e4957600080fd5b610e5282611d59565b610e6482610e5f85611dc0565b613465565b1115610e6f57600080fd5b600d54604080517f23b872dd000000000000000000000000000000000000000000000000000000008152336004820152306024820152604481018490529051600160a060020a03909216916323b872dd916064808201926020929091908290030181600087803b158015610ee257600080fd5b505af1158015610ef6573d6000803e3d6000fd5b505050506040513d6020811015610f0c57600080fd5b5051610f1757600080fd5b600082815260096020526040902054610f31908290613465565b600083815260096020526040902055610f4982611d59565b610f5283611dc0565b1415610f7a576000828152600660205260409020805464ff0000000019166401000000001790555b5050565b600090815260036020526040902054600160a060020a031690565b600080600160009054906101000a9004600160a060020a0316600160a060020a03166357de26a46040518163ffffffff1660e060020a02815260040160206040518083038186803b158015610fed57600080fd5b505afa158015611001573d6000803e3d6000fd5b505050506040513d602081101561101757600080fd5b5051905061102d8161102885612e6d565b61340a565b9392505050565b600081815260036020526040812060040154611053906202a300613465565b92915050565b60008181526003602081905260408220015461105390611c20613465565b6000811561112657600054604080517f9fc3f02f000000000000000000000000000000000000000000000000000000008152600481018590529051602087810135600160a060020a03908116941692639fc3f02f9260248083019392829003018186803b1580156110e757600080fd5b505afa1580156110fb573d6000803e3d6000fd5b505050506040513d602081101561111157600080fd5b5051600160a060020a03161461112657600080fd5b611133600a546001613465565b600a8190556000818152600360208181526040928390204281840155600481018a9055805473ffffffffffffffffffffffffffffffffffffffff19908116600160a060020a038b35811691909117835560018301805483168c86013583161790556002830180549092168b870135909116179055873560058201559087013560068201559186013560079092019190915590915083906000838152600360209081526040808320938202949094013560088401556080870135600984015560a0870135600a938401556007815283822086905560058152838220600e01805460ff19169055600160a060020a03883581168352600b825284832084548154600181810184559286528486200155898301359091168352600c82528483208454815492830182559084529282902001919091559054825190815291517fa7857d7da6974b0157f3bf7dd25a745bd7d81d845bb525ee0b316a87541a5c319281900390910190a1949350505050565b60009081526003602052604090206007015490565b60009081526003602052604090206008015490565b600860205260009081526040902054600160a060020a031681565b6000818152600360205260408120600401546110539062093a80613465565b600061130f84612670565b1561131957600080fd5b60008481526006602052604090205462010000900460ff16151560011461133f57600080fd5b600084815260036020526040902054600160a060020a031633148015906113805750600084815260036020526040902060010154600160a060020a03163314155b61138957600080fd5b6002546040805160e060020a6302d3af5b028152600481018790529051600160a060020a03909216916302d3af5b91602480820192602092909190829003018186803b1580156113d857600080fd5b505afa1580156113ec573d6000803e3d6000fd5b505050506040513d602081101561140257600080fd5b50516115d55760008481526003602052604090206004015442111561144a57600084815260066020526040902054640100000000900460ff161561144557600080fd5b61145d565b611453846131be565b1561145d57600080fd5b600080548582526007602090815260409283902054835160e760020a6301431c9502815260048101919091529251600160a060020a039092169263a18e4a809260248083019392829003018186803b1580156114b857600080fd5b505afa1580156114cc573d6000803e3d6000fd5b505050506040513d60208110156114e257600080fd5b50516115d057600080548582526003602052604080832060050154815160e160020a637249992b02815260048101919091529051600160a060020a039092169263e49332569260248084019382900301818387803b15801561154357600080fd5b505af1158015611557573d6000803e3d6000fd5b505060008054604080517f33549b1b0000000000000000000000000000000000000000000000000000000081529051600160a060020a0390921694506333549b1b9350600480820193929182900301818387803b1580156115b757600080fd5b505af11580156115cb573d6000803e3d6000fd5b505050505b61193b565b6002546040805160e060020a6302d3af5b028152600481018790529051600392600160a060020a0316916302d3af5b916024808301926020929190829003018186803b15801561162457600080fd5b505afa158015611638573d6000803e3d6000fd5b505050506040513d602081101561164e57600080fd5b50511061165a57600080fd5b6002546040805160e060020a6302d3af5b028152600481018790529051600160a060020a039092169163a6b7d54e918391631a81dcab91899160019185916302d3af5b91602480820192602092909190829003018186803b1580156116be57600080fd5b505afa1580156116d2573d6000803e3d6000fd5b505050506040513d60208110156116e857600080fd5b50516040805160e060020a63ffffffff871602815260048101949094529190036024830152516044808301926020929190829003018186803b15801561172d57600080fd5b505afa158015611741573d6000803e3d6000fd5b505050506040513d602081101561175757600080fd5b50516040805160e060020a63ffffffff85160281526004810192909252516024808301926020929190829003018186803b15801561179457600080fd5b505afa1580156117a8573d6000803e3d6000fd5b505050506040513d60208110156117be57600080fd5b505142116117cb57600080fd5b6002546040805160e060020a6302d3af5b028152600481018790529051600160a060020a0390921691638642afd1918391631a81dcab91899160019185916302d3af5b91602480820192602092909190829003018186803b15801561182f57600080fd5b505afa158015611843573d6000803e3d6000fd5b505050506040513d602081101561185957600080fd5b50516040805160e060020a63ffffffff871602815260048101949094529190036024830152516044808301926020929190829003018186803b15801561189e57600080fd5b505afa1580156118b2573d6000803e3d6000fd5b505050506040513d60208110156118c857600080fd5b50516040805160e060020a63ffffffff85160281526004810192909252516024808301926020929190829003018186803b15801561190557600080fd5b505afa158015611919573d6000803e3d6000fd5b505050506040513d602081101561192f57600080fd5b50511561193b57600080fd5b61194c61194785612daa565b612e28565b600d54604080517f70a082310000000000000000000000000000000000000000000000000000000081523360048201529051600160a060020a03909216916370a0823191602480820192602092909190829003018186803b1580156119b057600080fd5b505afa1580156119c4573d6000803e3d6000fd5b505050506040513d60208110156119da57600080fd5b505110156119e757600080fd5b600d54600254600160a060020a03918216916323b872dd91339116611a0e61194789612daa565b6040805160e060020a63ffffffff8716028152600160a060020a0394851660048201529290931660248301526044820152905160648083019260209291908290030181600087803b158015611a6257600080fd5b505af1158015611a76573d6000803e3d6000fd5b505050506040513d6020811015611a8c57600080fd5b5051611a9757600080fd5b6000848152600560209081526040808320600254825160e060020a6302d3af5b028152600481018a90529251919493600160a060020a03909116926302d3af5b9260248083019392829003018186803b158015611af357600080fd5b505afa158015611b07573d6000803e3d6000fd5b505050506040513d6020811015611b1d57600080fd5b505160028054600089815260036020819052604090912080546001808301549290950154959650600160a060020a0393841695630c4afecf958d959283169493831693929091169133918a019089908110611b7457fe5b0154896005018960038110611b8557fe5b01548a6009018a60038110611b9657fe5b01546040805160e060020a63ffffffff8c160281526004810199909952600160a060020a0397881660248a01529587166044890152938616606488015291909416608486015260a485019390935260c484019290925260e483019190915261010482018990526bffffffffffffffffffffffff198816610124830152516101448083019260209291908290030181600087803b158015611c3557600080fd5b505af1158015611c49573d6000803e3d6000fd5b505050506040513d6020811015611c5f57600080fd5b50516000878152600660205260409020549093506301000000900460ff16611d2a57600d54600254600160a060020a039182169163a9059cbb9116611ca389611dc0565b6040518363ffffffff1660e060020a0281526004018083600160a060020a0316600160a060020a0316815260200182815260200192505050602060405180830381600087803b158015611cf557600080fd5b505af1158015611d09573d6000803e3d6000fd5b505050506040513d6020811015611d1f57600080fd5b5051611d2a57600080fd5b5050600093845260066020526040909320805463ff000000191663010000001790555090919050565b600e5481565b6000611053611d67836133f3565b610e5f846112b5565b60009081526006602052604090205462010000900460ff1690565b62093a8081565b600c6020528160005260406000208181548110611dab57fe5b90600052602060002001600091509150505481565b60009081526009602052604090205490565b600160a060020a03166000908152600c602052604090205490565b600090815260036020526040902060020154600160a060020a031690565b6000908152600660205260409020546301000000900460ff1690565b611e3082612670565b15611e3a57600080fd5b60008281526006602052604090205462010000900460ff161580611e795750600082815260066020526040902054640100000000900460ff1615156001145b611e8257600080fd5b600082815260036020526040902060010154600160a060020a0316331480611ec35750600082815260036020526040902060020154600160a060020a031633145b611ecc57600080fd5b6005600083815260200190815260200160002060040154600282604051602001808281526020019150506040516020818303038152906040526040518082805190602001908083835b60208310611f345780518252601f199092019160209182019101611f15565b51815160209384036101000a60001901801990921691161790526040519190930194509192505080830381855afa158015611f73573d6000803e3d6000fd5b5050506040513d6020811015611f8857600080fd5b5051148061205157506005600083815260200190815260200160002060080154600282604051602001808281526020019150506040516020818303038152906040526040518082805190602001908083835b60208310611ff95780518252601f199092019160209182019101611fda565b51815160209384036101000a60001901801990921691161790526040519190930194509192505080830381855afa158015612038573d6000803e3d6000fd5b5050506040513d602081101561204d57600080fd5b5051145b61205a57600080fd5b61206382611034565b42111561206f57600080fd5b6000828152600660205260409020546301000000900460ff161561209257600080fd5b6000828152600660208181526040808420805465ff0000000000191665010000000000178155600583529320600d01849055525462010000900460ff16612341576000828152600760205260409020546121a457600d546000838152600360209081526040808320600181015460059091015482517fa9059cbb000000000000000000000000000000000000000000000000000000008152600160a060020a0392831660048201526024810191909152915194169363a9059cbb93604480840194938390030190829087803b15801561216a57600080fd5b505af115801561217e573d6000803e3d6000fd5b505050506040513d602081101561219457600080fd5b505161219f57600080fd5b61233c565b600080548382526007602090815260409283902054835160e760020a6301431c9502815260048101919091529251600160a060020a039092169263a18e4a809260248083019392829003018186803b1580156121ff57600080fd5b505afa158015612213573d6000803e3d6000fd5b505050506040513d602081101561222957600080fd5b50516122a357600080548382526003602052604080832060050154815160e160020a637249992b02815260048101919091529051600160a060020a039092169263e49332569260248084019382900301818387803b15801561228a57600080fd5b505af115801561229e573d6000803e3d6000fd5b505050505b600080548382526007602090815260408084205460039092528084206005015481517f1de26e160000000000000000000000000000000000000000000000000000000081526004810193909352602483015251600160a060020a0390921692631de26e169260448084019382900301818387803b15801561232357600080fd5b505af1158015612337573d6000803e3d6000fd5b505050505b610f7a565b60008281526006602052604090205462010000900460ff16151560011415610f7a5760008281526007602052604090205461243357600d54600083815260036020526040902060010154600160a060020a039182169163a9059cbb91166123a7856133f3565b6040518363ffffffff1660e060020a0281526004018083600160a060020a0316600160a060020a0316815260200182815260200192505050602060405180830381600087803b1580156123f957600080fd5b505af115801561240d573d6000803e3d6000fd5b505050506040513d602081101561242357600080fd5b505161242e57600080fd5b6125b8565b600080548382526007602090815260409283902054835160e760020a6301431c9502815260048101919091529251600160a060020a039092169263a18e4a809260248083019392829003018186803b15801561248e57600080fd5b505afa1580156124a2573d6000803e3d6000fd5b505050506040513d60208110156124b857600080fd5b505161253257600080548382526003602052604080832060050154815160e160020a637249992b02815260048101919091529051600160a060020a039092169263e49332569260248084019382900301818387803b15801561251957600080fd5b505af115801561252d573d6000803e3d6000fd5b505050505b600080548382526007602052604090912054600160a060020a0390911690631de26e169061255f856133f3565b6040518363ffffffff1660e060020a0281526004018083815260200182815260200192505050600060405180830381600087803b15801561259f57600080fd5b505af11580156125b3573d6000803e3d6000fd5b505050505b600d54600083815260036020526040902060020154600160a060020a039182169163a9059cbb91166125e9856112b5565b6040518363ffffffff1660e060020a0281526004018083600160a060020a0316600160a060020a0316815260200182815260200192505050602060405180830381600087803b15801561263b57600080fd5b505af115801561264f573d6000803e3d6000fd5b505050506040513d602081101561266557600080fd5b5051610f7a57600080fd5b60009081526006602052604090205465010000000000900460ff1690565b61269782612670565b156126a157600080fd5b60008281526006602052604090205460ff1615156001146126c157600080fd5b60008281526006602052604090205460ff6101009091041615156001146126e757600080fd5b6005600083815260200190815260200160002060000154600282604051602001808281526020019150506040516020818303038152906040526040518082805190602001908083835b6020831061274f5780518252601f199092019160209182019101612730565b51815160209384036101000a60001901801990921691161790526040519190930194509192505080830381855afa15801561278e573d6000803e3d6000fd5b5050506040513d60208110156127a357600080fd5b5051146127af57600080fd5b600d54600083815260036020526040902054600160a060020a039182169163a9059cbb91166127dd85613194565b6040518363ffffffff1660e060020a0281526004018083600160a060020a0316600160a060020a0316815260200182815260200192505050602060405180830381600087803b15801561282f57600080fd5b505af1158015612843573d6000803e3d6000fd5b505050506040513d602081101561285957600080fd5b505161286457600080fd5b6000918252600660209081526040808420805462ff00001916620100001790556005909152909120600c0155565b60066020526000908152604090205460ff8082169161010081048216916201000082048116916301000000810482169164010000000082048116916501000000000090041686565b6128e381612670565b156128ed57600080fd5b6128f681611e0b565b1561290057600080fd5b61290981611034565b421161291457600080fd5b600081815260066020526040902054640100000000900460ff16151560011461293c57600080fd5b600081815260036020526040902054600160a060020a0316331461295f57600080fd5b6000818152600660209081526040808320805465ff0000000000191665010000000000179055600d54600390925290912054600160a060020a039182169163a9059cbb91166129ad84611d59565b6040518363ffffffff1660e060020a0281526004018083600160a060020a0316600160a060020a0316815260200182815260200192505050602060405180830381600087803b1580156129ff57600080fd5b505af1158015612a13573d6000803e3d6000fd5b505050506040513d6020811015612a2957600080fd5b5051612a3457600080fd5b600080548282526007602090815260409283902054835160e760020a6301431c9502815260048101919091529251600160a060020a039092169263a18e4a809260248083019392829003018186803b158015612a8f57600080fd5b505afa158015612aa3573d6000803e3d6000fd5b505050506040513d6020811015612ab957600080fd5b5051612ba757600080548282526003602052604080832060050154815160e160020a637249992b02815260048101919091529051600160a060020a039092169263e49332569260248084019382900301818387803b158015612b1a57600080fd5b505af1158015612b2e573d6000803e3d6000fd5b505060008054604080517f33549b1b0000000000000000000000000000000000000000000000000000000081529051600160a060020a0390921694506333549b1b9350600480820193929182900301818387803b158015612b8e57600080fd5b505af1158015612ba2573d6000803e3d6000fd5b505050505b50565b6000908152600360205260409020600a015490565b600090815260066020526040902054610100900460ff1690565b60046020908152600091825260409182902080548351601f60026000196101006001861615020190931692909204918201849004840281018401909452808452909291839190830182828015612c705780601f10612c4557610100808354040283529160200191612c70565b820191906000526020600020905b815481529060010190602001808311612c5357829003601f168201915b505050505090806001018054600181600116156101000203166002900480601f016020809104026020016040519081016040528092919081815260200182805460018160011615610100020316600290048015612d0e5780601f10612ce357610100808354040283529160200191612d0e565b820191906000526020600020905b815481529060010190602001808311612cf157829003601f168201915b50505060028085018054604080516020601f6000196101006001871615020190941695909504928301859004850281018501909152818152959695945090925090830182828015612da05780601f10612d7557610100808354040283529160200191612da0565b820191906000526020600020905b815481529060010190602001808311612d8357829003601f168201915b5050505050905083565b6000611053612db883610f99565b670ce80612991d0000613475565b600f54600160a060020a03163314612ddd57600080fd5b600254600160a060020a031615612df357600080fd5b6002805473ffffffffffffffffffffffffffffffffffffffff1916600160a060020a0392909216919091179055565b600a5481565b600061105382612e3b6012600e5461349d565b600a0a6134ad565b670ce80612991d000081565b6202a30081565b6000611053612e6483611d59565b610e5f846112a0565b60009081526003602052604090206009015490565b60009081526006602052604090205460ff1690565b600090815260036020526040902060010154600160a060020a031690565b60008181526006602052604090205460ff161515600114612ed557600080fd5b600081815260036020526040902060010154600160a060020a03163314612efb57600080fd5b612f0481611059565b421115612f1057600080fd5b6000908152600660205260409020805461ff001916610100179055565b60076020526000908152604090205481565b6000611053612f4d83611d59565b612f5684611dc0565b61349d565b600090815260066020526040902054640100000000900460ff1690565b611c2081565b6000818152600560205260409020600e015460ff16612f9c57600080fd5b60008181526006602052604090205460ff1615612fb857600080fd5b600d54600160a060020a03166323b872dd3330612fd485613194565b6040805160e060020a63ffffffff8716028152600160a060020a0394851660048201529290931660248301526044820152905160648083019260209291908290030181600087803b15801561302857600080fd5b505af115801561303c573d6000803e3d6000fd5b505050506040513d602081101561305257600080fd5b505161305d57600080fd5b6000908152600660205260409020805460ff19166001179055565b600360208190526000918252604090912080546001820154600283015493830154600484015460058501546006860154600787015460088801546009890154600a90990154600160a060020a039889169a9789169997909816979596949593949293919290918b565b60006110536130ef836112e5565b6202a300613465565b600160a060020a03166000908152600b602052604090205490565b6005602052600090815260409020805460048201546008830154600c840154600d850154600e90950154939492939192909160ff1686565b600061105361316d61316861315f85613194565b612f5686611dc0565b61344a565b61317684612baa565b6134c4565b600b6020528160005260406000208181548110611dab57fe5b60009081526003602052604090206005015490565b60009081526003602052604090206006015490565b60006131c98261314b565b6131d283610f99565b101592915050565b60096020526000908152604090205481565b610f7a8282611e27565b60008a8152600560205260408120600e015460ff161561321557600080fd5b60008b815260036020526040902054600160a060020a0316331480613253575060008b815260036020526040902060010154600160a060020a031633145b806132685750600054600160a060020a031633145b61327157600080fd5b60008b8152600560209081526040918290208c35905581516060810183528c82013581528c830135918101919091529081018b60036020020135815250600560008d81526020019081526020016000206001019060036132d2929190613518565b5060008b81526005602081815260408084208d3560048201558151606080820184528f85013582528f840135828601528f013592810192909252938f90529082905261332392909101906003613518565b5060008b81526005602081815260408084208c3560088201558151606080820184528e85013582528e840135828601528e013592810192909252938f905291905261337391600901906003613518565b5060008b815260046020526040902061338d908888613556565b5060008b81526004602052604090206133aa906001018686613556565b5060008b81526004602052604090206133c7906002018484613556565b5060009a8b5260056020526040909a20600e01805460ff19166001179055509798975050505050505050565b600061105361340183613194565b610e5f846131a9565b60006305f5e10061342c61341e85856134f4565b60026305f5e1005b04613465565b8161343357fe5b049392505050565b600d54600160a060020a031681565b60006110538261345d6012600e5461349d565b600a0a6134f4565b8082018281101561105357600080fd5b6000670de0b6b3a764000061342c61348d85856134f4565b6002670de0b6b3a7640000613426565b8082038281111561105357600080fd5b60008082116134bb57600080fd5b81838161343357fe5b60006b033b2e3c9fd0803ce800000061342c6134e085856134f4565b60026b033b2e3c9fd0803ce8000000613426565b600081158061350f5750508082028282828161350c57fe5b04145b61105357600080fd5b8260038101928215613546579160200282015b8281111561354657825182559160200191906001019061352b565b506135529291506135c4565b5090565b828054600181600116156101000203166002900490600052602060002090601f016020900481019282601f106135975782800160ff19823516178555613546565b82800160010185558215613546579182015b828111156135465782358255916020019190600101906135a9565b6135de91905b8082111561355257600081556001016135ca565b9056fea165627a7a723058209635bd1f815c09235062f1b4554d2aae9be08d286355337bb63919921c3e24740029",
  "source": "import 'openzeppelin-solidity/contracts/token/ERC20/ERC20.sol';\nimport 'openzeppelin-solidity/contracts/math/SafeMath.sol';\n\nimport './Funds.sol';\nimport './Sales.sol';\nimport './DSMath.sol';\nimport './Medianizer.sol';\n\npragma solidity ^0.5.8;\n\ncontract Loans is DSMath {\n    Funds funds;\n    Medianizer med;\n    Sales sales;\n\n    uint256 public constant APPROVE_EXP_THRESHOLD = 2 hours;    // approval expiration threshold\n    uint256 public constant ACCEPT_EXP_THRESHOLD = 2 days;      // acceptance expiration threshold\n    uint256 public constant LIQUIDATION_EXP_THRESHOLD = 7 days; // liquidation expiration threshold\n    uint256 public constant SEIZURE_EXP_THRESHOLD = 2 days;     // seizable expiration threshold\n    uint256 public constant LIQUIDATION_DISCOUNT = 930000000000000000; // 93% (7% discount)\n\n    mapping (bytes32 => Loan)         public loans;\n    mapping (bytes32 => PubKeys)      public pubKeys;      // PubKeys\n    mapping (bytes32 => SecretHashes) public secretHashes; // Secret Hashes\n    mapping (bytes32 => Bools)        public bools;        // Boolean state of Loan\n    mapping (bytes32 => bytes32)      public fundIndex;    // Mapping of Loan Index to Fund Index\n    mapping (bytes32 => ERC20)        public tokes;        // Mapping of Loan index to Token contract\n    mapping (bytes32 => uint256)      public repayments;   // Amount paid back in a Loan\n    uint256                           public loanIndex;    // Current Loan Index\n\n    mapping (address => bytes32[])    public borrowerLoans;\n    mapping (address => bytes32[])    public lenderLoans;\n\n    ERC20 public token; // ERC20 Debt Stablecoin\n    uint256 public decimals;\n\n    address deployer;\n\n    /**\n     * @notice Container for loan information\n     * @member borrower The address of the borrower\n     * @member lender The address of the lender\n     * @member arbiter The address of the arbiter\n     * @member createAt The creation timestamp of the loan\n     * @member loanExpiration The timestamp for the end of the loan\n     * @member principal The amount of principal in tokens to be paid back at the end of the loan\n     * @member interest The amount of interest in tokens to be paid back by the end of the loan\n     * @member penalty The amount of tokens to be paid as a penalty for defaulting or allowing the loan to be liquidated\n     * @member fee The amount of tokens paid to the arbiter\n     * @member collateral The amount of collateral in satoshis\n     * @member liquidationRatio The ratio of collateral to debt where the loan can be liquidated\n     */\n    struct Loan {\n    \taddress borrower;\n        address lender;\n        address arbiter;\n        uint256 createdAt;\n        uint256 loanExpiration;\n        uint256 principal;\n        uint256 interest;\n        uint256 penalty;\n        uint256 fee;\n        uint256 collateral;\n        uint256 liquidationRatio;\n    }\n\n    /**\n     * @notice Container for Bitcoin public key information\n     * @member borrowerPubKey Borrower Bitcoin Public Key\n     * @member lenderPubKey Lender Bitcoin Public Key\n     * @member arbiterPubKey Arbiter Bitcoin Public Key\n     *\n     *         Note: This struct is unnecessary for the Ethereum\n     *               contract itself, but is used as a point of \n     *               reference for generating the correct P2SH for\n     *               locking Bitcoin collateral\n     */\n    struct PubKeys {\n        bytes   borrowerPubKey;\n        bytes   lenderPubKey;\n        bytes   arbiterPubKey;\n    }\n\n    /**\n     * @notice Container for borrower, lender, and arbiter Secret Hashes\n     * @member secretHashA1 Borrower Secret Hash for the loan\n     * @member secretHashAs Borrower Secret Hashes for up to three liquidations\n     * @member secretHashB1 Lender Secret Hash for the loan\n     * @member secretHashBs Lender Secret Hashes for up to three liquidations\n     * @member secretHashC1 Arbiter Secret Hash for the loan\n     * @member secretHashCs Arbiter Secret Hashes for up to three liquidations\n     * @member withdrawSecret Secret A1 when revealed by borrower\n     * @member acceptSecret Secret B1 or Secret C1 when revelaed by the lender or arbiter\n     * @member set Secret Hashes set for particular loan\n     */\n    struct SecretHashes {\n    \tbytes32    secretHashA1;\n    \tbytes32[3] secretHashAs;\n    \tbytes32    secretHashB1;\n    \tbytes32[3] secretHashBs;\n    \tbytes32    secretHashC1;\n    \tbytes32[3] secretHashCs;\n        bytes32    withdrawSecret;\n        bytes32    acceptSecret;\n    \tbool       set;\n    }\n\n    /**\n     * @notice Container for states of loan agreement\n     * @member funded Indicates that the loan has been funded with tokens\n     * @member approved Indicates that the lender has approved locking of the Bitcoin collateral\n     * @member withdrawn Indicates that the borrower has withdrawn the tokens from the contract\n     * @member sale Indicates that the collateral liquidation process has started\n     * @member paid Indicates that the loan has been repaid\n     * @member off Indicates that the loan has been cancelled or the loan repayment has been accepted\n     */\n    struct Bools {\n    \tbool funded;\n    \tbool approved;\n    \tbool withdrawn;\n    \tbool sale;\n    \tbool paid;\n    \tbool off;\n    }\n\n    event Create(bytes32 loan);\n\n    function borrower(bytes32 loan) public view returns (address) {\n        return loans[loan].borrower;\n    }\n\n    function lender(bytes32 loan) public view returns (address) {\n        return loans[loan].lender;\n    }\n\n    function arbiter(bytes32 loan)  public view returns (address) {\n        return loans[loan].arbiter;\n    }\n\n    function approveExpiration(bytes32 loan) public view returns (uint256) { // Approval Expiration\n        return add(loans[loan].createdAt, APPROVE_EXP_THRESHOLD);\n    }\n\n    // TODO: add loanExpiration\n\n    function acceptExpiration(bytes32 loan) public view returns (uint256) { // Acceptance Expiration\n        return add(loans[loan].loanExpiration, ACCEPT_EXP_THRESHOLD);\n    }\n\n    function liquidationExpiration(bytes32 loan) public view returns (uint256) { // Liquidation Expiration\n        return add(loans[loan].loanExpiration, LIQUIDATION_EXP_THRESHOLD);\n    }\n\n    function seizureExpiration(bytes32 loan) public view returns (uint256) {\n        return add(liquidationExpiration(loan), SEIZURE_EXP_THRESHOLD);\n    }\n\n    function principal(bytes32 loan) public view returns (uint256) {\n        return loans[loan].principal;\n    }\n\n    function interest(bytes32 loan) public view returns (uint256) {\n        return loans[loan].interest;\n    }\n\n    function fee(bytes32 loan) public view returns (uint256) {\n        return loans[loan].fee;\n    }\n\n    function penalty(bytes32 loan) public view returns (uint256) {\n        return loans[loan].penalty;\n    }\n\n    function collateral(bytes32 loan) public view returns (uint256) {\n        return loans[loan].collateral;\n    }\n\n    function repaid(bytes32 loan) public view returns (uint256) { // Amount paid back for loan\n        return repayments[loan];\n    }\n\n    function liquidationRatio(bytes32 loan) public view returns (uint256) {\n        return loans[loan].liquidationRatio;\n    }\n\n    function owedToLender(bytes32 loan) public view returns (uint256) { // Amount lent by Lender\n        return add(principal(loan), interest(loan));\n    }\n\n    function owedForLoan(bytes32 loan) public view returns (uint256) { // Amount owed\n        return add(owedToLender(loan), fee(loan));\n    }\n\n    function owedForLiquidation(bytes32 loan) public view returns (uint256) { // Deductible amount from collateral\n        return add(owedForLoan(loan), penalty(loan));\n    }\n\n    function owing(bytes32 loan) public view returns (uint256) {\n        return sub(owedForLoan(loan), repaid(loan));\n    }\n\n    function funded(bytes32 loan) public view returns (bool) {\n        return bools[loan].funded;\n    }\n\n    function approved(bytes32 loan) public view returns (bool) {\n        return bools[loan].approved;\n    }\n\n    function withdrawn(bytes32 loan) public view returns (bool) {\n        return bools[loan].withdrawn;\n    }\n\n    function sale(bytes32 loan) public view returns (bool) {\n        return bools[loan].sale;\n    }\n\n    function paid(bytes32 loan) public view returns (bool) {\n        return bools[loan].paid;\n    }\n\n    function off(bytes32 loan) public view returns (bool) {\n        return bools[loan].off;\n    }\n\n    function dmul(uint x) public view returns (uint256) {\n        return mul(x, (10 ** sub(18, decimals)));\n    }\n\n    function ddiv(uint x) public view returns (uint256) {\n        return div(x, (10 ** sub(18, decimals)));\n    }\n\n    function borrowerLoanCount(address borrower_) public view returns (uint256) {\n        return borrowerLoans[borrower_].length;\n    }\n\n    function lenderLoanCount(address lender_) public view returns (uint256) {\n        return lenderLoans[lender_].length;\n    }\n\n    function collateralValue(bytes32 loan) public view returns (uint256) { // Current Collateral Value\n        uint256 val = uint(med.read());\n        return cmul(val, collateral(loan)); // Multiply value dependent on number of decimals with currency\n    }\n\n    function minCollateralValue(bytes32 loan) public view returns (uint256) {  // Minimum Collateral Value\n        return rmul(dmul(sub(principal(loan), repaid(loan))), liquidationRatio(loan));\n    }\n\n    function discountCollateralValue(bytes32 loan) public view returns (uint256) {\n        return wmul(collateralValue(loan), LIQUIDATION_DISCOUNT);\n    }\n\n    function safe(bytes32 loan) public view returns (bool) { // Loan is safe from Liquidation\n        return collateralValue(loan) >= minCollateralValue(loan);\n    }\n\n    constructor (Funds funds_, Medianizer med_, ERC20 token_, uint256 decimals_) public {\n        deployer = msg.sender;\n    \tfunds    = funds_;\n    \tmed      = med_;\n        token    = token_;\n        decimals = decimals_;\n        require(token.approve(address(funds), 2**256-1));\n    }\n\n    /**\n     * @dev Sets Sales contract\n     * @param sales_ Address of Sales contract\n     */\n    function setSales(Sales sales_) external {\n        require(msg.sender == deployer);\n        require(address(sales) == address(0));\n        sales = sales_;\n    }\n    \n    /**\n     * @notice Creates a new loan agreement\n     * @param loanExpiration_ The timestamp for the end of the loan\n     * @param usrs_ Array of three addresses containing the borrower, lender, and optional arbiter address\n     * @param vals_ Array of six uints containing loan principal, interest, liquidation penalty, optional arbiter fee, collateral amount, liquidation ratio\n     * @param fundIndex_ The optional Fund Index\n     */\n    function create(\n        uint256             loanExpiration_,\n        address[3] calldata usrs_,\n        uint256[6] calldata vals_,\n        bytes32             fundIndex_\n    ) external returns (bytes32 loan) {\n        if (fundIndex_ != bytes32(0)) { require(funds.lender(fundIndex_) == usrs_[1]); }\n        loanIndex = add(loanIndex, 1);\n        loan = bytes32(loanIndex);\n        loans[loan].createdAt        = now;\n        loans[loan].loanExpiration   = loanExpiration_;\n        loans[loan].borrower         = usrs_[0];\n        loans[loan].lender           = usrs_[1];\n        loans[loan].arbiter          = usrs_[2];\n        loans[loan].principal        = vals_[0];\n        loans[loan].interest         = vals_[1];\n        loans[loan].penalty          = vals_[2];\n        loans[loan].fee              = vals_[3];\n        loans[loan].collateral       = vals_[4];\n        loans[loan].liquidationRatio = vals_[5];\n        fundIndex[loan]              = fundIndex_;\n        secretHashes[loan].set       = false;\n        borrowerLoans[usrs_[0]].push(bytes32(loanIndex));\n        lenderLoans[usrs_[1]].push(bytes32(loanIndex));\n\n        emit Create(bytes32(loanIndex));\n    }\n\n    /**\n     * @notice Set Secret Hashes for loan agreement\n     * @param loan The Id of the Loan\n     * @param borrowerSecretHashes Borrower secret hashes\n     * @param lenderSecretHashes Lender secret hashes\n     * @param arbiterSecretHashes Arbiter secret hashes\n     * @param borrowerPubKey_ Borrower Bitcoin Public Key\n     * @param lenderPubKey_ Lender Bitcoin Public Key\n     * @param arbiterPubKey_ Arbiter Bitcoin Public Key\n     */\n    function setSecretHashes(\n    \tbytes32             loan,\n        bytes32[4] calldata borrowerSecretHashes,\n        bytes32[4] calldata lenderSecretHashes,\n        bytes32[4] calldata arbiterSecretHashes,\n\t\tbytes      calldata borrowerPubKey_,\n        bytes      calldata lenderPubKey_,\n        bytes      calldata arbiterPubKey_\n\t) external returns (bool) {\n\t\trequire(!secretHashes[loan].set);\n\t\trequire(msg.sender == loans[loan].borrower || msg.sender == loans[loan].lender || msg.sender == address(funds));\n\t\tsecretHashes[loan].secretHashA1 = borrowerSecretHashes[0];\n\t\tsecretHashes[loan].secretHashAs = [ borrowerSecretHashes[1], borrowerSecretHashes[2], borrowerSecretHashes[3] ];\n\t\tsecretHashes[loan].secretHashB1 = lenderSecretHashes[0];\n\t\tsecretHashes[loan].secretHashBs = [ lenderSecretHashes[1], lenderSecretHashes[2], lenderSecretHashes[3] ];\n\t\tsecretHashes[loan].secretHashC1 = arbiterSecretHashes[0];\n\t\tsecretHashes[loan].secretHashCs = [ arbiterSecretHashes[1], arbiterSecretHashes[2], arbiterSecretHashes[3] ];\n\t\tpubKeys[loan].borrowerPubKey    = borrowerPubKey_;\n\t\tpubKeys[loan].lenderPubKey      = lenderPubKey_;\n        pubKeys[loan].arbiterPubKey       = arbiterPubKey_;\n        secretHashes[loan].set          = true;\n\t}\n\n    /**\n     * @notice Lender sends tokens to the loan agreement\n     * @param loan The Id of the Loan\n     */\n\tfunction fund(bytes32 loan) external {\n\t\trequire(secretHashes[loan].set);\n    \trequire(bools[loan].funded == false);\n    \trequire(token.transferFrom(msg.sender, address(this), principal(loan)));\n    \tbools[loan].funded = true;\n    }\n\n    /**\n     * @notice Lender approves locking of Bitcoin collateral\n     * @param loan The Id of the Loan\n     */\n    function approve(bytes32 loan) external { // Approve locking of collateral\n    \trequire(bools[loan].funded == true);\n    \trequire(loans[loan].lender == msg.sender);\n    \trequire(now                <= approveExpiration(loan));\n    \tbools[loan].approved = true;\n    }\n\n    /**\n     * @notice Borrower withdraws loan\n     * @param loan The Id of the Loan\n     * @param secretA1 Secret A1 provided by the borrower\n     */\n    function withdraw(bytes32 loan, bytes32 secretA1) external {\n    \trequire(!off(loan));\n    \trequire(bools[loan].funded == true);\n    \trequire(bools[loan].approved == true);\n    \trequire(sha256(abi.encodePacked(secretA1)) == secretHashes[loan].secretHashA1);\n    \trequire(token.transfer(loans[loan].borrower, principal(loan)));\n    \tbools[loan].withdrawn = true;\n        secretHashes[loan].withdrawSecret = secretA1;\n    }\n\n    /**\n     * @notice Lender sends tokens to the loan agreement\n     * @param loan The Id of the Loan\n     * @param amount The amount of tokens to repay\n     *\n     *        Note: Anyone can repay the loan\n     */\n    function repay(bytes32 loan, uint256 amount) external {\n    \trequire(!off(loan));\n        require(!sale(loan));\n    \trequire(bools[loan].withdrawn     == true);\n    \trequire(now                       <= loans[loan].loanExpiration);\n        require(add(amount, repaid(loan)) <= owedForLoan(loan));\n    \trequire(token.transferFrom(msg.sender, address(this), amount));\n    \trepayments[loan] = add(amount, repayments[loan]);\n    \tif (repaid(loan) == owedForLoan(loan)) {\n    \t\tbools[loan].paid = true;\n    \t}\n    }\n\n    /**\n     * @notice Borrower refunds tokens in the case that Lender doesn't accept loan repayment\n     * @dev Send tokens back to the Borrower, and close Loan\n     * @param loan The Id of the Loan\n     *\n     *        Note: If Lender does not accept repayment, liquidation cannot occur\n     */\n    function refund(bytes32 loan) external {\n    \trequire(!off(loan));\n        require(!sale(loan));\n    \trequire(now              >  acceptExpiration(loan));\n    \trequire(bools[loan].paid == true);\n    \trequire(msg.sender       == loans[loan].borrower);\n        bools[loan].off = true;\n    \trequire(token.transfer(loans[loan].borrower, owedForLoan(loan)));\n        if (funds.custom(fundIndex[loan]) == false) {\n            funds.decreaseTotalBorrow(loans[loan].principal);\n            funds.calcGlobalInterest();\n        }\n    }\n\n    /**\n     * @notice Lender cancels loan after Borrower locks collateral\n     * @dev Lender cancels loan and principal is sent back to the Lender / Loan Fund\n     * @param loan The Id of the Loan\n     * @param secret Secret B1 revealed by the Lender\n     */\n    function cancel(bytes32 loan, bytes32 secret) external {\n        accept(loan, secret);\n    }\n\n    /**\n     * @notice Lender accepts loan repayment\n     * @dev Lender accepts loan repayment and principal + interest are sent back to the Lender / Loan Fund\n     * @param loan The Id of the Loan\n     * @param secret Secret B1 revealed by the Lender\n     */\n    function accept(bytes32 loan, bytes32 secret) public {\n        require(!off(loan));\n        require(bools[loan].withdrawn == false   || bools[loan].paid == true);\n        require(msg.sender == loans[loan].lender || msg.sender == loans[loan].arbiter);\n        require(sha256(abi.encodePacked(secret)) == secretHashes[loan].secretHashB1 || sha256(abi.encodePacked(secret)) == secretHashes[loan].secretHashC1);\n        require(now                              <= acceptExpiration(loan));\n        require(bools[loan].sale                 == false);\n        bools[loan].off = true;\n        secretHashes[loan].acceptSecret = secret;\n        if (bools[loan].withdrawn == false) {\n            if (fundIndex[loan] == bytes32(0)) {\n                require(token.transfer(loans[loan].lender, loans[loan].principal));\n            } else {\n                if (funds.custom(fundIndex[loan]) == false) {\n                    funds.decreaseTotalBorrow(loans[loan].principal);\n                }\n                funds.deposit(fundIndex[loan], loans[loan].principal);\n            }\n        } else if (bools[loan].withdrawn == true) {\n            if (fundIndex[loan] == bytes32(0)) {\n                require(token.transfer(loans[loan].lender, owedToLender(loan)));\n            } else {\n                if (funds.custom(fundIndex[loan]) == false) {\n                    funds.decreaseTotalBorrow(loans[loan].principal);\n                }\n                funds.deposit(fundIndex[loan], owedToLender(loan));\n            }\n            require(token.transfer(loans[loan].arbiter, fee(loan)));\n        }\n    }\n\n    /**\n     * @notice Any third party starts liquidation of the Bitcoin collateral by providing tokens with the intention to buy at a discount\n     * @param loan The Id of the Loan\n     * @param secretHash The Secret Hash D1 provided by the liquidator\n     * @param pubKeyHash The Bitcoin Public Key Hash of the liquidator\n     * @return sale_ The Id of the Sale (Liquidation)\n     */\n    function liquidate(bytes32 loan, bytes32 secretHash, bytes20 pubKeyHash) external returns (bytes32 sale_) {\n    \trequire(!off(loan));\n        require(bools[loan].withdrawn == true);\n        require(msg.sender != loans[loan].borrower && msg.sender != loans[loan].lender);\n    \tif (sales.next(loan) == 0) {\n    \t\tif (now > loans[loan].loanExpiration) {\n\t    \t\trequire(bools[loan].paid == false);\n\t\t\t} else {\n\t\t\t\trequire(!safe(loan));\n\t\t\t}\n            if (funds.custom(fundIndex[loan]) == false) {\n                funds.decreaseTotalBorrow(loans[loan].principal);\n                funds.calcGlobalInterest();\n            }\n\t\t} else {\n\t\t\trequire(sales.next(loan) < 3);\n            require(now > sales.settlementExpiration(sales.saleIndexByLoan(loan, sales.next(loan) - 1))); // Can only start liquidation after settlement expiration of pervious liquidation\n            require(!sales.accepted(sales.saleIndexByLoan(loan, sales.next(loan) - 1))); // Can only start liquidation again if previous liquidation discountBuy wasn't taken\n\t\t}\n        require(token.balanceOf(msg.sender) >= ddiv(discountCollateralValue(loan)));\n        require(token.transferFrom(msg.sender, address(sales), ddiv(discountCollateralValue(loan))));\n        SecretHashes storage h = secretHashes[loan];\n        uint256 i = sales.next(loan);\n\t\tsale_ = sales.create(loan, loans[loan].borrower, loans[loan].lender, loans[loan].arbiter, msg.sender, h.secretHashAs[i], h.secretHashBs[i], h.secretHashCs[i], secretHash, pubKeyHash);\n        if (bools[loan].sale == false) { require(token.transfer(address(sales), repaid(loan))); }\n\t\tbools[loan].sale = true;\n    }\n}\n",
  "sourcePath": "/Users/matthewblack/atomicloans/atomicloans-eth-contracts/contracts/Loans.sol",
  "compiler": {
    "name": "solc",
    "version": "0.5.8+commit.23d335f2.Emscripten.clang"
  },
  "schemaVersion": "3.0.16",
  "updatedAt": "2019-09-13T20:18:11.807Z",
  "devdoc": {
    "methods": {
      "accept(bytes32,bytes32)": {
        "details": "Lender accepts loan repayment and principal + interest are sent back to the Lender / Loan Fund",
        "params": {
          "loan": "The Id of the Loan",
          "secret": "Secret B1 revealed by the Lender"
        }
      },
      "approve(bytes32)": {
        "params": {
          "loan": "The Id of the Loan"
        }
      },
      "cancel(bytes32,bytes32)": {
        "details": "Lender cancels loan and principal is sent back to the Lender / Loan Fund",
        "params": {
          "loan": "The Id of the Loan",
          "secret": "Secret B1 revealed by the Lender"
        }
      },
      "create(uint256,address[3],uint256[6],bytes32)": {
        "params": {
          "fundIndex_": "The optional Fund Index",
          "loanExpiration_": "The timestamp for the end of the loan",
          "usrs_": "Array of three addresses containing the borrower, lender, and optional arbiter address",
          "vals_": "Array of six uints containing loan principal, interest, liquidation penalty, optional arbiter fee, collateral amount, liquidation ratio"
        }
      },
      "fund(bytes32)": {
        "params": {
          "loan": "The Id of the Loan"
        }
      },
      "liquidate(bytes32,bytes32,bytes20)": {
        "params": {
          "loan": "The Id of the Loan",
          "pubKeyHash": "The Bitcoin Public Key Hash of the liquidator",
          "secretHash": "The Secret Hash D1 provided by the liquidator"
        },
        "return": "sale_ The Id of the Sale (Liquidation)"
      },
      "refund(bytes32)": {
        "details": "Send tokens back to the Borrower, and close Loan",
        "params": {
          "loan": "The Id of the Loan     *        Note: If Lender does not accept repayment, liquidation cannot occur"
        }
      },
      "repay(bytes32,uint256)": {
        "params": {
          "amount": "The amount of tokens to repay     *        Note: Anyone can repay the loan",
          "loan": "The Id of the Loan"
        }
      },
      "setSales(address)": {
        "details": "Sets Sales contract",
        "params": {
          "sales_": "Address of Sales contract"
        }
      },
      "setSecretHashes(bytes32,bytes32[4],bytes32[4],bytes32[4],bytes,bytes,bytes)": {
        "params": {
          "arbiterPubKey_": "Arbiter Bitcoin Public Key",
          "arbiterSecretHashes": "Arbiter secret hashes",
          "borrowerPubKey_": "Borrower Bitcoin Public Key",
          "borrowerSecretHashes": "Borrower secret hashes",
          "lenderPubKey_": "Lender Bitcoin Public Key",
          "lenderSecretHashes": "Lender secret hashes",
          "loan": "The Id of the Loan"
        }
      },
      "withdraw(bytes32,bytes32)": {
        "params": {
          "loan": "The Id of the Loan",
          "secretA1": "Secret A1 provided by the borrower"
        }
      }
    }
  },
  "userdoc": {
    "methods": {
      "accept(bytes32,bytes32)": {
        "notice": "Lender accepts loan repayment"
      },
      "approve(bytes32)": {
        "notice": "Lender approves locking of Bitcoin collateral"
      },
      "cancel(bytes32,bytes32)": {
        "notice": "Lender cancels loan after Borrower locks collateral"
      },
      "create(uint256,address[3],uint256[6],bytes32)": {
        "notice": "Creates a new loan agreement"
      },
      "fund(bytes32)": {
        "notice": "Lender sends tokens to the loan agreement"
      },
      "liquidate(bytes32,bytes32,bytes20)": {
        "notice": "Any third party starts liquidation of the Bitcoin collateral by providing tokens with the intention to buy at a discount"
      },
      "refund(bytes32)": {
        "notice": "Borrower refunds tokens in the case that Lender doesn't accept loan repayment"
      },
      "repay(bytes32,uint256)": {
        "notice": "Lender sends tokens to the loan agreement"
      },
      "setSecretHashes(bytes32,bytes32[4],bytes32[4],bytes32[4],bytes,bytes,bytes)": {
        "notice": "Set Secret Hashes for loan agreement"
      },
      "withdraw(bytes32,bytes32)": {
        "notice": "Borrower withdraws loan"
      }
    }
  }
}