{
  "contractName": "Loans",
  "abi": [
    {
      "constant": true,
      "inputs": [
        {
          "name": "",
          "type": "bytes32"
        }
      ],
      "name": "tokes",
      "outputs": [
        {
          "name": "",
          "type": "address"
        }
      ],
      "payable": false,
      "stateMutability": "view",
      "type": "function"
    },
    {
      "constant": true,
      "inputs": [],
      "name": "decimals",
      "outputs": [
        {
          "name": "",
          "type": "uint256"
        }
      ],
      "payable": false,
      "stateMutability": "view",
      "type": "function"
    },
    {
      "constant": true,
      "inputs": [],
      "name": "LIQUIDATION_EXP_THRESHOLD",
      "outputs": [
        {
          "name": "",
          "type": "uint256"
        }
      ],
      "payable": false,
      "stateMutability": "view",
      "type": "function"
    },
    {
      "constant": true,
      "inputs": [
        {
          "name": "",
          "type": "bytes32"
        }
      ],
      "name": "bools",
      "outputs": [
        {
          "name": "funded",
          "type": "bool"
        },
        {
          "name": "approved",
          "type": "bool"
        },
        {
          "name": "withdrawn",
          "type": "bool"
        },
        {
          "name": "sale",
          "type": "bool"
        },
        {
          "name": "paid",
          "type": "bool"
        },
        {
          "name": "off",
          "type": "bool"
        }
      ],
      "payable": false,
      "stateMutability": "view",
      "type": "function"
    },
    {
      "constant": true,
      "inputs": [
        {
          "name": "",
          "type": "bytes32"
        }
      ],
      "name": "pubKeys",
      "outputs": [
        {
          "name": "borrowerPubKey",
          "type": "bytes"
        },
        {
          "name": "lenderPubKey",
          "type": "bytes"
        },
        {
          "name": "arbiterPubKey",
          "type": "bytes"
        }
      ],
      "payable": false,
      "stateMutability": "view",
      "type": "function"
    },
    {
      "constant": true,
      "inputs": [],
      "name": "loanIndex",
      "outputs": [
        {
          "name": "",
          "type": "uint256"
        }
      ],
      "payable": false,
      "stateMutability": "view",
      "type": "function"
    },
    {
      "constant": true,
      "inputs": [],
      "name": "LIQUIDATION_DISCOUNT",
      "outputs": [
        {
          "name": "",
          "type": "uint256"
        }
      ],
      "payable": false,
      "stateMutability": "view",
      "type": "function"
    },
    {
      "constant": true,
      "inputs": [],
      "name": "ACCEPT_EXP_THRESHOLD",
      "outputs": [
        {
          "name": "",
          "type": "uint256"
        }
      ],
      "payable": false,
      "stateMutability": "view",
      "type": "function"
    },
    {
      "constant": true,
      "inputs": [
        {
          "name": "",
          "type": "bytes32"
        }
      ],
      "name": "fundIndex",
      "outputs": [
        {
          "name": "",
          "type": "bytes32"
        }
      ],
      "payable": false,
      "stateMutability": "view",
      "type": "function"
    },
    {
      "constant": true,
      "inputs": [],
      "name": "APPROVE_EXP_THRESHOLD",
      "outputs": [
        {
          "name": "",
          "type": "uint256"
        }
      ],
      "payable": false,
      "stateMutability": "view",
      "type": "function"
    },
    {
      "constant": true,
      "inputs": [
        {
          "name": "",
          "type": "bytes32"
        }
      ],
      "name": "loans",
      "outputs": [
        {
          "name": "borrower",
          "type": "address"
        },
        {
          "name": "lender",
          "type": "address"
        },
        {
          "name": "arbiter",
          "type": "address"
        },
        {
          "name": "createdAt",
          "type": "uint256"
        },
        {
          "name": "loanExpiration",
          "type": "uint256"
        },
        {
          "name": "principal",
          "type": "uint256"
        },
        {
          "name": "interest",
          "type": "uint256"
        },
        {
          "name": "penalty",
          "type": "uint256"
        },
        {
          "name": "fee",
          "type": "uint256"
        },
        {
          "name": "collateral",
          "type": "uint256"
        },
        {
          "name": "liquidationRatio",
          "type": "uint256"
        }
      ],
      "payable": false,
      "stateMutability": "view",
      "type": "function"
    },
    {
      "constant": true,
      "inputs": [],
      "name": "SEIZURE_EXP_THRESHOLD",
      "outputs": [
        {
          "name": "",
          "type": "uint256"
        }
      ],
      "payable": false,
      "stateMutability": "view",
      "type": "function"
    },
    {
      "constant": true,
      "inputs": [
        {
          "name": "",
          "type": "bytes32"
        }
      ],
      "name": "secretHashes",
      "outputs": [
        {
          "name": "secretHashA1",
          "type": "bytes32"
        },
        {
          "name": "secretHashB1",
          "type": "bytes32"
        },
        {
          "name": "secretHashC1",
          "type": "bytes32"
        },
        {
          "name": "withdrawSecret",
          "type": "bytes32"
        },
        {
          "name": "acceptSecret",
          "type": "bytes32"
        },
        {
          "name": "set",
          "type": "bool"
        }
      ],
      "payable": false,
      "stateMutability": "view",
      "type": "function"
    },
    {
      "constant": true,
      "inputs": [
        {
          "name": "",
          "type": "bytes32"
        }
      ],
      "name": "repayments",
      "outputs": [
        {
          "name": "",
          "type": "uint256"
        }
      ],
      "payable": false,
      "stateMutability": "view",
      "type": "function"
    },
    {
      "constant": true,
      "inputs": [
        {
          "name": "x",
          "type": "uint256"
        },
        {
          "name": "y",
          "type": "uint256"
        }
      ],
      "name": "cmul",
      "outputs": [
        {
          "name": "z",
          "type": "uint256"
        }
      ],
      "payable": false,
      "stateMutability": "pure",
      "type": "function"
    },
    {
      "constant": true,
      "inputs": [],
      "name": "token",
      "outputs": [
        {
          "name": "",
          "type": "address"
        }
      ],
      "payable": false,
      "stateMutability": "view",
      "type": "function"
    },
    {
      "inputs": [
        {
          "name": "funds_",
          "type": "address"
        },
        {
          "name": "med_",
          "type": "address"
        },
        {
          "name": "token_",
          "type": "address"
        },
        {
          "name": "decimals_",
          "type": "uint256"
        }
      ],
      "payable": false,
      "stateMutability": "nonpayable",
      "type": "constructor"
    },
    {
      "constant": true,
      "inputs": [
        {
          "name": "loan",
          "type": "bytes32"
        }
      ],
      "name": "borrower",
      "outputs": [
        {
          "name": "",
          "type": "address"
        }
      ],
      "payable": false,
      "stateMutability": "view",
      "type": "function"
    },
    {
      "constant": true,
      "inputs": [
        {
          "name": "loan",
          "type": "bytes32"
        }
      ],
      "name": "lender",
      "outputs": [
        {
          "name": "",
          "type": "address"
        }
      ],
      "payable": false,
      "stateMutability": "view",
      "type": "function"
    },
    {
      "constant": true,
      "inputs": [
        {
          "name": "loan",
          "type": "bytes32"
        }
      ],
      "name": "arbiter",
      "outputs": [
        {
          "name": "",
          "type": "address"
        }
      ],
      "payable": false,
      "stateMutability": "view",
      "type": "function"
    },
    {
      "constant": true,
      "inputs": [
        {
          "name": "loan",
          "type": "bytes32"
        }
      ],
      "name": "approveExpiration",
      "outputs": [
        {
          "name": "",
          "type": "uint256"
        }
      ],
      "payable": false,
      "stateMutability": "view",
      "type": "function"
    },
    {
      "constant": true,
      "inputs": [
        {
          "name": "loan",
          "type": "bytes32"
        }
      ],
      "name": "acceptExpiration",
      "outputs": [
        {
          "name": "",
          "type": "uint256"
        }
      ],
      "payable": false,
      "stateMutability": "view",
      "type": "function"
    },
    {
      "constant": true,
      "inputs": [
        {
          "name": "loan",
          "type": "bytes32"
        }
      ],
      "name": "liquidationExpiration",
      "outputs": [
        {
          "name": "",
          "type": "uint256"
        }
      ],
      "payable": false,
      "stateMutability": "view",
      "type": "function"
    },
    {
      "constant": true,
      "inputs": [
        {
          "name": "loan",
          "type": "bytes32"
        }
      ],
      "name": "seizureExpiration",
      "outputs": [
        {
          "name": "",
          "type": "uint256"
        }
      ],
      "payable": false,
      "stateMutability": "view",
      "type": "function"
    },
    {
      "constant": true,
      "inputs": [
        {
          "name": "loan",
          "type": "bytes32"
        }
      ],
      "name": "principal",
      "outputs": [
        {
          "name": "",
          "type": "uint256"
        }
      ],
      "payable": false,
      "stateMutability": "view",
      "type": "function"
    },
    {
      "constant": true,
      "inputs": [
        {
          "name": "loan",
          "type": "bytes32"
        }
      ],
      "name": "interest",
      "outputs": [
        {
          "name": "",
          "type": "uint256"
        }
      ],
      "payable": false,
      "stateMutability": "view",
      "type": "function"
    },
    {
      "constant": true,
      "inputs": [
        {
          "name": "loan",
          "type": "bytes32"
        }
      ],
      "name": "fee",
      "outputs": [
        {
          "name": "",
          "type": "uint256"
        }
      ],
      "payable": false,
      "stateMutability": "view",
      "type": "function"
    },
    {
      "constant": true,
      "inputs": [
        {
          "name": "loan",
          "type": "bytes32"
        }
      ],
      "name": "penalty",
      "outputs": [
        {
          "name": "",
          "type": "uint256"
        }
      ],
      "payable": false,
      "stateMutability": "view",
      "type": "function"
    },
    {
      "constant": true,
      "inputs": [
        {
          "name": "loan",
          "type": "bytes32"
        }
      ],
      "name": "collateral",
      "outputs": [
        {
          "name": "",
          "type": "uint256"
        }
      ],
      "payable": false,
      "stateMutability": "view",
      "type": "function"
    },
    {
      "constant": true,
      "inputs": [
        {
          "name": "loan",
          "type": "bytes32"
        }
      ],
      "name": "repaid",
      "outputs": [
        {
          "name": "",
          "type": "uint256"
        }
      ],
      "payable": false,
      "stateMutability": "view",
      "type": "function"
    },
    {
      "constant": true,
      "inputs": [
        {
          "name": "loan",
          "type": "bytes32"
        }
      ],
      "name": "liquidationRatio",
      "outputs": [
        {
          "name": "",
          "type": "uint256"
        }
      ],
      "payable": false,
      "stateMutability": "view",
      "type": "function"
    },
    {
      "constant": true,
      "inputs": [
        {
          "name": "loan",
          "type": "bytes32"
        }
      ],
      "name": "owedToLender",
      "outputs": [
        {
          "name": "",
          "type": "uint256"
        }
      ],
      "payable": false,
      "stateMutability": "view",
      "type": "function"
    },
    {
      "constant": true,
      "inputs": [
        {
          "name": "loan",
          "type": "bytes32"
        }
      ],
      "name": "owedForLoan",
      "outputs": [
        {
          "name": "",
          "type": "uint256"
        }
      ],
      "payable": false,
      "stateMutability": "view",
      "type": "function"
    },
    {
      "constant": true,
      "inputs": [
        {
          "name": "loan",
          "type": "bytes32"
        }
      ],
      "name": "owedForLiquidation",
      "outputs": [
        {
          "name": "",
          "type": "uint256"
        }
      ],
      "payable": false,
      "stateMutability": "view",
      "type": "function"
    },
    {
      "constant": true,
      "inputs": [
        {
          "name": "loan",
          "type": "bytes32"
        }
      ],
      "name": "owing",
      "outputs": [
        {
          "name": "",
          "type": "uint256"
        }
      ],
      "payable": false,
      "stateMutability": "view",
      "type": "function"
    },
    {
      "constant": true,
      "inputs": [
        {
          "name": "loan",
          "type": "bytes32"
        }
      ],
      "name": "funded",
      "outputs": [
        {
          "name": "",
          "type": "bool"
        }
      ],
      "payable": false,
      "stateMutability": "view",
      "type": "function"
    },
    {
      "constant": true,
      "inputs": [
        {
          "name": "loan",
          "type": "bytes32"
        }
      ],
      "name": "approved",
      "outputs": [
        {
          "name": "",
          "type": "bool"
        }
      ],
      "payable": false,
      "stateMutability": "view",
      "type": "function"
    },
    {
      "constant": true,
      "inputs": [
        {
          "name": "loan",
          "type": "bytes32"
        }
      ],
      "name": "withdrawn",
      "outputs": [
        {
          "name": "",
          "type": "bool"
        }
      ],
      "payable": false,
      "stateMutability": "view",
      "type": "function"
    },
    {
      "constant": true,
      "inputs": [
        {
          "name": "loan",
          "type": "bytes32"
        }
      ],
      "name": "sale",
      "outputs": [
        {
          "name": "",
          "type": "bool"
        }
      ],
      "payable": false,
      "stateMutability": "view",
      "type": "function"
    },
    {
      "constant": true,
      "inputs": [
        {
          "name": "loan",
          "type": "bytes32"
        }
      ],
      "name": "paid",
      "outputs": [
        {
          "name": "",
          "type": "bool"
        }
      ],
      "payable": false,
      "stateMutability": "view",
      "type": "function"
    },
    {
      "constant": true,
      "inputs": [
        {
          "name": "loan",
          "type": "bytes32"
        }
      ],
      "name": "off",
      "outputs": [
        {
          "name": "",
          "type": "bool"
        }
      ],
      "payable": false,
      "stateMutability": "view",
      "type": "function"
    },
    {
      "constant": true,
      "inputs": [
        {
          "name": "x",
          "type": "uint256"
        }
      ],
      "name": "dmul",
      "outputs": [
        {
          "name": "",
          "type": "uint256"
        }
      ],
      "payable": false,
      "stateMutability": "view",
      "type": "function"
    },
    {
      "constant": true,
      "inputs": [
        {
          "name": "x",
          "type": "uint256"
        }
      ],
      "name": "ddiv",
      "outputs": [
        {
          "name": "",
          "type": "uint256"
        }
      ],
      "payable": false,
      "stateMutability": "view",
      "type": "function"
    },
    {
      "constant": true,
      "inputs": [
        {
          "name": "loan",
          "type": "bytes32"
        }
      ],
      "name": "collateralValue",
      "outputs": [
        {
          "name": "",
          "type": "uint256"
        }
      ],
      "payable": false,
      "stateMutability": "view",
      "type": "function"
    },
    {
      "constant": true,
      "inputs": [
        {
          "name": "loan",
          "type": "bytes32"
        }
      ],
      "name": "minCollateralValue",
      "outputs": [
        {
          "name": "",
          "type": "uint256"
        }
      ],
      "payable": false,
      "stateMutability": "view",
      "type": "function"
    },
    {
      "constant": true,
      "inputs": [
        {
          "name": "loan",
          "type": "bytes32"
        }
      ],
      "name": "discountCollateralValue",
      "outputs": [
        {
          "name": "",
          "type": "uint256"
        }
      ],
      "payable": false,
      "stateMutability": "view",
      "type": "function"
    },
    {
      "constant": true,
      "inputs": [
        {
          "name": "loan",
          "type": "bytes32"
        }
      ],
      "name": "safe",
      "outputs": [
        {
          "name": "",
          "type": "bool"
        }
      ],
      "payable": false,
      "stateMutability": "view",
      "type": "function"
    },
    {
      "constant": false,
      "inputs": [
        {
          "name": "sales_",
          "type": "address"
        }
      ],
      "name": "setSales",
      "outputs": [],
      "payable": false,
      "stateMutability": "nonpayable",
      "type": "function"
    },
    {
      "constant": false,
      "inputs": [
        {
          "name": "loanExpiration_",
          "type": "uint256"
        },
        {
          "name": "usrs_",
          "type": "address[3]"
        },
        {
          "name": "vals_",
          "type": "uint256[6]"
        },
        {
          "name": "fundIndex_",
          "type": "bytes32"
        }
      ],
      "name": "create",
      "outputs": [
        {
          "name": "loan",
          "type": "bytes32"
        }
      ],
      "payable": false,
      "stateMutability": "nonpayable",
      "type": "function"
    },
    {
      "constant": false,
      "inputs": [
        {
          "name": "loan",
          "type": "bytes32"
        },
        {
          "name": "borrowerSecretHashes",
          "type": "bytes32[4]"
        },
        {
          "name": "lenderSecretHashes",
          "type": "bytes32[4]"
        },
        {
          "name": "arbiterSecretHashes",
          "type": "bytes32[4]"
        },
        {
          "name": "borrowerPubKey_",
          "type": "bytes"
        },
        {
          "name": "lenderPubKey_",
          "type": "bytes"
        },
        {
          "name": "arbiterPubKey_",
          "type": "bytes"
        }
      ],
      "name": "setSecretHashes",
      "outputs": [
        {
          "name": "",
          "type": "bool"
        }
      ],
      "payable": false,
      "stateMutability": "nonpayable",
      "type": "function"
    },
    {
      "constant": false,
      "inputs": [
        {
          "name": "loan",
          "type": "bytes32"
        }
      ],
      "name": "fund",
      "outputs": [],
      "payable": false,
      "stateMutability": "nonpayable",
      "type": "function"
    },
    {
      "constant": false,
      "inputs": [
        {
          "name": "loan",
          "type": "bytes32"
        }
      ],
      "name": "approve",
      "outputs": [],
      "payable": false,
      "stateMutability": "nonpayable",
      "type": "function"
    },
    {
      "constant": false,
      "inputs": [
        {
          "name": "loan",
          "type": "bytes32"
        },
        {
          "name": "secretA1",
          "type": "bytes32"
        }
      ],
      "name": "withdraw",
      "outputs": [],
      "payable": false,
      "stateMutability": "nonpayable",
      "type": "function"
    },
    {
      "constant": false,
      "inputs": [
        {
          "name": "loan",
          "type": "bytes32"
        },
        {
          "name": "amount",
          "type": "uint256"
        }
      ],
      "name": "repay",
      "outputs": [],
      "payable": false,
      "stateMutability": "nonpayable",
      "type": "function"
    },
    {
      "constant": false,
      "inputs": [
        {
          "name": "loan",
          "type": "bytes32"
        }
      ],
      "name": "refund",
      "outputs": [],
      "payable": false,
      "stateMutability": "nonpayable",
      "type": "function"
    },
    {
      "constant": false,
      "inputs": [
        {
          "name": "loan",
          "type": "bytes32"
        },
        {
          "name": "secret",
          "type": "bytes32"
        }
      ],
      "name": "cancel",
      "outputs": [],
      "payable": false,
      "stateMutability": "nonpayable",
      "type": "function"
    },
    {
      "constant": false,
      "inputs": [
        {
          "name": "loan",
          "type": "bytes32"
        },
        {
          "name": "secret",
          "type": "bytes32"
        }
      ],
      "name": "accept",
      "outputs": [],
      "payable": false,
      "stateMutability": "nonpayable",
      "type": "function"
    },
    {
      "constant": false,
      "inputs": [
        {
          "name": "loan",
          "type": "bytes32"
        },
        {
          "name": "secretHash",
          "type": "bytes32"
        },
        {
          "name": "pubKeyHash",
          "type": "bytes20"
        }
      ],
      "name": "liquidate",
      "outputs": [
        {
          "name": "sale_",
          "type": "bytes32"
        }
      ],
      "payable": false,
      "stateMutability": "nonpayable",
      "type": "function"
    }
  ],
  "bytecode": "0x60806040523480156200001157600080fd5b5060405160808062003576833981018060405260808110156200003357600080fd5b508051602080830151604080850151606090950151600d805433600160a060020a031991821617909155600080548216600160a060020a0380891691909117808355600180548516838916179055600b8054909416828b161793849055600c85905585517f095ea7b3000000000000000000000000000000000000000000000000000000008152908216600482015260001960248201529451979895979596939592169363095ea7b393604480830194919391928390030190829087803b158015620000fe57600080fd5b505af115801562000113573d6000803e3d6000fd5b505050506040513d60208110156200012a57600080fd5b50516200013657600080fd5b5050505061342c806200014a6000396000f3fe608060405234801561001057600080fd5b50600436106103865760003560e060020a900480637a8cfcb4116101e2578063c4a9081511610113578063e95823ad116100b1578063f69736e011610080578063f69736e014610caa578063f7837eb714610cc7578063fc0c546a14610cea578063fcfd860514610cf257610386565b8063e95823ad14610b20578063ebd1f26a14610b3d578063ec7a4f4314610b5a578063ee79b12b14610b7d57610386565b8063d357691d116100ed578063d357691d14610a77578063df90997b14610ac9578063e3eff40814610ae6578063e91d14a414610b0357610386565b8063c4a90815146109d8578063c52c0c9814610a5a578063c82e428d146108c357610386565b80639fc3f02f11610180578063a63273071161015a578063a632730714610979578063add89bb214610996578063ba38c83e146109b3578063bf14c119146109bb57610386565b80639fc3f02f14610922578063a53a1adf1461093f578063a5d9dc7b1461095c57610386565b806397bd506d116101bc57806397bd506d146108c35780639b33997c146108cb5780639e7c565e146108e85780639f9b3d3b1461090557610386565b80637a8cfcb4146108965780637ff6fecc1461089e57806383f4ca7b146108bb57610386565b80633aaffb78116102bc5780636e1719a61161025a5780637865c3ad116102345780637865c3ad146106d5578063787a969c146106f25780637888938b146108535780637a2e18fd1461087057610386565b80636e1719a6146106455780637249fbb61461069b57806376a0b166146106b857610386565b80634672d7bf116102965780634672d7bf146105c5578063531f4c40146105e257806359949df414610605578063636151491461062257610386565b80633aaffb78146105835780633e4b2a291461058b57806344b6ba95146105a857610386565b806327cdab06116103295780632e3b81eb116103035780632e3b81eb146104f5578063313ce5671461052d57806332025b69146105355780633823d66c1461055257610386565b806327cdab061461049e5780632a428754146104bb5780632cdc3c12146104d857610386565b80631594bbbe116103655780631594bbbe146104185780631abc4a781461043557806325a55e7a1461045257806326fc75901461048157610386565b8062f989ad1461038b5780630be1880f146103b05780630e112476146103e9575b600080fd5b6103ae600480360360408110156103a157600080fd5b5080359060200135610d0f565b005b6103cd600480360360208110156103c657600080fd5b5035610eae565b60408051600160a060020a039092168252519081900360200190f35b610406600480360360208110156103ff57600080fd5b5035610ec9565b60408051918252519081900360200190f35b6104066004803603602081101561042e57600080fd5b5035610f64565b6104066004803603602081101561044b57600080fd5b5035610f89565b610406600480360361016081101561046957600080fd5b50803590602081019060808101906101400135610fa7565b6104066004803603602081101561049757600080fd5b503561113c565b610406600480360360208110156104b457600080fd5b5035611151565b6103cd600480360360208110156104d157600080fd5b5035611166565b610406600480360360208110156104ee57600080fd5b5035611181565b6104066004803603606081101561050b57600080fd5b50803590602081013590604001356bffffffffffffffffffffffff19166111a0565b610406611bef565b6104066004803603602081101561054b57600080fd5b5035611bf5565b61056f6004803603602081101561056857600080fd5b5035611c0c565b604080519115158252519081900360200190f35b610406611c27565b610406600480360360208110156105a157600080fd5b5035611c2e565b6103cd600480360360208110156105be57600080fd5b5035611c40565b61056f600480360360208110156105db57600080fd5b5035611c5e565b6103ae600480360360408110156105f857600080fd5b5080359060200135611c7a565b61056f6004803603602081101561061b57600080fd5b50356124c3565b6103ae6004803603604081101561063857600080fd5b50803590602001356124e1565b6106626004803603602081101561065b57600080fd5b50356126e5565b604080519615158752941515602087015292151585850152901515606085015215156080840152151560a0830152519081900360c00190f35b6103ae600480360360208110156106b157600080fd5b503561272d565b610406600480360360208110156106ce57600080fd5b50356129fd565b61056f600480360360208110156106eb57600080fd5b5035612a12565b61070f6004803603602081101561070857600080fd5b5035612a2c565b60405180806020018060200180602001848103845287818151815260200191508051906020019080838360005b8381101561075457818101518382015260200161073c565b50505050905090810190601f1680156107815780820380516001836020036101000a031916815260200191505b50848103835286518152865160209182019188019080838360005b838110156107b457818101518382015260200161079c565b50505050905090810190601f1680156107e15780820380516001836020036101000a031916815260200191505b50848103825285518152855160209182019187019080838360005b838110156108145781810151838201526020016107fc565b50505050905090810190601f1680156108415780820380516001836020036101000a031916815260200191505b50965050505050505060405180910390f35b6104066004803603602081101561086957600080fd5b5035612bfd565b6103ae6004803603602081101561088657600080fd5b5035600160a060020a0316612c19565b610406612c75565b610406600480360360208110156108b457600080fd5b5035612c7b565b610406612c96565b610406612ca2565b610406600480360360208110156108e157600080fd5b5035612ca9565b610406600480360360208110156108fe57600080fd5b5035612cc0565b61056f6004803603602081101561091b57600080fd5b5035612cd5565b6103cd6004803603602081101561093857600080fd5b5035612cea565b6103ae6004803603602081101561095557600080fd5b5035612d08565b6104066004803603602081101561097257600080fd5b5035612d80565b6104066004803603602081101561098f57600080fd5b5035612d92565b61056f600480360360208110156109ac57600080fd5b5035612dae565b610406612dcb565b6103ae600480360360208110156109d157600080fd5b5035612dd1565b6109f5600480360360208110156109ee57600080fd5b5035612ecb565b60408051600160a060020a039c8d1681529a8c1660208c015298909a16898901526060890196909652608088019490945260a087019290925260c086015260e08501526101008401526101208301526101408201929092529051908190036101600190f35b61040660048036036020811015610a7057600080fd5b5035612f34565b610a9460048036036020811015610a8d57600080fd5b5035612f4b565b6040805196875260208701959095528585019390935260608501919091526080840152151560a0830152519081900360c00190f35b61040660048036036020811015610adf57600080fd5b5035612f83565b61040660048036036020811015610afc57600080fd5b5035612fb3565b61040660048036036020811015610b1957600080fd5b5035612fc8565b61056f60048036036020811015610b3657600080fd5b5035612fdd565b61040660048036036020811015610b5357600080fd5b5035612ff9565b6103ae60048036036040811015610b7057600080fd5b508035906020013561300b565b61056f6004803603610200811015610b9457600080fd5b813591602081019160a08201916101208101918101906101c081016101a0820135640100000000811115610bc757600080fd5b820183602082011115610bd957600080fd5b80359060200191846001830284011164010000000083111715610bfb57600080fd5b919390929091602081019035640100000000811115610c1957600080fd5b820183602082011115610c2b57600080fd5b80359060200191846001830284011164010000000083111715610c4d57600080fd5b919390929091602081019035640100000000811115610c6b57600080fd5b820183602082011115610c7d57600080fd5b80359060200191846001830284011164010000000083111715610c9f57600080fd5b509092509050613015565b61040660048036036020811015610cc057600080fd5b5035613212565b61040660048036036040811015610cdd57600080fd5b5080359060200135613229565b6103cd61325a565b61040660048036036020811015610d0857600080fd5b5035613269565b610d18826124c3565b15610d2257600080fd5b610d2b82611c5e565b15610d3557600080fd5b60008281526006602052604090205462010000900460ff161515600114610d5b57600080fd5b600082815260036020526040902060040154421115610d7957600080fd5b610d8282611bf5565b610d9482610d8f85611c2e565b613284565b1115610d9f57600080fd5b600b54604080517f23b872dd000000000000000000000000000000000000000000000000000000008152336004820152306024820152604481018490529051600160a060020a03909216916323b872dd916064808201926020929091908290030181600087803b158015610e1257600080fd5b505af1158015610e26573d6000803e3d6000fd5b505050506040513d6020811015610e3c57600080fd5b5051610e4757600080fd5b600082815260096020526040902054610e61908290613284565b600083815260096020526040902055610e7982611bf5565b610e8283611c2e565b1415610eaa576000828152600660205260409020805464ff0000000019166401000000001790555b5050565b600090815260036020526040902054600160a060020a031690565b600080600160009054906101000a9004600160a060020a0316600160a060020a03166357de26a46040518163ffffffff1660e060020a02815260040160206040518083038186803b158015610f1d57600080fd5b505afa158015610f31573d6000803e3d6000fd5b505050506040513d6020811015610f4757600080fd5b50519050610f5d81610f5885612cc0565b613229565b9392505050565b600081815260036020526040812060040154610f83906202a300613284565b92915050565b600081815260036020819052604082200154610f8390611c20613284565b6000811561105657600054604080517f9fc3f02f000000000000000000000000000000000000000000000000000000008152600481018590529051602087810135600160a060020a03908116941692639fc3f02f9260248083019392829003018186803b15801561101757600080fd5b505afa15801561102b573d6000803e3d6000fd5b505050506040513d602081101561104157600080fd5b5051600160a060020a03161461105657600080fd5b611063600a546001613284565b600a81815560008281526003602081815260408084204293810193909355600483019a909a55815473ffffffffffffffffffffffffffffffffffffffff19908116600160a060020a038b35811691909117845560018401805483168c85013583161790556002840180549092169a8c013516999099179098558635600580830191909155878901356006830155878a0135600780840191909155606089013560088401556080890135600984015560a09098013591909301559486528685209390935591909352929020600e01805460ff191690555090565b60009081526003602052604090206007015490565b60009081526003602052604090206008015490565b600860205260009081526040902054600160a060020a031681565b600081815260036020526040812060040154610f839062093a80613284565b60006111ab846124c3565b156111b557600080fd5b60008481526006602052604090205462010000900460ff1615156001146111db57600080fd5b600084815260036020526040902054600160a060020a0316331480159061121c5750600084815260036020526040902060010154600160a060020a03163314155b61122557600080fd5b6002546040805160e060020a6302d3af5b028152600481018790529051600160a060020a03909216916302d3af5b91602480820192602092909190829003018186803b15801561127457600080fd5b505afa158015611288573d6000803e3d6000fd5b505050506040513d602081101561129e57600080fd5b5051611471576000848152600360205260409020600401544211156112e657600084815260066020526040902054640100000000900460ff16156112e157600080fd5b6112f9565b6112ef84612fdd565b156112f957600080fd5b600080548582526007602090815260409283902054835160e760020a6301431c9502815260048101919091529251600160a060020a039092169263a18e4a809260248083019392829003018186803b15801561135457600080fd5b505afa158015611368573d6000803e3d6000fd5b505050506040513d602081101561137e57600080fd5b505161146c57600080548582526003602052604080832060050154815160e160020a637249992b02815260048101919091529051600160a060020a039092169263e49332569260248084019382900301818387803b1580156113df57600080fd5b505af11580156113f3573d6000803e3d6000fd5b505060008054604080517f33549b1b0000000000000000000000000000000000000000000000000000000081529051600160a060020a0390921694506333549b1b9350600480820193929182900301818387803b15801561145357600080fd5b505af1158015611467573d6000803e3d6000fd5b505050505b6117d7565b6002546040805160e060020a6302d3af5b028152600481018790529051600392600160a060020a0316916302d3af5b916024808301926020929190829003018186803b1580156114c057600080fd5b505afa1580156114d4573d6000803e3d6000fd5b505050506040513d60208110156114ea57600080fd5b5051106114f657600080fd5b6002546040805160e060020a6302d3af5b028152600481018790529051600160a060020a039092169163a6b7d54e918391631a81dcab91899160019185916302d3af5b91602480820192602092909190829003018186803b15801561155a57600080fd5b505afa15801561156e573d6000803e3d6000fd5b505050506040513d602081101561158457600080fd5b50516040805160e060020a63ffffffff871602815260048101949094529190036024830152516044808301926020929190829003018186803b1580156115c957600080fd5b505afa1580156115dd573d6000803e3d6000fd5b505050506040513d60208110156115f357600080fd5b50516040805160e060020a63ffffffff85160281526004810192909252516024808301926020929190829003018186803b15801561163057600080fd5b505afa158015611644573d6000803e3d6000fd5b505050506040513d602081101561165a57600080fd5b5051421161166757600080fd5b6002546040805160e060020a6302d3af5b028152600481018790529051600160a060020a0390921691638642afd1918391631a81dcab91899160019185916302d3af5b91602480820192602092909190829003018186803b1580156116cb57600080fd5b505afa1580156116df573d6000803e3d6000fd5b505050506040513d60208110156116f557600080fd5b50516040805160e060020a63ffffffff871602815260048101949094529190036024830152516044808301926020929190829003018186803b15801561173a57600080fd5b505afa15801561174e573d6000803e3d6000fd5b505050506040513d602081101561176457600080fd5b50516040805160e060020a63ffffffff85160281526004810192909252516024808301926020929190829003018186803b1580156117a157600080fd5b505afa1580156117b5573d6000803e3d6000fd5b505050506040513d60208110156117cb57600080fd5b5051156117d757600080fd5b6117e86117e385612bfd565b612c7b565b600b54604080517f70a082310000000000000000000000000000000000000000000000000000000081523360048201529051600160a060020a03909216916370a0823191602480820192602092909190829003018186803b15801561184c57600080fd5b505afa158015611860573d6000803e3d6000fd5b505050506040513d602081101561187657600080fd5b5051101561188357600080fd5b600b54600254600160a060020a03918216916323b872dd913391166118aa6117e389612bfd565b6040805160e060020a63ffffffff8716028152600160a060020a0394851660048201529290931660248301526044820152905160648083019260209291908290030181600087803b1580156118fe57600080fd5b505af1158015611912573d6000803e3d6000fd5b505050506040513d602081101561192857600080fd5b505161193357600080fd5b6000848152600560209081526040808320600254825160e060020a6302d3af5b028152600481018a90529251919493600160a060020a03909116926302d3af5b9260248083019392829003018186803b15801561198f57600080fd5b505afa1580156119a3573d6000803e3d6000fd5b505050506040513d60208110156119b957600080fd5b505160028054600089815260036020819052604090912080546001808301549290950154959650600160a060020a0393841695630c4afecf958d959283169493831693929091169133918a019089908110611a1057fe5b0154896005018960038110611a2157fe5b01548a6009018a60038110611a3257fe5b01546040805160e060020a63ffffffff8c160281526004810199909952600160a060020a0397881660248a01529587166044890152938616606488015291909416608486015260a485019390935260c484019290925260e483019190915261010482018990526bffffffffffffffffffffffff198816610124830152516101448083019260209291908290030181600087803b158015611ad157600080fd5b505af1158015611ae5573d6000803e3d6000fd5b505050506040513d6020811015611afb57600080fd5b50516000878152600660205260409020549093506301000000900460ff16611bc657600b54600254600160a060020a039182169163a9059cbb9116611b3f89611c2e565b6040518363ffffffff1660e060020a0281526004018083600160a060020a0316600160a060020a0316815260200182815260200192505050602060405180830381600087803b158015611b9157600080fd5b505af1158015611ba5573d6000803e3d6000fd5b505050506040513d6020811015611bbb57600080fd5b5051611bc657600080fd5b5050600093845260066020526040909320805463ff000000191663010000001790555090919050565b600c5481565b6000610f83611c0383613212565b610d8f84611151565b60009081526006602052604090205462010000900460ff1690565b62093a8081565b60009081526009602052604090205490565b600090815260036020526040902060020154600160a060020a031690565b6000908152600660205260409020546301000000900460ff1690565b611c83826124c3565b15611c8d57600080fd5b60008281526006602052604090205462010000900460ff161580611ccc5750600082815260066020526040902054640100000000900460ff1615156001145b611cd557600080fd5b600082815260036020526040902060010154600160a060020a0316331480611d165750600082815260036020526040902060020154600160a060020a031633145b611d1f57600080fd5b6005600083815260200190815260200160002060040154600282604051602001808281526020019150506040516020818303038152906040526040518082805190602001908083835b60208310611d875780518252601f199092019160209182019101611d68565b51815160209384036101000a60001901801990921691161790526040519190930194509192505080830381855afa158015611dc6573d6000803e3d6000fd5b5050506040513d6020811015611ddb57600080fd5b50511480611ea457506005600083815260200190815260200160002060080154600282604051602001808281526020019150506040516020818303038152906040526040518082805190602001908083835b60208310611e4c5780518252601f199092019160209182019101611e2d565b51815160209384036101000a60001901801990921691161790526040519190930194509192505080830381855afa158015611e8b573d6000803e3d6000fd5b5050506040513d6020811015611ea057600080fd5b5051145b611ead57600080fd5b611eb682610f64565b421115611ec257600080fd5b6000828152600660205260409020546301000000900460ff1615611ee557600080fd5b6000828152600660208181526040808420805465ff0000000000191665010000000000178155600583529320600d01849055525462010000900460ff1661219457600082815260076020526040902054611ff757600b546000838152600360209081526040808320600181015460059091015482517fa9059cbb000000000000000000000000000000000000000000000000000000008152600160a060020a0392831660048201526024810191909152915194169363a9059cbb93604480840194938390030190829087803b158015611fbd57600080fd5b505af1158015611fd1573d6000803e3d6000fd5b505050506040513d6020811015611fe757600080fd5b5051611ff257600080fd5b61218f565b600080548382526007602090815260409283902054835160e760020a6301431c9502815260048101919091529251600160a060020a039092169263a18e4a809260248083019392829003018186803b15801561205257600080fd5b505afa158015612066573d6000803e3d6000fd5b505050506040513d602081101561207c57600080fd5b50516120f657600080548382526003602052604080832060050154815160e160020a637249992b02815260048101919091529051600160a060020a039092169263e49332569260248084019382900301818387803b1580156120dd57600080fd5b505af11580156120f1573d6000803e3d6000fd5b505050505b600080548382526007602090815260408084205460039092528084206005015481517f1de26e160000000000000000000000000000000000000000000000000000000081526004810193909352602483015251600160a060020a0390921692631de26e169260448084019382900301818387803b15801561217657600080fd5b505af115801561218a573d6000803e3d6000fd5b505050505b610eaa565b60008281526006602052604090205462010000900460ff16151560011415610eaa5760008281526007602052604090205461228657600b54600083815260036020526040902060010154600160a060020a039182169163a9059cbb91166121fa85613212565b6040518363ffffffff1660e060020a0281526004018083600160a060020a0316600160a060020a0316815260200182815260200192505050602060405180830381600087803b15801561224c57600080fd5b505af1158015612260573d6000803e3d6000fd5b505050506040513d602081101561227657600080fd5b505161228157600080fd5b61240b565b600080548382526007602090815260409283902054835160e760020a6301431c9502815260048101919091529251600160a060020a039092169263a18e4a809260248083019392829003018186803b1580156122e157600080fd5b505afa1580156122f5573d6000803e3d6000fd5b505050506040513d602081101561230b57600080fd5b505161238557600080548382526003602052604080832060050154815160e160020a637249992b02815260048101919091529051600160a060020a039092169263e49332569260248084019382900301818387803b15801561236c57600080fd5b505af1158015612380573d6000803e3d6000fd5b505050505b600080548382526007602052604090912054600160a060020a0390911690631de26e16906123b285613212565b6040518363ffffffff1660e060020a0281526004018083815260200182815260200192505050600060405180830381600087803b1580156123f257600080fd5b505af1158015612406573d6000803e3d6000fd5b505050505b600b54600083815260036020526040902060020154600160a060020a039182169163a9059cbb911661243c85611151565b6040518363ffffffff1660e060020a0281526004018083600160a060020a0316600160a060020a0316815260200182815260200192505050602060405180830381600087803b15801561248e57600080fd5b505af11580156124a2573d6000803e3d6000fd5b505050506040513d60208110156124b857600080fd5b5051610eaa57600080fd5b60009081526006602052604090205465010000000000900460ff1690565b6124ea826124c3565b156124f457600080fd5b60008281526006602052604090205460ff16151560011461251457600080fd5b60008281526006602052604090205460ff61010090910416151560011461253a57600080fd5b6005600083815260200190815260200160002060000154600282604051602001808281526020019150506040516020818303038152906040526040518082805190602001908083835b602083106125a25780518252601f199092019160209182019101612583565b51815160209384036101000a60001901801990921691161790526040519190930194509192505080830381855afa1580156125e1573d6000803e3d6000fd5b5050506040513d60208110156125f657600080fd5b50511461260257600080fd5b600b54600083815260036020526040902054600160a060020a039182169163a9059cbb911661263085612fb3565b6040518363ffffffff1660e060020a0281526004018083600160a060020a0316600160a060020a0316815260200182815260200192505050602060405180830381600087803b15801561268257600080fd5b505af1158015612696573d6000803e3d6000fd5b505050506040513d60208110156126ac57600080fd5b50516126b757600080fd5b6000918252600660209081526040808420805462ff00001916620100001790556005909152909120600c0155565b60066020526000908152604090205460ff8082169161010081048216916201000082048116916301000000810482169164010000000082048116916501000000000090041686565b612736816124c3565b1561274057600080fd5b61274981611c5e565b1561275357600080fd5b61275c81610f64565b421161276757600080fd5b600081815260066020526040902054640100000000900460ff16151560011461278f57600080fd5b600081815260036020526040902054600160a060020a031633146127b257600080fd5b6000818152600660209081526040808320805465ff0000000000191665010000000000179055600b54600390925290912054600160a060020a039182169163a9059cbb911661280084611bf5565b6040518363ffffffff1660e060020a0281526004018083600160a060020a0316600160a060020a0316815260200182815260200192505050602060405180830381600087803b15801561285257600080fd5b505af1158015612866573d6000803e3d6000fd5b505050506040513d602081101561287c57600080fd5b505161288757600080fd5b600080548282526007602090815260409283902054835160e760020a6301431c9502815260048101919091529251600160a060020a039092169263a18e4a809260248083019392829003018186803b1580156128e257600080fd5b505afa1580156128f6573d6000803e3d6000fd5b505050506040513d602081101561290c57600080fd5b50516129fa57600080548282526003602052604080832060050154815160e160020a637249992b02815260048101919091529051600160a060020a039092169263e49332569260248084019382900301818387803b15801561296d57600080fd5b505af1158015612981573d6000803e3d6000fd5b505060008054604080517f33549b1b0000000000000000000000000000000000000000000000000000000081529051600160a060020a0390921694506333549b1b9350600480820193929182900301818387803b1580156129e157600080fd5b505af11580156129f5573d6000803e3d6000fd5b505050505b50565b6000908152600360205260409020600a015490565b600090815260066020526040902054610100900460ff1690565b60046020908152600091825260409182902080548351601f60026000196101006001861615020190931692909204918201849004840281018401909452808452909291839190830182828015612ac35780601f10612a9857610100808354040283529160200191612ac3565b820191906000526020600020905b815481529060010190602001808311612aa657829003601f168201915b505050505090806001018054600181600116156101000203166002900480601f016020809104026020016040519081016040528092919081815260200182805460018160011615610100020316600290048015612b615780601f10612b3657610100808354040283529160200191612b61565b820191906000526020600020905b815481529060010190602001808311612b4457829003601f168201915b50505060028085018054604080516020601f6000196101006001871615020190941695909504928301859004850281018501909152818152959695945090925090830182828015612bf35780601f10612bc857610100808354040283529160200191612bf3565b820191906000526020600020905b815481529060010190602001808311612bd657829003601f168201915b5050505050905083565b6000610f83612c0b83610ec9565b670ce80612991d0000613294565b600d54600160a060020a03163314612c3057600080fd5b600254600160a060020a031615612c4657600080fd5b6002805473ffffffffffffffffffffffffffffffffffffffff1916600160a060020a0392909216919091179055565b600a5481565b6000610f8382612c8e6012600c546132bc565b600a0a6132cc565b670ce80612991d000081565b6202a30081565b6000610f83612cb783611bf5565b610d8f8461113c565b60009081526003602052604090206009015490565b60009081526006602052604090205460ff1690565b600090815260036020526040902060010154600160a060020a031690565b60008181526006602052604090205460ff161515600114612d2857600080fd5b600081815260036020526040902060010154600160a060020a03163314612d4e57600080fd5b612d5781610f89565b421115612d6357600080fd5b6000908152600660205260409020805461ff001916610100179055565b60076020526000908152604090205481565b6000610f83612da083611bf5565b612da984611c2e565b6132bc565b600090815260066020526040902054640100000000900460ff1690565b611c2081565b6000818152600560205260409020600e015460ff16612def57600080fd5b60008181526006602052604090205460ff1615612e0b57600080fd5b600b54600160a060020a03166323b872dd3330612e2785612fb3565b6040805160e060020a63ffffffff8716028152600160a060020a0394851660048201529290931660248301526044820152905160648083019260209291908290030181600087803b158015612e7b57600080fd5b505af1158015612e8f573d6000803e3d6000fd5b505050506040513d6020811015612ea557600080fd5b5051612eb057600080fd5b6000908152600660205260409020805460ff19166001179055565b600360208190526000918252604090912080546001820154600283015493830154600484015460058501546006860154600787015460088801546009890154600a90990154600160a060020a039889169a9789169997909816979596949593949293919290918b565b6000610f83612f4283611181565b6202a300613284565b6005602052600090815260409020805460048201546008830154600c840154600d850154600e90950154939492939192909160ff1686565b6000610f83612fa5612fa0612f9785612fb3565b612da986611c2e565b613269565b612fae846129fd565b6132e3565b60009081526003602052604090206005015490565b60009081526003602052604090206006015490565b6000612fe882612f83565b612ff183610ec9565b101592915050565b60096020526000908152604090205481565b610eaa8282611c7a565b60008a8152600560205260408120600e015460ff161561303457600080fd5b60008b815260036020526040902054600160a060020a0316331480613072575060008b815260036020526040902060010154600160a060020a031633145b806130875750600054600160a060020a031633145b61309057600080fd5b60008b8152600560209081526040918290208c35905581516060810183528c82013581528c830135918101919091529081018b60036020020135815250600560008d81526020019081526020016000206001019060036130f1929190613337565b5060008b81526005602081815260408084208d3560048201558151606080820184528f85013582528f840135828601528f013592810192909252938f90529082905261314292909101906003613337565b5060008b81526005602081815260408084208c3560088201558151606080820184528e85013582528e840135828601528e013592810192909252938f905291905261319291600901906003613337565b5060008b81526004602052604090206131ac908888613375565b5060008b81526004602052604090206131c9906001018686613375565b5060008b81526004602052604090206131e6906002018484613375565b5060009a8b5260056020526040909a20600e01805460ff19166001179055509798975050505050505050565b6000610f8361322083612fb3565b610d8f84612fc8565b60006305f5e10061324b61323d8585613313565b60026305f5e1005b04613284565b8161325257fe5b049392505050565b600b54600160a060020a031681565b6000610f838261327c6012600c546132bc565b600a0a613313565b80820182811015610f8357600080fd5b6000670de0b6b3a764000061324b6132ac8585613313565b6002670de0b6b3a7640000613245565b80820382811115610f8357600080fd5b60008082116132da57600080fd5b81838161325257fe5b60006b033b2e3c9fd0803ce800000061324b6132ff8585613313565b60026b033b2e3c9fd0803ce8000000613245565b600081158061332e5750508082028282828161332b57fe5b04145b610f8357600080fd5b8260038101928215613365579160200282015b8281111561336557825182559160200191906001019061334a565b506133719291506133e3565b5090565b828054600181600116156101000203166002900490600052602060002090601f016020900481019282601f106133b65782800160ff19823516178555613365565b82800160010185558215613365579182015b828111156133655782358255916020019190600101906133c8565b6133fd91905b8082111561337157600081556001016133e9565b9056fea165627a7a723058200488b54c17ee5360fe7a775a7b52ce84302a929d897c351c6b346c7192b9727d0029",
  "source": "import 'openzeppelin-solidity/contracts/token/ERC20/ERC20.sol';\nimport 'openzeppelin-solidity/contracts/math/SafeMath.sol';\n\nimport './Funds.sol';\nimport './Sales.sol';\nimport './DSMath.sol';\nimport './Medianizer.sol';\n\npragma solidity ^0.5.8;\n\ncontract Loans is DSMath {\n    Funds funds;\n    Medianizer med;\n    Sales sales;\n\n    uint256 public constant APPROVE_EXP_THRESHOLD = 7200;    // approval expiration threshold\n    uint256 public constant ACCEPT_EXP_THRESHOLD = 172800;   // acceptance expiration threshold\n    uint256 public constant LIQUIDATION_EXP_THRESHOLD = 604800;  // liquidation expiration threshold\n    uint256 public constant SEIZURE_EXP_THRESHOLD = 172800;      // seizable expiration threshold\n    uint256 public constant LIQUIDATION_DISCOUNT = 930000000000000000; // 93% (7% discount)\n\n    mapping (bytes32 => Loan)         public loans;\n    mapping (bytes32 => PubKeys)      public pubKeys;      // PubKeys\n    mapping (bytes32 => SecretHashes) public secretHashes; // Secret Hashes\n    mapping (bytes32 => Bools)        public bools;        // Boolean state of Loan\n    mapping (bytes32 => bytes32)      public fundIndex;    // Mapping of Loan Index to Fund Index\n    mapping (bytes32 => ERC20)        public tokes;        // Mapping of Loan index to Token contract\n    mapping (bytes32 => uint256)      public repayments;   // Amount paid back in a Loan\n    uint256                           public loanIndex;    // Current Loan Index\n\n    ERC20 public token; // ERC20 Debt Stablecoin\n    uint256 public decimals;\n\n    address deployer;\n\n    /**\n     * @notice Container for loan information\n     * @member borrower The address of the borrower\n     * @member lender The address of the lender\n     * @member arbiter The address of the arbiter\n     * @member createAt The creation timestamp of the loan\n     * @member loanExpiration The timestamp for the end of the loan\n     * @member principal The amount of principal in tokens to be paid back at the end of the loan\n     * @member interest The amount of interest in tokens to be paid back by the end of the loan\n     * @member penalty The amount of tokens to be paid as a penalty for defaulting or allowing the loan to be liquidated\n     * @member fee The amount of tokens paid to the arbiter\n     * @member collateral The amount of collateral in satoshis\n     * @member liquidationRatio The ratio of collateral to debt where the loan can be liquidated\n     */\n    struct Loan {\n    \taddress borrower;\n        address lender;\n        address arbiter;\n        uint256 createdAt;\n        uint256 loanExpiration;\n        uint256 principal;\n        uint256 interest;\n        uint256 penalty;\n        uint256 fee;\n        uint256 collateral;\n        uint256 liquidationRatio;\n    }\n\n    /**\n     * @notice Container for Bitcoin public key information\n     * @member borrowerPubKey Borrower Bitcoin Public Key\n     * @member lenderPubKey Lender Bitcoin Public Key\n     * @member arbiterPubKey Arbiter Bitcoin Public Key\n     *\n     *         Note: This struct is unnecessary for the Ethereum\n     *               contract itself, but is used as a point of \n     *               reference for generating the correct P2SH for\n     *               locking Bitcoin collateral\n     */\n    struct PubKeys {\n        bytes   borrowerPubKey;\n        bytes   lenderPubKey;\n        bytes   arbiterPubKey;\n    }\n\n    /**\n     * @notice Container for borrower, lender, and arbiter Secret Hashes\n     * @member secretHashA1 Borrower Secret Hash for the loan\n     * @member secretHashAs Borrower Secret Hashes for up to three liquidations\n     * @member secretHashB1 Lender Secret Hash for the loan\n     * @member secretHashBs Lender Secret Hashes for up to three liquidations\n     * @member secretHashC1 Arbiter Secret Hash for the loan\n     * @member secretHashCs Arbiter Secret Hashes for up to three liquidations\n     * @member withdrawSecret Secret A1 when revealed by borrower\n     * @member acceptSecret Secret B1 or Secret C1 when revelaed by the lender or arbiter\n     * @member set Secret Hashes set for particular loan\n     */\n    struct SecretHashes {\n    \tbytes32    secretHashA1;\n    \tbytes32[3] secretHashAs;\n    \tbytes32    secretHashB1;\n    \tbytes32[3] secretHashBs;\n    \tbytes32    secretHashC1;\n    \tbytes32[3] secretHashCs;\n        bytes32    withdrawSecret;\n        bytes32    acceptSecret;\n    \tbool       set;\n    }\n\n    /**\n     * @notice Container for states of loan agreement\n     * @member funded Indicates that the loan has been funded with tokens\n     * @member approved Indicates that the lender has approved locking of the Bitcoin collateral\n     * @member withdrawn Indicates that the borrower has withdrawn the tokens from the contract\n     * @member sale Indicates that the collateral liquidation process has started\n     * @member paid Indicates that the loan has been repaid\n     * @member off Indicates that the loan has been cancelled or the loan repayment has been accepted\n     */\n    struct Bools {\n    \tbool funded;\n    \tbool approved;\n    \tbool withdrawn;\n    \tbool sale;\n    \tbool paid;\n    \tbool off;\n    }\n\n    function borrower(bytes32 loan) public view returns (address) {\n        return loans[loan].borrower;\n    }\n\n    function lender(bytes32 loan) public view returns (address) {\n        return loans[loan].lender;\n    }\n\n    function arbiter(bytes32 loan)  public view returns (address) {\n        return loans[loan].arbiter;\n    }\n\n    function approveExpiration(bytes32 loan) public view returns (uint256) { // Approval Expiration\n        return add(loans[loan].createdAt, APPROVE_EXP_THRESHOLD);\n    }\n\n    function acceptExpiration(bytes32 loan) public view returns (uint256) { // Acceptance Expiration\n        return add(loans[loan].loanExpiration, ACCEPT_EXP_THRESHOLD);\n    }\n\n    function liquidationExpiration(bytes32 loan) public view returns (uint256) { // Liquidation Expiration\n        return add(loans[loan].loanExpiration, LIQUIDATION_EXP_THRESHOLD);\n    }\n\n    function seizureExpiration(bytes32 loan) public view returns (uint256) {\n        return add(liquidationExpiration(loan), SEIZURE_EXP_THRESHOLD);\n    }\n\n    function principal(bytes32 loan) public view returns (uint256) {\n        return loans[loan].principal;\n    }\n\n    function interest(bytes32 loan) public view returns (uint256) {\n        return loans[loan].interest;\n    }\n\n    function fee(bytes32 loan) public view returns (uint256) {\n        return loans[loan].fee;\n    }\n\n    function penalty(bytes32 loan) public view returns (uint256) {\n        return loans[loan].penalty;\n    }\n\n    function collateral(bytes32 loan) public view returns (uint256) {\n        return loans[loan].collateral;\n    }\n\n    function repaid(bytes32 loan) public view returns (uint256) { // Amount paid back for loan\n        return repayments[loan];\n    }\n\n    function liquidationRatio(bytes32 loan) public view returns (uint256) {\n        return loans[loan].liquidationRatio;\n    }\n\n    function owedToLender(bytes32 loan) public view returns (uint256) { // Amount lent by Lender\n        return add(principal(loan), interest(loan));\n    }\n\n    function owedForLoan(bytes32 loan) public view returns (uint256) { // Amount owed\n        return add(owedToLender(loan), fee(loan));\n    }\n\n    function owedForLiquidation(bytes32 loan) public view returns (uint256) { // Deductible amount from collateral\n        return add(owedForLoan(loan), penalty(loan));\n    }\n\n    function owing(bytes32 loan) public view returns (uint256) {\n        return sub(owedForLoan(loan), repaid(loan));\n    }\n\n    function funded(bytes32 loan) public view returns (bool) {\n        return bools[loan].funded;\n    }\n\n    function approved(bytes32 loan) public view returns (bool) {\n        return bools[loan].approved;\n    }\n\n    function withdrawn(bytes32 loan) public view returns (bool) {\n        return bools[loan].withdrawn;\n    }\n\n    function sale(bytes32 loan) public view returns (bool) {\n        return bools[loan].sale;\n    }\n\n    function paid(bytes32 loan) public view returns (bool) {\n        return bools[loan].paid;\n    }\n\n    function off(bytes32 loan) public view returns (bool) {\n        return bools[loan].off;\n    }\n\n    function dmul(uint x) public view returns (uint256) {\n        return mul(x, (10 ** sub(18, decimals)));\n    }\n\n    function ddiv(uint x) public view returns (uint256) {\n        return div(x, (10 ** sub(18, decimals)));\n    }\n\n    function collateralValue(bytes32 loan) public view returns (uint256) { // Current Collateral Value\n        uint256 val = uint(med.read());\n        return cmul(val, collateral(loan)); // Multiply value dependent on number of decimals with currency\n    }\n\n    function minCollateralValue(bytes32 loan) public view returns (uint256) {  // Minimum Collateral Value\n        return rmul(dmul(sub(principal(loan), repaid(loan))), liquidationRatio(loan));\n    }\n\n    function discountCollateralValue(bytes32 loan) public view returns (uint256) {\n        return wmul(collateralValue(loan), LIQUIDATION_DISCOUNT);\n    }\n\n    function safe(bytes32 loan) public view returns (bool) { // Loan is safe from Liquidation\n        return collateralValue(loan) >= minCollateralValue(loan);\n    }\n\n    constructor (Funds funds_, Medianizer med_, ERC20 token_, uint256 decimals_) public {\n        deployer = msg.sender;\n    \tfunds    = funds_;\n    \tmed      = med_;\n        token    = token_;\n        decimals = decimals_;\n        require(token.approve(address(funds), 2**256-1));\n    }\n\n    /**\n     * @dev Sets Sales contract\n     * @param sales_ Address of Sales contract\n     */\n    function setSales(Sales sales_) external {\n        require(msg.sender == deployer);\n        require(address(sales) == address(0));\n        sales = sales_;\n    }\n    \n    /**\n     * @notice Creates a new loan agreement\n     * @param loanExpiration_ The timestamp for the end of the loan\n     * @param usrs_ Array of three addresses containing the borrower, lender, and optional arbiter address\n     * @param vals_ Array of six uints containing loan principal, interest, liquidation penalty, optional arbiter fee, collateral amount, liquidation ratio\n     * @param fundIndex_ The optional Fund Index\n     */\n    function create(\n        uint256             loanExpiration_,\n        address[3] calldata usrs_,\n        uint256[6] calldata vals_,\n        bytes32             fundIndex_\n    ) external returns (bytes32 loan) {\n        if (fundIndex_ != bytes32(0)) { require(funds.lender(fundIndex_) == usrs_[1]); }\n        loanIndex = add(loanIndex, 1);\n        loan = bytes32(loanIndex);\n        loans[loan].createdAt        = now;\n        loans[loan].loanExpiration   = loanExpiration_;\n        loans[loan].borrower         = usrs_[0];\n        loans[loan].lender           = usrs_[1];\n        loans[loan].arbiter            = usrs_[2];\n        loans[loan].principal        = vals_[0];\n        loans[loan].interest         = vals_[1];\n        loans[loan].penalty          = vals_[2];\n        loans[loan].fee              = vals_[3];\n        loans[loan].collateral       = vals_[4];\n        loans[loan].liquidationRatio = vals_[5];\n        fundIndex[loan]              = fundIndex_;\n        secretHashes[loan].set       = false;\n    }\n\n    /**\n     * @notice Set Secret Hashes for loan agreement\n     * @param loan The Id of the Loan\n     * @param borrowerSecretHashes Borrower secret hashes\n     * @param lenderSecretHashes Lender secret hashes\n     * @param arbiterSecretHashes Arbiter secret hashes\n     * @param borrowerPubKey_ Borrower Bitcoin Public Key\n     * @param lenderPubKey_ Lender Bitcoin Public Key\n     * @param arbiterPubKey_ Arbiter Bitcoin Public Key\n     */\n    function setSecretHashes(\n    \tbytes32             loan,\n        bytes32[4] calldata borrowerSecretHashes,\n        bytes32[4] calldata lenderSecretHashes,\n        bytes32[4] calldata arbiterSecretHashes,\n\t\tbytes      calldata borrowerPubKey_,\n        bytes      calldata lenderPubKey_,\n        bytes      calldata arbiterPubKey_\n\t) external returns (bool) {\n\t\trequire(!secretHashes[loan].set);\n\t\trequire(msg.sender == loans[loan].borrower || msg.sender == loans[loan].lender || msg.sender == address(funds));\n\t\tsecretHashes[loan].secretHashA1 = borrowerSecretHashes[0];\n\t\tsecretHashes[loan].secretHashAs = [ borrowerSecretHashes[1], borrowerSecretHashes[2], borrowerSecretHashes[3] ];\n\t\tsecretHashes[loan].secretHashB1 = lenderSecretHashes[0];\n\t\tsecretHashes[loan].secretHashBs = [ lenderSecretHashes[1], lenderSecretHashes[2], lenderSecretHashes[3] ];\n\t\tsecretHashes[loan].secretHashC1 = arbiterSecretHashes[0];\n\t\tsecretHashes[loan].secretHashCs = [ arbiterSecretHashes[1], arbiterSecretHashes[2], arbiterSecretHashes[3] ];\n\t\tpubKeys[loan].borrowerPubKey    = borrowerPubKey_;\n\t\tpubKeys[loan].lenderPubKey      = lenderPubKey_;\n        pubKeys[loan].arbiterPubKey       = arbiterPubKey_;\n        secretHashes[loan].set          = true;\n\t}\n\n    /**\n     * @notice Lender sends tokens to the loan agreement\n     * @param loan The Id of the Loan\n     */\n\tfunction fund(bytes32 loan) external {\n\t\trequire(secretHashes[loan].set);\n    \trequire(bools[loan].funded == false);\n    \trequire(token.transferFrom(msg.sender, address(this), principal(loan)));\n    \tbools[loan].funded = true;\n    }\n\n    /**\n     * @notice Lender approves locking of Bitcoin collateral\n     * @param loan The Id of the Loan\n     */\n    function approve(bytes32 loan) external { // Approve locking of collateral\n    \trequire(bools[loan].funded == true);\n    \trequire(loans[loan].lender == msg.sender);\n    \trequire(now                <= approveExpiration(loan));\n    \tbools[loan].approved = true;\n    }\n\n    /**\n     * @notice Borrower withdraws loan\n     * @param loan The Id of the Loan\n     * @param secretA1 Secret A1 provided by the borrower\n     */\n    function withdraw(bytes32 loan, bytes32 secretA1) external {\n    \trequire(!off(loan));\n    \trequire(bools[loan].funded == true);\n    \trequire(bools[loan].approved == true);\n    \trequire(sha256(abi.encodePacked(secretA1)) == secretHashes[loan].secretHashA1);\n    \trequire(token.transfer(loans[loan].borrower, principal(loan)));\n    \tbools[loan].withdrawn = true;\n        secretHashes[loan].withdrawSecret = secretA1;\n    }\n\n    /**\n     * @notice Lender sends tokens to the loan agreement\n     * @param loan The Id of the Loan\n     * @param amount The amount of tokens to repay\n     *\n     *        Note: Anyone can repay the loan\n     */\n    function repay(bytes32 loan, uint256 amount) external {\n    \trequire(!off(loan));\n        require(!sale(loan));\n    \trequire(bools[loan].withdrawn     == true);\n    \trequire(now                       <= loans[loan].loanExpiration);\n    \trequire(add(amount, repaid(loan))    <= owedForLoan(loan));\n    \trequire(token.transferFrom(msg.sender, address(this), amount));\n    \trepayments[loan] = add(amount, repayments[loan]);\n    \tif (repaid(loan) == owedForLoan(loan)) {\n    \t\tbools[loan].paid = true;\n    \t}\n    }\n\n    /**\n     * @notice Borrower refunds tokens in the case that Lender doesn't accept loan repayment\n     * @dev Send tokens back to the Borrower, and close Loan\n     * @param loan The Id of the Loan\n     *\n     *        Note: If Lender does not accept repayment, liquidation cannot occur\n     */\n    function refund(bytes32 loan) external {\n    \trequire(!off(loan));\n        require(!sale(loan));\n    \trequire(now              >  acceptExpiration(loan));\n    \trequire(bools[loan].paid == true);\n    \trequire(msg.sender       == loans[loan].borrower);\n        bools[loan].off = true;\n    \trequire(token.transfer(loans[loan].borrower, owedForLoan(loan)));\n        if (funds.custom(fundIndex[loan]) == false) {\n            funds.decreaseTotalBorrow(loans[loan].principal);\n            funds.calcGlobalInterest();\n        }\n    }\n\n    /**\n     * @notice Lender cancels loan after Borrower locks collateral\n     * @dev Lender cancels loan and principal is sent back to the Lender / Loan Fund\n     * @param loan The Id of the Loan\n     * @param secret Secret B1 revealed by the Lender\n     */\n    function cancel(bytes32 loan, bytes32 secret) external {\n        accept(loan, secret);\n    }\n\n    /**\n     * @notice Lender accepts loan repayment\n     * @dev Lender accepts loan repayment and principal + interest are sent back to the Lender / Loan Fund\n     * @param loan The Id of the Loan\n     * @param secret Secret B1 revealed by the Lender\n     */\n    function accept(bytes32 loan, bytes32 secret) public {\n        require(!off(loan));\n        require(bools[loan].withdrawn == false   || bools[loan].paid == true);\n        require(msg.sender == loans[loan].lender || msg.sender == loans[loan].arbiter);\n        require(sha256(abi.encodePacked(secret)) == secretHashes[loan].secretHashB1 || sha256(abi.encodePacked(secret)) == secretHashes[loan].secretHashC1);\n        require(now                              <= acceptExpiration(loan));\n        require(bools[loan].sale                 == false);\n        bools[loan].off = true;\n        secretHashes[loan].acceptSecret = secret;\n        if (bools[loan].withdrawn == false) {\n            if (fundIndex[loan] == bytes32(0)) {\n                require(token.transfer(loans[loan].lender, loans[loan].principal));\n            } else {\n                if (funds.custom(fundIndex[loan]) == false) {\n                    funds.decreaseTotalBorrow(loans[loan].principal);\n                }\n                funds.deposit(fundIndex[loan], loans[loan].principal);\n            }\n        } else if (bools[loan].withdrawn == true) {\n            if (fundIndex[loan] == bytes32(0)) {\n                require(token.transfer(loans[loan].lender, owedToLender(loan)));\n            } else {\n                if (funds.custom(fundIndex[loan]) == false) {\n                    funds.decreaseTotalBorrow(loans[loan].principal);\n                }\n                funds.deposit(fundIndex[loan], owedToLender(loan));\n            }\n            require(token.transfer(loans[loan].arbiter, fee(loan)));\n        }\n    }\n\n    /**\n     * @notice Any third party starts liquidation of the Bitcoin collateral by providing tokens with the intention to buy at a discount\n     * @param loan The Id of the Loan\n     * @param secretHash The Secret Hash D1 provided by the liquidator\n     * @param pubKeyHash The Bitcoin Public Key Hash of the liquidator\n     * @return sale_ The Id of the Sale (Liquidation)\n     */\n    function liquidate(bytes32 loan, bytes32 secretHash, bytes20 pubKeyHash) external returns (bytes32 sale_) {\n    \trequire(!off(loan));\n        require(bools[loan].withdrawn == true);\n        require(msg.sender != loans[loan].borrower && msg.sender != loans[loan].lender);\n    \tif (sales.next(loan) == 0) {\n    \t\tif (now > loans[loan].loanExpiration) {\n\t    \t\trequire(bools[loan].paid == false);\n\t\t\t} else {\n\t\t\t\trequire(!safe(loan));\n\t\t\t}\n            if (funds.custom(fundIndex[loan]) == false) {\n                funds.decreaseTotalBorrow(loans[loan].principal);\n                funds.calcGlobalInterest();\n            }\n\t\t} else {\n\t\t\trequire(sales.next(loan) < 3);\n            require(now > sales.settlementExpiration(sales.saleIndexByLoan(loan, sales.next(loan) - 1))); // Can only start liquidation after settlement expiration of pervious liquidation\n            require(!sales.accepted(sales.saleIndexByLoan(loan, sales.next(loan) - 1))); // Can only start liquidation again if previous liquidation discountBuy wasn't taken\n\t\t}\n        require(token.balanceOf(msg.sender) >= ddiv(discountCollateralValue(loan)));\n        require(token.transferFrom(msg.sender, address(sales), ddiv(discountCollateralValue(loan))));\n        SecretHashes storage h = secretHashes[loan];\n        uint256 i = sales.next(loan);\n\t\tsale_ = sales.create(loan, loans[loan].borrower, loans[loan].lender, loans[loan].arbiter, msg.sender, h.secretHashAs[i], h.secretHashBs[i], h.secretHashCs[i], secretHash, pubKeyHash);\n        if (bools[loan].sale == false) { require(token.transfer(address(sales), repaid(loan))); }\n\t\tbools[loan].sale = true;\n    }\n}\n",
  "sourcePath": "/Users/matthewblack/atomicloans/atomicloans-eth-contracts/contracts/Loans.sol",
  "compiler": {
    "name": "solc",
    "version": "0.5.8+commit.23d335f2.Emscripten.clang"
  },
  "schemaVersion": "3.0.11",
  "updatedAt": "2019-09-05T03:01:20.164Z",
  "devdoc": {
    "methods": {
      "accept(bytes32,bytes32)": {
        "details": "Lender accepts loan repayment and principal + interest are sent back to the Lender / Loan Fund",
        "params": {
          "loan": "The Id of the Loan",
          "secret": "Secret B1 revealed by the Lender"
        }
      },
      "approve(bytes32)": {
        "params": {
          "loan": "The Id of the Loan"
        }
      },
      "cancel(bytes32,bytes32)": {
        "details": "Lender cancels loan and principal is sent back to the Lender / Loan Fund",
        "params": {
          "loan": "The Id of the Loan",
          "secret": "Secret B1 revealed by the Lender"
        }
      },
      "create(uint256,address[3],uint256[6],bytes32)": {
        "params": {
          "fundIndex_": "The optional Fund Index",
          "loanExpiration_": "The timestamp for the end of the loan",
          "usrs_": "Array of three addresses containing the borrower, lender, and optional arbiter address",
          "vals_": "Array of six uints containing loan principal, interest, liquidation penalty, optional arbiter fee, collateral amount, liquidation ratio"
        }
      },
      "fund(bytes32)": {
        "params": {
          "loan": "The Id of the Loan"
        }
      },
      "liquidate(bytes32,bytes32,bytes20)": {
        "params": {
          "loan": "The Id of the Loan",
          "pubKeyHash": "The Bitcoin Public Key Hash of the liquidator",
          "secretHash": "The Secret Hash D1 provided by the liquidator"
        },
        "return": "sale_ The Id of the Sale (Liquidation)"
      },
      "refund(bytes32)": {
        "details": "Send tokens back to the Borrower, and close Loan",
        "params": {
          "loan": "The Id of the Loan     *        Note: If Lender does not accept repayment, liquidation cannot occur"
        }
      },
      "repay(bytes32,uint256)": {
        "params": {
          "amount": "The amount of tokens to repay     *        Note: Anyone can repay the loan",
          "loan": "The Id of the Loan"
        }
      },
      "setSales(address)": {
        "details": "Sets Sales contract",
        "params": {
          "sales_": "Address of Sales contract"
        }
      },
      "setSecretHashes(bytes32,bytes32[4],bytes32[4],bytes32[4],bytes,bytes,bytes)": {
        "params": {
          "arbiterPubKey_": "Arbiter Bitcoin Public Key",
          "arbiterSecretHashes": "Arbiter secret hashes",
          "borrowerPubKey_": "Borrower Bitcoin Public Key",
          "borrowerSecretHashes": "Borrower secret hashes",
          "lenderPubKey_": "Lender Bitcoin Public Key",
          "lenderSecretHashes": "Lender secret hashes",
          "loan": "The Id of the Loan"
        }
      },
      "withdraw(bytes32,bytes32)": {
        "params": {
          "loan": "The Id of the Loan",
          "secretA1": "Secret A1 provided by the borrower"
        }
      }
    }
  },
  "userdoc": {
    "methods": {
      "accept(bytes32,bytes32)": {
        "notice": "Lender accepts loan repayment"
      },
      "approve(bytes32)": {
        "notice": "Lender approves locking of Bitcoin collateral"
      },
      "cancel(bytes32,bytes32)": {
        "notice": "Lender cancels loan after Borrower locks collateral"
      },
      "create(uint256,address[3],uint256[6],bytes32)": {
        "notice": "Creates a new loan agreement"
      },
      "fund(bytes32)": {
        "notice": "Lender sends tokens to the loan agreement"
      },
      "liquidate(bytes32,bytes32,bytes20)": {
        "notice": "Any third party starts liquidation of the Bitcoin collateral by providing tokens with the intention to buy at a discount"
      },
      "refund(bytes32)": {
        "notice": "Borrower refunds tokens in the case that Lender doesn't accept loan repayment"
      },
      "repay(bytes32,uint256)": {
        "notice": "Lender sends tokens to the loan agreement"
      },
      "setSecretHashes(bytes32,bytes32[4],bytes32[4],bytes32[4],bytes,bytes,bytes)": {
        "notice": "Set Secret Hashes for loan agreement"
      },
      "withdraw(bytes32,bytes32)": {
        "notice": "Borrower withdraws loan"
      }
    }
  }
}