{
  "contractName": "Sales",
  "abi": [
    {
      "constant": true,
      "inputs": [
        {
          "name": "",
          "type": "bytes32"
        }
      ],
      "name": "sales",
      "outputs": [
        {
          "name": "loanIndex",
          "type": "bytes32"
        },
        {
          "name": "discountBuy",
          "type": "uint256"
        },
        {
          "name": "liquidator",
          "type": "address"
        },
        {
          "name": "borrower",
          "type": "address"
        },
        {
          "name": "lender",
          "type": "address"
        },
        {
          "name": "arbiter",
          "type": "address"
        },
        {
          "name": "createdAt",
          "type": "uint256"
        },
        {
          "name": "pubKeyHash",
          "type": "bytes20"
        },
        {
          "name": "set",
          "type": "bool"
        },
        {
          "name": "accepted",
          "type": "bool"
        },
        {
          "name": "off",
          "type": "bool"
        }
      ],
      "payable": false,
      "stateMutability": "view",
      "type": "function"
    },
    {
      "constant": true,
      "inputs": [
        {
          "name": "",
          "type": "bytes32"
        },
        {
          "name": "",
          "type": "uint256"
        }
      ],
      "name": "saleIndexByLoan",
      "outputs": [
        {
          "name": "",
          "type": "bytes32"
        }
      ],
      "payable": false,
      "stateMutability": "view",
      "type": "function"
    },
    {
      "constant": true,
      "inputs": [],
      "name": "SETTLEMENT_EXP",
      "outputs": [
        {
          "name": "",
          "type": "uint256"
        }
      ],
      "payable": false,
      "stateMutability": "view",
      "type": "function"
    },
    {
      "constant": true,
      "inputs": [],
      "name": "saleIndex",
      "outputs": [
        {
          "name": "",
          "type": "uint256"
        }
      ],
      "payable": false,
      "stateMutability": "view",
      "type": "function"
    },
    {
      "constant": true,
      "inputs": [
        {
          "name": "",
          "type": "bytes32"
        }
      ],
      "name": "arbiterSigs",
      "outputs": [
        {
          "name": "refundableSig",
          "type": "bytes"
        },
        {
          "name": "seizableSig",
          "type": "bytes"
        }
      ],
      "payable": false,
      "stateMutability": "view",
      "type": "function"
    },
    {
      "constant": true,
      "inputs": [
        {
          "name": "",
          "type": "bytes32"
        }
      ],
      "name": "lenderSigs",
      "outputs": [
        {
          "name": "refundableSig",
          "type": "bytes"
        },
        {
          "name": "seizableSig",
          "type": "bytes"
        }
      ],
      "payable": false,
      "stateMutability": "view",
      "type": "function"
    },
    {
      "constant": true,
      "inputs": [
        {
          "name": "",
          "type": "bytes32"
        }
      ],
      "name": "secretHashes",
      "outputs": [
        {
          "name": "secretHashA",
          "type": "bytes32"
        },
        {
          "name": "secretA",
          "type": "bytes32"
        },
        {
          "name": "secretHashB",
          "type": "bytes32"
        },
        {
          "name": "secretB",
          "type": "bytes32"
        },
        {
          "name": "secretHashC",
          "type": "bytes32"
        },
        {
          "name": "secretC",
          "type": "bytes32"
        },
        {
          "name": "secretHashD",
          "type": "bytes32"
        },
        {
          "name": "secretD",
          "type": "bytes32"
        }
      ],
      "payable": false,
      "stateMutability": "view",
      "type": "function"
    },
    {
      "constant": true,
      "inputs": [
        {
          "name": "",
          "type": "bytes32"
        }
      ],
      "name": "borrowerSigs",
      "outputs": [
        {
          "name": "refundableSig",
          "type": "bytes"
        },
        {
          "name": "seizableSig",
          "type": "bytes"
        }
      ],
      "payable": false,
      "stateMutability": "view",
      "type": "function"
    },
    {
      "constant": true,
      "inputs": [],
      "name": "deployer",
      "outputs": [
        {
          "name": "",
          "type": "address"
        }
      ],
      "payable": false,
      "stateMutability": "view",
      "type": "function"
    },
    {
      "constant": true,
      "inputs": [],
      "name": "SWAP_EXP",
      "outputs": [
        {
          "name": "",
          "type": "uint256"
        }
      ],
      "payable": false,
      "stateMutability": "view",
      "type": "function"
    },
    {
      "constant": true,
      "inputs": [
        {
          "name": "x",
          "type": "uint256"
        },
        {
          "name": "y",
          "type": "uint256"
        }
      ],
      "name": "cmul",
      "outputs": [
        {
          "name": "z",
          "type": "uint256"
        }
      ],
      "payable": false,
      "stateMutability": "pure",
      "type": "function"
    },
    {
      "constant": true,
      "inputs": [],
      "name": "token",
      "outputs": [
        {
          "name": "",
          "type": "address"
        }
      ],
      "payable": false,
      "stateMutability": "view",
      "type": "function"
    },
    {
      "inputs": [
        {
          "name": "loans_",
          "type": "address"
        },
        {
          "name": "med_",
          "type": "address"
        },
        {
          "name": "token_",
          "type": "address"
        }
      ],
      "payable": false,
      "stateMutability": "nonpayable",
      "type": "constructor"
    },
    {
      "constant": true,
      "inputs": [
        {
          "name": "sale",
          "type": "bytes32"
        }
      ],
      "name": "discountBuy",
      "outputs": [
        {
          "name": "",
          "type": "uint256"
        }
      ],
      "payable": false,
      "stateMutability": "view",
      "type": "function"
    },
    {
      "constant": true,
      "inputs": [
        {
          "name": "sale",
          "type": "bytes32"
        }
      ],
      "name": "swapExpiration",
      "outputs": [
        {
          "name": "",
          "type": "uint256"
        }
      ],
      "payable": false,
      "stateMutability": "view",
      "type": "function"
    },
    {
      "constant": true,
      "inputs": [
        {
          "name": "sale",
          "type": "bytes32"
        }
      ],
      "name": "settlementExpiration",
      "outputs": [
        {
          "name": "",
          "type": "uint256"
        }
      ],
      "payable": false,
      "stateMutability": "view",
      "type": "function"
    },
    {
      "constant": true,
      "inputs": [
        {
          "name": "sale",
          "type": "bytes32"
        }
      ],
      "name": "accepted",
      "outputs": [
        {
          "name": "",
          "type": "bool"
        }
      ],
      "payable": false,
      "stateMutability": "view",
      "type": "function"
    },
    {
      "constant": true,
      "inputs": [
        {
          "name": "sale",
          "type": "bytes32"
        }
      ],
      "name": "off",
      "outputs": [
        {
          "name": "",
          "type": "bool"
        }
      ],
      "payable": false,
      "stateMutability": "view",
      "type": "function"
    },
    {
      "constant": true,
      "inputs": [
        {
          "name": "loan",
          "type": "bytes32"
        }
      ],
      "name": "next",
      "outputs": [
        {
          "name": "",
          "type": "uint256"
        }
      ],
      "payable": false,
      "stateMutability": "view",
      "type": "function"
    },
    {
      "constant": false,
      "inputs": [
        {
          "name": "loanIndex",
          "type": "bytes32"
        },
        {
          "name": "borrower",
          "type": "address"
        },
        {
          "name": "lender",
          "type": "address"
        },
        {
          "name": "arbiter",
          "type": "address"
        },
        {
          "name": "liquidator",
          "type": "address"
        },
        {
          "name": "secretHashA",
          "type": "bytes32"
        },
        {
          "name": "secretHashB",
          "type": "bytes32"
        },
        {
          "name": "secretHashC",
          "type": "bytes32"
        },
        {
          "name": "secretHashD",
          "type": "bytes32"
        },
        {
          "name": "pubKeyHash",
          "type": "bytes20"
        }
      ],
      "name": "create",
      "outputs": [
        {
          "name": "sale",
          "type": "bytes32"
        }
      ],
      "payable": false,
      "stateMutability": "nonpayable",
      "type": "function"
    },
    {
      "constant": false,
      "inputs": [
        {
          "name": "sale",
          "type": "bytes32"
        },
        {
          "name": "refundableSig",
          "type": "bytes"
        },
        {
          "name": "seizableSig",
          "type": "bytes"
        }
      ],
      "name": "provideSig",
      "outputs": [],
      "payable": false,
      "stateMutability": "nonpayable",
      "type": "function"
    },
    {
      "constant": false,
      "inputs": [
        {
          "name": "sale",
          "type": "bytes32"
        },
        {
          "name": "secret_",
          "type": "bytes32"
        }
      ],
      "name": "provideSecret",
      "outputs": [],
      "payable": false,
      "stateMutability": "nonpayable",
      "type": "function"
    },
    {
      "constant": true,
      "inputs": [
        {
          "name": "sale",
          "type": "bytes32"
        }
      ],
      "name": "hasSecrets",
      "outputs": [
        {
          "name": "",
          "type": "bool"
        }
      ],
      "payable": false,
      "stateMutability": "view",
      "type": "function"
    },
    {
      "constant": false,
      "inputs": [
        {
          "name": "sale",
          "type": "bytes32"
        }
      ],
      "name": "accept",
      "outputs": [],
      "payable": false,
      "stateMutability": "nonpayable",
      "type": "function"
    },
    {
      "constant": false,
      "inputs": [
        {
          "name": "sale",
          "type": "bytes32"
        }
      ],
      "name": "refund",
      "outputs": [],
      "payable": false,
      "stateMutability": "nonpayable",
      "type": "function"
    }
  ],
  "bytecode": "0x608060405234801561001057600080fd5b506040516060806124de8339810180604052606081101561003057600080fd5b508051602082015160409092015160028054600160a060020a03938416600160a060020a031991821681179092556000805482169092179091556001805494841694821694909417909355600a80549290911691909216179055612445806100996000396000f3fe608060405234801561001057600080fd5b506004361061015c5760003560e060020a9004806383cd9fbf116100c7578063d4b7a07211610080578063d4b7a07214610612578063d5f394881461062f578063e34abe4c14610653578063e4725ba11461065b578063f7837eb714610678578063fc0c546a1461069b5761015c565b806383cd9fbf146103995780638642afd114610494578063a6b7d54e146104b1578063b9b8b1fe146104ce578063d34ca8ff14610597578063d357691d146105b45761015c565b80632dab9da3116101195780632dab9da3146102f857806359949df41461031d5780636c636ca51461033a5780636ec012e7146103575780636f6d99ab1461035f5780637249fbb61461037c5761015c565b806302d3af5b146101615780630c2afd72146101905780630c4afecf146102255780631a81dcab1461029c5780631b9e0f8f146102bf5780632d33c553146102f0575b600080fd5b61017e6004803603602081101561017757600080fd5b50356106a3565b60408051918252519081900360200190f35b6101ad600480360360208110156101a657600080fd5b50356106b5565b604080519b8c5260208c019a909a52600160a060020a039889168b8b015296881660608b015294871660808a01529290951660a088015260c08701526bffffffffffffffffffffffff1990931660e0860152911515610100850152901515610120840152151561014083015251908190036101600190f35b61017e600480360361014081101561023c57600080fd5b508035906020810135600160a060020a03908116916040810135821691606082013581169160808101359091169060a08101359060c08101359060e0810135906101008101359061012001356bffffffffffffffffffffffff1916610772565b61017e600480360360408110156102b257600080fd5b5080359060200135610ab1565b6102dc600480360360208110156102d557600080fd5b5035610adf565b604080519115158252519081900360200190f35b61017e610d44565b61031b6004803603604081101561030e57600080fd5b5080359060200135610d4a565b005b6102dc6004803603602081101561033357600080fd5b50356110f5565b61017e6004803603602081101561035057600080fd5b5035611127565b61017e61113c565b61017e6004803603602081101561037557600080fd5b5035611142565b61031b6004803603602081101561039257600080fd5b503561115b565b6103b6600480360360208110156103af57600080fd5b50356113fc565b604051808060200180602001838103835285818151815260200191508051906020019080838360005b838110156103f75781810151838201526020016103df565b50505050905090810190601f1680156104245780820380516001836020036101000a031916815260200191505b50838103825284518152845160209182019186019080838360005b8381101561045757818101518382015260200161043f565b50505050905090810190601f1680156104845780820380516001836020036101000a031916815260200191505b5094505050505060405180910390f35b6102dc600480360360208110156104aa57600080fd5b503561153b565b61017e600480360360208110156104c757600080fd5b503561156c565b61031b600480360360608110156104e457600080fd5b8135919081019060408101602082013564010000000081111561050657600080fd5b82018360208201111561051857600080fd5b8035906020019184600183028401116401000000008311171561053a57600080fd5b91939092909160208101903564010000000081111561055857600080fd5b82018360208201111561056a57600080fd5b8035906020019184600183028401116401000000008311171561058c57600080fd5b509092509050611585565b6103b6600480360360208110156105ad57600080fd5b50356116e5565b6105d1600480360360208110156105ca57600080fd5b5035611751565b604080519889526020890197909752878701959095526060870193909352608086019190915260a085015260c084015260e083015251908190036101000190f35b6103b66004803603602081101561062857600080fd5b5035611799565b610637611805565b60408051600160a060020a039092168252519081900360200190f35b61017e611814565b61031b6004803603602081101561067157600080fd5b503561181a565b61017e6004803603604081101561068e57600080fd5b50803590602001356122df565b61063761230c565b60009081526009602052604090205490565b60036020819052600091825260409091208054600182015460028301549383015460048401546005850154600686015460079096015494969395600160a060020a039485169593851694928316939190921691906c0100000000000000000000000081029060ff74010000000000000000000000000000000000000000820481169175010000000000000000000000000000000000000000008104821691760100000000000000000000000000000000000000000000909104168b565b60008054600160a060020a0316331461078a57600080fd5b610797600854600161231b565b60088190555060085460010290508a6003600083815260200190815260200160002060000181905550896003600083815260200190815260200160002060030160006101000a815481600160a060020a030219169083600160a060020a03160217905550886003600083815260200190815260200160002060040160006101000a815481600160a060020a030219169083600160a060020a03160217905550876003600083815260200190815260200160002060050160006101000a815481600160a060020a030219169083600160a060020a03160217905550866003600083815260200190815260200160002060020160006101000a815481600160a060020a030219169083600160a060020a03160217905550426003600083815260200190815260200160002060060181905550816003600083815260200190815260200160002060070160006101000a815481600160a060020a0302191690836c01000000000000000000000000900402179055506000809054906101000a9004600160a060020a0316600160a060020a0316637ff6fecc6000809054906101000a9004600160a060020a0316600160a060020a0316637888938b8e6040518263ffffffff1660e060020a0281526004018082815260200191505060206040518083038186803b15801561098757600080fd5b505afa15801561099b573d6000803e3d6000fd5b505050506040513d60208110156109b157600080fd5b50516040805160e060020a63ffffffff85160281526004810192909252516024808301926020929190829003018186803b1580156109ee57600080fd5b505afa158015610a02573d6000803e3d6000fd5b505050506040513d6020811015610a1857600080fd5b505160008281526003602090815260408083206001808201959095556007908101805474ff00000000000000000000000000000000000000001916740100000000000000000000000000000000000000001790558252808320998a5560028a0198909855600489019690965560069097019390935599855250600982529183208054928301815583529091200185905550929392505050565b60096020528160005260406000208181548110610aca57fe5b90600052602060002001600091509150505481565b6000818152600760209081526040808320805460019091015482518085019190915282518082038501815290830192839052805185949293600293909182918401908083835b60208310610b445780518252601f199092019160209182019101610b25565b51815160209384036101000a60001901801990921691161790526040519190930194509192505080830381855afa158015610b83573d6000803e3d6000fd5b5050506040513d6020811015610b9857600080fd5b50511415610ba4576001015b60008381526007602090815260409182902060028082015460039092015484518085019190915284518082038501815290850194859052805192949193909282918401908083835b60208310610c0b5780518252601f199092019160209182019101610bec565b51815160209384036101000a60001901801990921691161790526040519190930194509192505080830381855afa158015610c4a573d6000803e3d6000fd5b5050506040513d6020811015610c5f57600080fd5b50511415610c6b576001015b60008381526007602090815260409182902060048101546005909101548351808401919091528351808203840181529084019384905280519193600293919290918291908401908083835b60208310610cd55780518252601f199092019160209182019101610cb6565b51815160209384036101000a60001901801990921691161790526040519190930194509192505080830381855afa158015610d14573d6000803e3d6000fd5b5050506040513d6020811015610d2957600080fd5b50511415610d35576001015b600260ff909116101592915050565b61384081565b60008281526003602052604090206007015474010000000000000000000000000000000000000000900460ff16610d8057600080fd5b6007600083815260200190815260200160002060000154600282604051602001808281526020019150506040516020818303038152906040526040518082805190602001908083835b60208310610de85780518252601f199092019160209182019101610dc9565b51815160209384036101000a60001901801990921691161790526040519190930194509192505080830381855afa158015610e27573d6000803e3d6000fd5b5050506040513d6020811015610e3c57600080fd5b50511415610e5d5760008281526007602052604090206001018190556110f1565b6007600083815260200190815260200160002060020154600282604051602001808281526020019150506040516020818303038152906040526040518082805190602001908083835b60208310610ec55780518252601f199092019160209182019101610ea6565b51815160209384036101000a60001901801990921691161790526040519190930194509192505080830381855afa158015610f04573d6000803e3d6000fd5b5050506040513d6020811015610f1957600080fd5b50511415610f3a5760008281526007602052604090206003018190556110f1565b6007600083815260200190815260200160002060040154600282604051602001808281526020019150506040516020818303038152906040526040518082805190602001908083835b60208310610fa25780518252601f199092019160209182019101610f83565b51815160209384036101000a60001901801990921691161790526040519190930194509192505080830381855afa158015610fe1573d6000803e3d6000fd5b5050506040513d6020811015610ff657600080fd5b505114156110175760008281526007602052604090206005018190556110f1565b6007600083815260200190815260200160002060060154600282604051602001808281526020019150506040516020818303038152906040526040518082805190602001908083835b6020831061107f5780518252601f199092019160209182019101611060565b51815160209384036101000a60001901801990921691161790526040519190930194509192505080830381855afa1580156110be573d6000803e3d6000fd5b5050506040513d60208110156110d357600080fd5b5051141561015c576000828152600760208190526040909120018190555b5050565b600090815260036020526040902060070154760100000000000000000000000000000000000000000000900460ff1690565b60009081526003602052604090206001015490565b60085481565b600090815260036020526040902060060154611c200190565b6111648161153b565b1561116e57600080fd5b611177816110f5565b1561118157600080fd5b61118a8161156c565b421161119557600080fd5b6000818152600360205260409020600101546111b057600080fd5b600081815260036020908152604080832060078101805476ff000000000000000000000000000000000000000000001916760100000000000000000000000000000000000000000000179055600a5460028201546001929092015483517fa9059cbb000000000000000000000000000000000000000000000000000000008152600160a060020a0393841660048201526024810191909152925191169363a9059cbb93604480850194919392918390030190829087803b15801561127357600080fd5b505af1158015611287573d6000803e3d6000fd5b505050506040513d602081101561129d57600080fd5b50516112a857600080fd5b6000818152600360205260409020546112c0906106a3565b600314156113f957600a546000828152600360208181526040808420928301549354925481517f3e4b2a2900000000000000000000000000000000000000000000000000000000815260048101919091529051600160a060020a039586169563a9059cbb958116941692633e4b2a299260248082019391829003018186803b15801561134b57600080fd5b505afa15801561135f573d6000803e3d6000fd5b505050506040513d602081101561137557600080fd5b50516040805160e060020a63ffffffff8616028152600160a060020a03909316600484015260248301919091525160448083019260209291908290030181600087803b1580156113c457600080fd5b505af11580156113d8573d6000803e3d6000fd5b505050506040513d60208110156113ee57600080fd5b50516113f957600080fd5b50565b60066020908152600091825260409182902080548351601f600260001961010060018616150201909316929092049182018490048402810184019094528084529092918391908301828280156114935780601f1061146857610100808354040283529160200191611493565b820191906000526020600020905b81548152906001019060200180831161147657829003601f168201915b505050505090806001018054600181600116156101000203166002900480601f0160208091040260200160405190810160405280929190818152602001828054600181600116156101000203166002900480156115315780601f1061150657610100808354040283529160200191611531565b820191906000526020600020905b81548152906001019060200180831161151457829003601f168201915b5050505050905082565b6000908152600360205260409020600701547501000000000000000000000000000000000000000000900460ff1690565b6000908152600360205260409020600601546138400190565b60008581526003602052604090206007015474010000000000000000000000000000000000000000900460ff166115bb57600080fd5b6115c48561156c565b42106115cf57600080fd5b60008581526003602081905260409091200154600160a060020a031633141561162e57600085815260046020526040902061160b90858561237e565b50600085815260046020526040902061162890600101838361237e565b506116de565b600085815260036020526040902060040154600160a060020a031633141561168657600085815260056020526040902061166990858561237e565b50600085815260056020526040902061162890600101838361237e565b600085815260036020526040902060050154600160a060020a031633141561015c5760008581526006602052604090206116c190858561237e565b50600085815260066020526040902061162890600101838361237e565b5050505050565b60056020908152600091825260409182902080548351601f600260001961010060018616150201909316929092049182018490048402810184019094528084529092918391908301828280156114935780601f1061146857610100808354040283529160200191611493565b60076020528060005260406000206000915090508060000154908060010154908060020154908060030154908060040154908060050154908060060154908060070154905088565b60046020908152600091825260409182902080548351601f600260001961010060018616150201909316929092049182018490048402810184019094528084529092918391908301828280156114935780601f1061146857610100808354040283529160200191611493565b600254600160a060020a031681565b611c2081565b6118238161153b565b1561182d57600080fd5b611836816110f5565b1561184057600080fd5b61184981610adf565b61185257600080fd5b600081815260076020818152604092839020600681015492015483518083019190915283518082038301815290840193849052805192936002939192909182918401908083835b602083106118b85780518252601f199092019160209182019101611899565b51815160209384036101000a60001901801990921691161790526040519190930194509192505080830381855afa1580156118f7573d6000803e3d6000fd5b5050506040513d602081101561190c57600080fd5b50511461191857600080fd5b600081815260036020908152604080832060078101805475ff0000000000000000000000000000000000000000001916750100000000000000000000000000000000000000000017905560018101548454915483517f3e4b2a29000000000000000000000000000000000000000000000000000000008152600481019190915292516119ff949193600160a060020a0390931692633e4b2a29926024808301939192829003018186803b1580156119ce57600080fd5b505afa1580156119e2573d6000803e3d6000fd5b505050506040513d60208110156119f857600080fd5b505161231b565b600080548482526003602090815260408084205481517ff69736e0000000000000000000000000000000000000000000000000000000008152600481019190915290519495509293611aa8938693600160a060020a03169263f69736e092602480840193829003018186803b158015611a7757600080fd5b505afa158015611a8b573d6000803e3d6000fd5b505050506040513d6020811015611aa157600080fd5b5051612331565b600a54600085815260036020908152604080832060049081015482517fa9059cbb000000000000000000000000000000000000000000000000000000008152600160a060020a039182169281019290925260248201879052915195965093169363a9059cbb93604480820194918390030190829087803b158015611b2b57600080fd5b505af1158015611b3f573d6000803e3d6000fd5b505050506040513d6020811015611b5557600080fd5b5051611b6057600080fd5b611b6a828261234a565b60008054858252600360209081526040928390205483517f27cdab0600000000000000000000000000000000000000000000000000000000815260048101919091529251939550611c6993600160a060020a03909216926327cdab069260248083019392829003018186803b158015611be257600080fd5b505afa158015611bf6573d6000803e3d6000fd5b505050506040513d6020811015611c0c57600080fd5b5051600080548682526003602090815260409283902054835160e460020a63026fc75902815260048101919091529251600160a060020a03909216926326fc75909260248083019392829003018186803b1580156119ce57600080fd5b82106120e957600083815260036020526040902060050154600160a060020a031615611dc357600a54600084815260036020908152604080832060058101549354905482517f27cdab0600000000000000000000000000000000000000000000000000000000815260048101919091529151600160a060020a039586169563a9059cbb958116949216926327cdab06926024808301939192829003018186803b158015611d1557600080fd5b505afa158015611d29573d6000803e3d6000fd5b505050506040513d6020811015611d3f57600080fd5b50516040805160e060020a63ffffffff8616028152600160a060020a03909316600484015260248301919091525160448083019260209291908290030181600087803b158015611d8e57600080fd5b505af1158015611da2573d6000803e3d6000fd5b505050506040513d6020811015611db857600080fd5b5051611dc357600080fd5b600a54600154600080548682526003602090815260409283902054835160e460020a63026fc75902815260048101919091529251600160a060020a039586169563095ea7b3958116949316926326fc7590926024808301939192829003018186803b158015611e3157600080fd5b505afa158015611e45573d6000803e3d6000fd5b505050506040513d6020811015611e5b57600080fd5b50516040805160e060020a63ffffffff8616028152600160a060020a03909316600484015260248301919091525160448083019260209291908290030181600087803b158015611eaa57600080fd5b505af1158015611ebe573d6000803e3d6000fd5b505050506040513d6020811015611ed457600080fd5b5051611edf57600080fd5b600154600080548582526003602090815260409283902054835160e460020a63026fc75902815260048101919091529251600160a060020a039485169463c80fbe4e949316926326fc7590926024808301939192829003018186803b158015611f4757600080fd5b505afa158015611f5b573d6000803e3d6000fd5b505050506040513d6020811015611f7157600080fd5b5051600a546040805160e060020a63ffffffff86160281526004810193909352600160a060020a03909116602483015251604480830192600092919082900301818387803b158015611fc257600080fd5b505af1158015611fd6573d6000803e3d6000fd5b505060008054868252600360209081526040928390205483517f27cdab06000000000000000000000000000000000000000000000000000000008152600481019190915292516120e295508794506120dd93600160a060020a03909316926327cdab06926024808301939192829003018186803b15801561205657600080fd5b505afa15801561206a573d6000803e3d6000fd5b505050506040513d602081101561208057600080fd5b5051600080548882526003602090815260409283902054835160e460020a63026fc75902815260048101919091529251600160a060020a03909216926326fc75909260248083019392829003018186803b1580156119ce57600080fd5b61234a565b9150612224565b811561222457600a54600154604080517f095ea7b3000000000000000000000000000000000000000000000000000000008152600160a060020a039283166004820152602481018690529051919092169163095ea7b39160448083019260209291908290030181600087803b15801561216157600080fd5b505af1158015612175573d6000803e3d6000fd5b505050506040513d602081101561218b57600080fd5b505161219657600080fd5b600154600a54604080517fc80fbe4e00000000000000000000000000000000000000000000000000000000815260048101869052600160a060020a0392831660248201529051919092169163c80fbe4e91604480830192600092919082900301818387803b15801561220757600080fd5b505af115801561221b573d6000803e3d6000fd5b50505050600091505b81156122da57600a5460008481526003602081815260408084209092015482517fa9059cbb000000000000000000000000000000000000000000000000000000008152600160a060020a03918216600482015260248101889052925194169363a9059cbb936044808501948390030190829087803b1580156122a557600080fd5b505af11580156122b9573d6000803e3d6000fd5b505050506040513d60208110156122cf57600080fd5b50516122da57600080fd5b505050565b60006305f5e1006122fd6122f3858561235a565b6302faf08061231b565b8161230457fe5b049392505050565b600a54600160a060020a031681565b8082018281101561232b57600080fd5b92915050565b6000818311156123415781612343565b825b9392505050565b8082038281111561232b57600080fd5b60008115806123755750508082028282828161237257fe5b04145b61232b57600080fd5b828054600181600116156101000203166002900490600052602060002090601f016020900481019282601f106123bf5782800160ff198235161785556123ec565b828001600101855582156123ec579182015b828111156123ec5782358255916020019190600101906123d1565b506123f89291506123fc565b5090565b61241691905b808211156123f85760008155600101612402565b9056fea165627a7a72305820e6516c75d947e9bd276efb488adbf9c85736fb7e3d7ad7f7a9d65c12e6dd69e60029",
  "source": "import 'openzeppelin-solidity/contracts/token/ERC20/ERC20.sol';\nimport 'openzeppelin-solidity/contracts/math/SafeMath.sol';\n\nimport './Loans.sol';\nimport './Medianizer.sol';\nimport './DSMath.sol';\n\npragma solidity ^0.5.8;\n\ncontract Sales is DSMath {\n\tLoans loans;\n\tMedianizer med;\n\n    uint256 public constant SWAP_EXP = 7200;                      // Swap Expiration\n    uint256 public constant SETTLEMENT_EXP = 14400;               // Settlement Expiration\n\n\taddress public deployer; // Only the Loans contract can edit data\n\n\tmapping (bytes32 => Sale)       public sales;        // Auctions\n\tmapping (bytes32 => Sig)        public borrowerSigs; // Borrower Signatures\n\tmapping (bytes32 => Sig)        public lenderSigs;   // Lender Signatures\n\tmapping (bytes32 => Sig)        public arbiterSigs;    // Lender Signatures\n\tmapping (bytes32 => SecretHash) public secretHashes; // Auction Secret Hashes\n    uint256                         public saleIndex;    // Auction Index\n\n    mapping (bytes32 => bytes32[])  public saleIndexByLoan; // Loan Auctions (find by loanIndex)\n\n    ERC20 public token;\n\n    /**\n     * @notice Container for the sale information\n     * @member loanIndex The Id of the loan\n     * @member discountBuy The amount in tokens that the Bitcoin collateral was bought for at discount\n     * @member liquidator The address of the liquidator (party that buys the Bitcoin collateral at a discount)\n     * @member borrower The address of the borrower\n     * @member lender The address of the lender\n     * @member arbiter The address of the arbiter\n     * @member createAt The creation timestamp of the sale\n     * @member pubKeyHash The Bitcoin Public Key Hash of the liquidator\n     * @member set Indicates that the sale at this specific index has been opened\n     * @member accepted Indicates that the discountBuy has been accepted\n     * @member off Indicates that the is failed\n     */\n    struct Sale {\n        bytes32    loanIndex;\n        uint256    discountBuy;\n        address    liquidator;\n        address    borrower;\n        address    lender;\n        address    arbiter;\n        uint256    createdAt;\n        bytes20    pubKeyHash;\n        bool       set;\n        bool       accepted;\n        bool       off;\n    }\n\n    /**\n     * @notice Container for the Bitcoin refundable and seizable signature information\n     * @member refundableSig The Bitcoin refundable signature to move collateral to swap P2SH\n     * @member seizableSig The Bitcoin seizable signature to move collateral to swap P2SH\n     */\n    struct Sig {\n        bytes refundableSig;\n        bytes seizableSig;\n    }\n\n    /**\n     * @notice Container for the Bitcoin Secret and Secret Hashes information\n     */\n    struct SecretHash {\n        bytes32 secretHashA; // Secret Hash A\n        bytes32 secretA;     // Secret A\n        bytes32 secretHashB; // Secret Hash B\n        bytes32 secretB;     // Secret B\n        bytes32 secretHashC; // Secret Hash C\n        bytes32 secretC;     // Secret C\n        bytes32 secretHashD; // Secret Hash D\n        bytes32 secretD;     // Secret D\n    }\n\n    function discountBuy(bytes32 sale) public view returns (uint256) {\n        return sales[sale].discountBuy;\n    }\n\n    function swapExpiration(bytes32 sale) public view returns (uint256) {\n        return sales[sale].createdAt + SWAP_EXP;\n    }\n\n    function settlementExpiration(bytes32 sale) public view returns (uint256) {\n        return sales[sale].createdAt + SETTLEMENT_EXP;\n    }\n\n    function accepted(bytes32 sale) public view returns (bool) {\n        return sales[sale].accepted;\n    }\n\n    function off(bytes32 sale) public view returns (bool) {\n        return sales[sale].off;\n    }\n\n    constructor (Loans loans_, Medianizer med_, ERC20 token_) public {\n    \tdeployer = address(loans_);\n    \tloans    = loans_;\n    \tmed      = med_;\n        token    = token_;\n    }\n\n    function next(bytes32 loan) public view returns (uint256) {\n    \treturn saleIndexByLoan[loan].length;\n    }\n\n    /**\n     * @dev Creates a new sale (called by the Loans contract)\n     * @param loanIndex The Id of the Loan\n     * @param borrower The address of the borrower\n     * @param lender The address of the lender\n     * @param arbiter The address of the arbiter\n     * @param liquidator The address of the liquidator\n     * @param secretHashA The Secret Hash of the Borrower for the current sale number\n     * @param secretHashB The Secret Hash of the Lender for the current sale number\n     * @param secretHashC The Secret Hash of the Arbiter for the current sale number\n     * @param secretHashD the Secret Hash of the Liquidator\n     * @param pubKeyHash The Bitcoin Public Key Hash of the Liquidator\n     * @return sale The Id of the sale\n     */\n    function create(\n    \tbytes32 loanIndex,\n    \taddress borrower,\n    \taddress lender,\n        address arbiter,\n        address liquidator,\n    \tbytes32 secretHashA,\n    \tbytes32 secretHashB,\n    \tbytes32 secretHashC,\n        bytes32 secretHashD,\n        bytes20 pubKeyHash\n\t) external returns(bytes32 sale) {\n    \trequire(msg.sender == address(loans));\n    \tsaleIndex = add(saleIndex, 1);\n        sale = bytes32(saleIndex);\n        sales[sale].loanIndex   = loanIndex;\n        sales[sale].borrower    = borrower;\n        sales[sale].lender      = lender;\n        sales[sale].arbiter       = arbiter;\n        sales[sale].liquidator  = liquidator;\n        sales[sale].createdAt   = now;\n        sales[sale].pubKeyHash  = pubKeyHash;\n        sales[sale].discountBuy = loans.ddiv(loans.discountCollateralValue(loanIndex));\n        sales[sale].set         = true;\n        secretHashes[sale].secretHashA = secretHashA;\n        secretHashes[sale].secretHashB = secretHashB;\n        secretHashes[sale].secretHashC = secretHashC;\n        secretHashes[sale].secretHashD = secretHashD;\n        saleIndexByLoan[loanIndex].push(sale);\n    }\n\n    /**\n     * @notice Provide Bitcoin signatures for moving collateral to collateral swap script\n     * @param sale The Id of the sale\n     * @param refundableSig The Bitcoin refundable collateral signature\n     * @param seizableSig The Bitcoin seizable collateral signature\n     *\n     *         Note: More info on the collateral swap script can be seen here:\n                     https://github.com/AtomicLoans/chainabstractionlayer-loans\n     */\n\tfunction provideSig(\n\t\tbytes32        sale,\n\t\tbytes calldata refundableSig,\n\t\tbytes calldata seizableSig\n\t) external {\n\t\trequire(sales[sale].set);\n\t\trequire(now < settlementExpiration(sale));\n\t\tif (msg.sender == sales[sale].borrower) {\n\t\t\tborrowerSigs[sale].refundableSig = refundableSig;\n\t\t\tborrowerSigs[sale].seizableSig   = seizableSig;\n\t\t} else if (msg.sender == sales[sale].lender) {\n\t\t\tlenderSigs[sale].refundableSig = refundableSig;\n\t\t\tlenderSigs[sale].seizableSig   = seizableSig;\n\t\t} else if (msg.sender == sales[sale].arbiter) {\n\t\t\tarbiterSigs[sale].refundableSig = refundableSig;\n\t\t\tarbiterSigs[sale].seizableSig   = seizableSig;\n\t\t} else {\n\t\t\trevert();\n\t\t}\n\t}\n\n    /**\n     * @notice Provide secret to enable liquidator to claim collateral\n     * @param sale The Id of the sale\n     * @param secret_ The secret provided by the borrower, lender, arbiter, or liquidator\n     */\n\tfunction provideSecret(bytes32 sale, bytes32 secret_) external {\n\t\trequire(sales[sale].set);\n\t\tif      (sha256(abi.encodePacked(secret_)) == secretHashes[sale].secretHashA) { secretHashes[sale].secretA = secret_; }\n        else if (sha256(abi.encodePacked(secret_)) == secretHashes[sale].secretHashB) { secretHashes[sale].secretB = secret_; }\n        else if (sha256(abi.encodePacked(secret_)) == secretHashes[sale].secretHashC) { secretHashes[sale].secretC = secret_; }\n        else if (sha256(abi.encodePacked(secret_)) == secretHashes[sale].secretHashD) { secretHashes[sale].secretD = secret_; }\n        else                                                                          { revert(); }\n\t}\n\n    /**\n     * @dev Indicates that two of Secret A, Secret B, Secret C have been submitted\n     * @param sale The Id of the sale\n     */\n\tfunction hasSecrets(bytes32 sale) public view returns (bool) {\n\t\tuint8 numCorrectSecrets = 0;\n\t\tif (sha256(abi.encodePacked(secretHashes[sale].secretA)) == secretHashes[sale].secretHashA) { numCorrectSecrets = numCorrectSecrets + 1; }\n\t\tif (sha256(abi.encodePacked(secretHashes[sale].secretB)) == secretHashes[sale].secretHashB) { numCorrectSecrets = numCorrectSecrets + 1; }\n\t\tif (sha256(abi.encodePacked(secretHashes[sale].secretC)) == secretHashes[sale].secretHashC) { numCorrectSecrets = numCorrectSecrets + 1; }\n\t\treturn (numCorrectSecrets >= 2);\n\t}\n\n    /**\n     * @notice Accept discount buy by liquidator and disperse funds to rightful parties\n     * @param sale The Id of the sale\n     */\n\tfunction accept(bytes32 sale) external {\n        require(!accepted(sale));\n        require(!off(sale));\n\t\trequire(hasSecrets(sale));\n\t\trequire(sha256(abi.encodePacked(secretHashes[sale].secretD)) == secretHashes[sale].secretHashD);\n        sales[sale].accepted = true;\n\n        uint256 available = add(sales[sale].discountBuy, loans.repaid(sales[sale].loanIndex));\n        uint256 amount = min(available, loans.owedToLender(sales[sale].loanIndex));\n\n        require(token.transfer(sales[sale].lender, amount));\n        available = sub(available, amount);\n\n        if (available >= add(loans.fee(sales[sale].loanIndex), loans.penalty(sales[sale].loanIndex))) {\n            if (sales[sale].arbiter != address(0)) {\n                require(token.transfer(sales[sale].arbiter, loans.fee(sales[sale].loanIndex)));\n            }\n            require(token.approve(address(med), loans.penalty(sales[sale].loanIndex)));\n            med.push(loans.penalty(sales[sale].loanIndex), token);\n            available = sub(available, add(loans.fee(sales[sale].loanIndex), loans.penalty(sales[sale].loanIndex)));\n        } else if (available > 0) {\n            require(token.approve(address(med), available));\n            med.push(available, token);\n            available = 0;\n        }\n\n        if (available > 0) { require(token.transfer(sales[sale].borrower, available)); }\n\t}\n\n    /**\n     * @notice Refund discount buy to liquidator\n     * @param sale The Id of the sale\n     */\n\tfunction refund(bytes32 sale) external {\n        require(!accepted(sale));\n        require(!off(sale));\n\t\trequire(now > settlementExpiration(sale));\n\t\trequire(sales[sale].discountBuy > 0);\n        sales[sale].off = true;\n\t\trequire(token.transfer(sales[sale].liquidator, sales[sale].discountBuy));\n        if (next(sales[sale].loanIndex) == 3) {\n            require(token.transfer(sales[sale].borrower, loans.repaid(sales[sale].loanIndex)));\n        }\n\t}\n}",
  "sourcePath": "/Users/matthewblack/atomicloans/atomicloans-eth-contracts/contracts/Sales.sol",
  "compiler": {
    "name": "solc",
    "version": "0.5.8+commit.23d335f2.Emscripten.clang"
  },
  "schemaVersion": "3.0.11",
  "updatedAt": "2019-09-05T03:01:20.186Z",
  "devdoc": {
    "methods": {
      "accept(bytes32)": {
        "params": {
          "sale": "The Id of the sale"
        }
      },
      "create(bytes32,address,address,address,address,bytes32,bytes32,bytes32,bytes32,bytes20)": {
        "details": "Creates a new sale (called by the Loans contract)",
        "params": {
          "arbiter": "The address of the arbiter",
          "borrower": "The address of the borrower",
          "lender": "The address of the lender",
          "liquidator": "The address of the liquidator",
          "loanIndex": "The Id of the Loan",
          "pubKeyHash": "The Bitcoin Public Key Hash of the Liquidator",
          "secretHashA": "The Secret Hash of the Borrower for the current sale number",
          "secretHashB": "The Secret Hash of the Lender for the current sale number",
          "secretHashC": "The Secret Hash of the Arbiter for the current sale number",
          "secretHashD": "the Secret Hash of the Liquidator"
        },
        "return": "sale The Id of the sale"
      },
      "hasSecrets(bytes32)": {
        "details": "Indicates that two of Secret A, Secret B, Secret C have been submitted",
        "params": {
          "sale": "The Id of the sale"
        }
      },
      "provideSecret(bytes32,bytes32)": {
        "params": {
          "sale": "The Id of the sale",
          "secret_": "The secret provided by the borrower, lender, arbiter, or liquidator"
        }
      },
      "provideSig(bytes32,bytes,bytes)": {
        "params": {
          "refundableSig": "The Bitcoin refundable collateral signature",
          "sale": "The Id of the sale",
          "seizableSig": "The Bitcoin seizable collateral signature     *         Note: More info on the collateral swap script can be seen here: https://github.com/AtomicLoans/chainabstractionlayer-loans"
        }
      },
      "refund(bytes32)": {
        "params": {
          "sale": "The Id of the sale"
        }
      }
    }
  },
  "userdoc": {
    "methods": {
      "accept(bytes32)": {
        "notice": "Accept discount buy by liquidator and disperse funds to rightful parties"
      },
      "provideSecret(bytes32,bytes32)": {
        "notice": "Provide secret to enable liquidator to claim collateral"
      },
      "provideSig(bytes32,bytes,bytes)": {
        "notice": "Provide Bitcoin signatures for moving collateral to collateral swap script"
      },
      "refund(bytes32)": {
        "notice": "Refund discount buy to liquidator"
      }
    }
  }
}